{
  "_format": "hh-sol-artifact-1",
  "contractName": "Supplier",
  "sourceName": "contracts/Supplier.sol",
  "abi": [
    {
      "inputs": [],
      "stateMutability": "nonpayable",
      "type": "constructor"
    },
    {
      "anonymous": false,
      "inputs": [
        {
          "indexed": true,
          "internalType": "address",
          "name": "user",
          "type": "address"
        },
        {
          "indexed": false,
          "internalType": "string",
          "name": "boosterName",
          "type": "string"
        },
        {
          "indexed": false,
          "internalType": "uint256",
          "name": "date",
          "type": "uint256"
        },
        {
          "indexed": false,
          "internalType": "uint256",
          "name": "tokenID",
          "type": "uint256"
        }
      ],
      "name": "EventBoughtBooster",
      "type": "event"
    },
    {
      "anonymous": false,
      "inputs": [
        {
          "indexed": true,
          "internalType": "address",
          "name": "user",
          "type": "address"
        },
        {
          "indexed": false,
          "internalType": "string",
          "name": "boosterName",
          "type": "string"
        },
        {
          "indexed": false,
          "internalType": "uint256",
          "name": "date",
          "type": "uint256"
        },
        {
          "indexed": false,
          "internalType": "uint256",
          "name": "tokenID",
          "type": "uint256"
        }
      ],
      "name": "EventRedeemBooster",
      "type": "event"
    },
    {
      "inputs": [],
      "name": "booster",
      "outputs": [
        {
          "internalType": "contract Booster",
          "name": "",
          "type": "address"
        }
      ],
      "stateMutability": "view",
      "type": "function"
    },
    {
      "inputs": [
        {
          "internalType": "string",
          "name": "tier",
          "type": "string"
        }
      ],
      "name": "buyBooster",
      "outputs": [],
      "stateMutability": "payable",
      "type": "function"
    },
    {
      "inputs": [
        {
          "internalType": "string",
          "name": "",
          "type": "string"
        }
      ],
      "name": "foodMeta",
      "outputs": [
        {
          "internalType": "string",
          "name": "name",
          "type": "string"
        },
        {
          "internalType": "string",
          "name": "restaurant",
          "type": "string"
        },
        {
          "internalType": "uint256",
          "name": "price",
          "type": "uint256"
        }
      ],
      "stateMutability": "view",
      "type": "function"
    },
    {
      "inputs": [
        {
          "internalType": "string",
          "name": "",
          "type": "string"
        },
        {
          "internalType": "uint256",
          "name": "",
          "type": "uint256"
        }
      ],
      "name": "foods",
      "outputs": [
        {
          "internalType": "string",
          "name": "name",
          "type": "string"
        },
        {
          "internalType": "string",
          "name": "restaurant",
          "type": "string"
        },
        {
          "internalType": "uint256",
          "name": "price",
          "type": "uint256"
        }
      ],
      "stateMutability": "view",
      "type": "function"
    },
    {
      "inputs": [
        {
          "internalType": "string",
          "name": "name",
          "type": "string"
        }
      ],
      "name": "getFoodPrice",
      "outputs": [
        {
          "internalType": "uint256",
          "name": "",
          "type": "uint256"
        }
      ],
      "stateMutability": "view",
      "type": "function"
    },
    {
      "inputs": [
        {
          "internalType": "string",
          "name": "name",
          "type": "string"
        }
      ],
      "name": "getFoodRestaurant",
      "outputs": [
        {
          "internalType": "string",
          "name": "",
          "type": "string"
        }
      ],
      "stateMutability": "view",
      "type": "function"
    },
    {
      "inputs": [],
      "name": "getSupplierBoosters",
      "outputs": [
        {
          "components": [
            {
              "internalType": "string",
              "name": "tier",
              "type": "string"
            },
            {
              "internalType": "uint256",
              "name": "tokenID",
              "type": "uint256"
            }
          ],
          "internalType": "struct Supplier.BoosterToken[]",
          "name": "",
          "type": "tuple[]"
        }
      ],
      "stateMutability": "view",
      "type": "function"
    },
    {
      "inputs": [
        {
          "internalType": "string",
          "name": "name",
          "type": "string"
        }
      ],
      "name": "getVoucherValue",
      "outputs": [
        {
          "internalType": "uint256",
          "name": "",
          "type": "uint256"
        }
      ],
      "stateMutability": "view",
      "type": "function"
    },
    {
      "inputs": [
        {
          "internalType": "string",
          "name": "_name",
          "type": "string"
        },
        {
          "internalType": "string",
          "name": "_restaurant",
          "type": "string"
        },
        {
          "internalType": "uint256",
          "name": "_price",
          "type": "uint256"
        }
      ],
      "name": "listFood",
      "outputs": [],
      "stateMutability": "nonpayable",
      "type": "function"
    },
    {
      "inputs": [
        {
          "internalType": "string",
          "name": "_name",
          "type": "string"
        },
        {
          "internalType": "string",
          "name": "_restaurant",
          "type": "string"
        },
        {
          "internalType": "uint256",
          "name": "_value",
          "type": "uint256"
        }
      ],
      "name": "listVoucher",
      "outputs": [],
      "stateMutability": "nonpayable",
      "type": "function"
    },
    {
      "inputs": [
        {
          "internalType": "uint256",
          "name": "boosterID",
          "type": "uint256"
        }
      ],
      "name": "redeemBooster",
      "outputs": [],
      "stateMutability": "nonpayable",
      "type": "function"
    },
    {
      "inputs": [
        {
          "internalType": "address",
          "name": "",
          "type": "address"
        },
        {
          "internalType": "uint256",
          "name": "",
          "type": "uint256"
        }
      ],
      "name": "suppliersBoosterTokens",
      "outputs": [
        {
          "internalType": "string",
          "name": "tier",
          "type": "string"
        },
        {
          "internalType": "uint256",
          "name": "tokenID",
          "type": "uint256"
        }
      ],
      "stateMutability": "view",
      "type": "function"
    },
    {
      "inputs": [
        {
          "internalType": "string",
          "name": "",
          "type": "string"
        }
      ],
      "name": "voucherMeta",
      "outputs": [
        {
          "internalType": "string",
          "name": "name",
          "type": "string"
        },
        {
          "internalType": "uint256",
          "name": "value",
          "type": "uint256"
        }
      ],
      "stateMutability": "view",
      "type": "function"
    },
    {
      "inputs": [
        {
          "internalType": "string",
          "name": "",
          "type": "string"
        },
        {
          "internalType": "uint256",
          "name": "",
          "type": "uint256"
        }
      ],
      "name": "vouchers",
      "outputs": [
        {
          "internalType": "string",
          "name": "name",
          "type": "string"
        },
        {
          "internalType": "uint256",
          "name": "value",
          "type": "uint256"
        }
      ],
      "stateMutability": "view",
      "type": "function"
    }
  ],
  "bytecode": "0x608060405234801561001057600080fd5b50336000806101000a81548173ffffffffffffffffffffffffffffffffffffffff021916908373ffffffffffffffffffffffffffffffffffffffff16021790555060405161005d906100bf565b604051809103906000f080158015610079573d6000803e3d6000fd5b50600660006101000a81548173ffffffffffffffffffffffffffffffffffffffff021916908373ffffffffffffffffffffffffffffffffffffffff1602179055506100cd565b61384f8062001f0c83390190565b611e2f80620000dd6000396000f3fe6080604052600436106100dd5760003560e01c8063899c67431161007f578063c4120a0a11610059578063c4120a0a146102ec578063c6def07614610315578063d797777a14610340578063dc8a8e661461037f576100dd565b8063899c6743146102485780639419f50114610271578063b0d4c1de146102ae576100dd565b8063603f830e116100bb578063603f830e1461016757806370583826146101a557806376642521146101e25780637e29f8ac1461020b576100dd565b80630dce6a91146100e25780632bc5c973146101205780633013ee301461013c575b600080fd5b3480156100ee57600080fd5b50610109600480360381019061010491906114cf565b6103be565b6040516101179291906119bf565b60405180910390f35b61013a6004803603810190610135919061150b565b610487565b005b34801561014857600080fd5b50610151610680565b60405161015e919061191b565b60405180910390f35b34801561017357600080fd5b5061018e600480360381019061018991906115cb565b6107b8565b60405161019c9291906119bf565b60405180910390f35b3480156101b157600080fd5b506101cc60048036038101906101c7919061150b565b610897565b6040516101d99190611958565b60405180910390f35b3480156101ee57600080fd5b506102096004803603810190610204919061161f565b61094a565b005b34801561021757600080fd5b50610232600480360381019061022d919061150b565b610ccb565b60405161023f9190611a8b565b60405180910390f35b34801561025457600080fd5b5061026f600480360381019061026a919061154c565b610cf6565b005b34801561027d57600080fd5b506102986004803603810190610293919061150b565b610e0f565b6040516102a59190611a8b565b60405180910390f35b3480156102ba57600080fd5b506102d560048036038101906102d0919061150b565b610e3a565b6040516102e39291906119bf565b60405180910390f35b3480156102f857600080fd5b50610313600480360381019061030e919061154c565b610efc565b005b34801561032157600080fd5b5061032a610fd5565b604051610337919061193d565b60405180910390f35b34801561034c57600080fd5b50610367600480360381019061036291906115cb565b610ffb565b6040516103769392919061197a565b60405180910390f35b34801561038b57600080fd5b506103a660048036038101906103a1919061150b565b611168565b6040516103b59392919061197a565b60405180910390f35b600160205281600052604060002081815481106103da57600080fd5b9060005260206000209060020201600091509150508060000180546103fe90611c58565b80601f016020809104026020016040519081016040528092919081815260200182805461042a90611c58565b80156104775780601f1061044c57610100808354040283529160200191610477565b820191906000526020600020905b81548152906001019060200180831161045a57829003601f168201915b5050505050908060010154905082565b60013410156104cb576040517f08c379a00000000000000000000000000000000000000000000000000000000081526004016104c290611a6b565b60405180910390fd5b6000600660009054906101000a900473ffffffffffffffffffffffffffffffffffffffff1673ffffffffffffffffffffffffffffffffffffffff16638345183833846040518363ffffffff1660e01b815260040161052a9291906118eb565b602060405180830381600087803b15801561054457600080fd5b505af1158015610558573d6000803e3d6000fd5b505050506040513d601f19601f8201168201806040525081019061057c9190611648565b905060006040518060400160405280848152602001838152509050600160003373ffffffffffffffffffffffffffffffffffffffff1673ffffffffffffffffffffffffffffffffffffffff168152602001908152602001600020819080600181540180825580915050600190039060005260206000209060020201600090919091909150600082015181600001908051906020019061061c9291906112b8565b506020820151816001015550503373ffffffffffffffffffffffffffffffffffffffff167f0ecd9ba313116b081dcb938dd6453ebd27766c556849f5ea15ad8df4739ae1b6844285604051610673939291906119ef565b60405180910390a2505050565b6060600160003373ffffffffffffffffffffffffffffffffffffffff1673ffffffffffffffffffffffffffffffffffffffff168152602001908152602001600020805480602002602001604051908101604052809291908181526020016000905b828210156107af578382906000526020600020906002020160405180604001604052908160008201805461071490611c58565b80601f016020809104026020016040519081016040528092919081815260200182805461074090611c58565b801561078d5780601f106107625761010080835404028352916020019161078d565b820191906000526020600020905b81548152906001019060200180831161077057829003601f168201915b50505050508152602001600182015481525050815260200190600101906106e1565b50505050905090565b60058280516020810182018051848252602083016020850120818352809550505050505081815481106107ea57600080fd5b90600052602060002090600202016000915091505080600001805461080e90611c58565b80601f016020809104026020016040519081016040528092919081815260200182805461083a90611c58565b80156108875780601f1061085c57610100808354040283529160200191610887565b820191906000526020600020905b81548152906001019060200180831161086a57829003601f168201915b5050505050908060010154905082565b60606002826040516108a991906118b9565b908152602001604051809103902060010180546108c590611c58565b80601f01602080910402602001604051908101604052809291908181526020018280546108f190611c58565b801561093e5780601f106109135761010080835404028352916020019161093e565b820191906000526020600020905b81548152906001019060200180831161092157829003601f168201915b50505050509050919050565b6000600660009054906101000a900473ffffffffffffffffffffffffffffffffffffffff1673ffffffffffffffffffffffffffffffffffffffff166370a08231336040518263ffffffff1660e01b81526004016109a791906118d0565b60206040518083038186803b1580156109bf57600080fd5b505afa1580156109d3573d6000803e3d6000fd5b505050506040513d601f19601f820116820180604052508101906109f79190611648565b90506000600160003373ffffffffffffffffffffffffffffffffffffffff1673ffffffffffffffffffffffffffffffffffffffff168152602001908152602001600020905060005b82811015610cc55783828281548110610a81577f4e487b7100000000000000000000000000000000000000000000000000000000600052603260045260246000fd5b9060005260206000209060020201600101541415610cb2573373ffffffffffffffffffffffffffffffffffffffff167fabe35118fc7d3ff7d5b5594e07fd3aeff31b77f1c1ce285eacfc915790253c2f838381548110610b0a577f4e487b7100000000000000000000000000000000000000000000000000000000600052603260045260246000fd5b906000526020600020906002020160000142858581548110610b55577f4e487b7100000000000000000000000000000000000000000000000000000000600052603260045260246000fd5b906000526020600020906002020160010154604051610b7693929190611a2d565b60405180910390a281600184610b8c9190611b82565b81548110610bc3577f4e487b7100000000000000000000000000000000000000000000000000000000600052603260045260246000fd5b9060005260206000209060020201828281548110610c0a577f4e487b7100000000000000000000000000000000000000000000000000000000600052603260045260246000fd5b90600052602060002090600202016000820181600001908054610c2c90611c58565b610c3792919061133e565b506001820154816001015590505081805480610c7c577f4e487b7100000000000000000000000000000000000000000000000000000000600052603160045260246000fd5b600190038181906000526020600020906002020160008082016000610ca191906113cb565b600182016000905550509055610cc5565b8080610cbd90611cbb565b915050610a3f565b50505050565b6000600382604051610cdd91906118b9565b9081526020016040518091039020600101549050919050565b6000604051806060016040528085815260200184815260200183815250905080600285604051610d2691906118b9565b90815260200160405180910390206000820151816000019080519060200190610d509291906112b8565b506020820151816001019080519060200190610d6d9291906112b8565b5060408201518160020155905050600483604051610d8b91906118b9565b90815260200160405180910390208190806001815401808255809150506001900390600052602060002090600302016000909190919091506000820151816000019080519060200190610ddf9291906112b8565b506020820151816001019080519060200190610dfc9291906112b8565b5060408201518160020155505050505050565b6000600282604051610e2191906118b9565b9081526020016040518091039020600201549050919050565b600381805160208101820180518482526020830160208501208183528095505050505050600091509050806000018054610e7390611c58565b80601f0160208091040260200160405190810160405280929190818152602001828054610e9f90611c58565b8015610eec5780601f10610ec157610100808354040283529160200191610eec565b820191906000526020600020905b815481529060010190602001808311610ecf57829003601f168201915b5050505050908060010154905082565b6000604051806040016040528085815260200183815250905080600385604051610f2691906118b9565b90815260200160405180910390206000820151816000019080519060200190610f509291906112b8565b5060208201518160010155905050600583604051610f6e91906118b9565b90815260200160405180910390208190806001815401808255809150506001900390600052602060002090600202016000909190919091506000820151816000019080519060200190610fc29291906112b8565b5060208201518160010155505050505050565b600660009054906101000a900473ffffffffffffffffffffffffffffffffffffffff1681565b600482805160208101820180518482526020830160208501208183528095505050505050818154811061102d57600080fd5b90600052602060002090600302016000915091505080600001805461105190611c58565b80601f016020809104026020016040519081016040528092919081815260200182805461107d90611c58565b80156110ca5780601f1061109f576101008083540402835291602001916110ca565b820191906000526020600020905b8154815290600101906020018083116110ad57829003601f168201915b5050505050908060010180546110df90611c58565b80601f016020809104026020016040519081016040528092919081815260200182805461110b90611c58565b80156111585780601f1061112d57610100808354040283529160200191611158565b820191906000526020600020905b81548152906001019060200180831161113b57829003601f168201915b5050505050908060020154905083565b6002818051602081018201805184825260208301602085012081835280955050505050506000915090508060000180546111a190611c58565b80601f01602080910402602001604051908101604052809291908181526020018280546111cd90611c58565b801561121a5780601f106111ef5761010080835404028352916020019161121a565b820191906000526020600020905b8154815290600101906020018083116111fd57829003601f168201915b50505050509080600101805461122f90611c58565b80601f016020809104026020016040519081016040528092919081815260200182805461125b90611c58565b80156112a85780601f1061127d576101008083540402835291602001916112a8565b820191906000526020600020905b81548152906001019060200180831161128b57829003601f168201915b5050505050908060020154905083565b8280546112c490611c58565b90600052602060002090601f0160209004810192826112e6576000855561132d565b82601f106112ff57805160ff191683800117855561132d565b8280016001018555821561132d579182015b8281111561132c578251825591602001919060010190611311565b5b50905061133a919061140b565b5090565b82805461134a90611c58565b90600052602060002090601f01602090048101928261136c57600085556113ba565b82601f1061137d57805485556113ba565b828001600101855582156113ba57600052602060002091601f016020900482015b828111156113b957825482559160010191906001019061139e565b5b5090506113c7919061140b565b5090565b5080546113d790611c58565b6000825580601f106113e95750611408565b601f016020900490600052602060002090810190611407919061140b565b5b50565b5b8082111561142457600081600090555060010161140c565b5090565b600061143b61143684611acb565b611aa6565b90508281526020810184848401111561145357600080fd5b61145e848285611c16565b509392505050565b60008135905061147581611dcb565b92915050565b600082601f83011261148c57600080fd5b813561149c848260208601611428565b91505092915050565b6000813590506114b481611de2565b92915050565b6000815190506114c981611de2565b92915050565b600080604083850312156114e257600080fd5b60006114f085828601611466565b9250506020611501858286016114a5565b9150509250929050565b60006020828403121561151d57600080fd5b600082013567ffffffffffffffff81111561153757600080fd5b6115438482850161147b565b91505092915050565b60008060006060848603121561156157600080fd5b600084013567ffffffffffffffff81111561157b57600080fd5b6115878682870161147b565b935050602084013567ffffffffffffffff8111156115a457600080fd5b6115b08682870161147b565b92505060406115c1868287016114a5565b9150509250925092565b600080604083850312156115de57600080fd5b600083013567ffffffffffffffff8111156115f857600080fd5b6116048582860161147b565b9250506020611615858286016114a5565b9150509250929050565b60006020828403121561163157600080fd5b600061163f848285016114a5565b91505092915050565b60006020828403121561165a57600080fd5b6000611668848285016114ba565b91505092915050565b600061167d838361185e565b905092915050565b61168e81611bb6565b82525050565b600061169f82611b21565b6116a98185611b44565b9350836020820285016116bb85611afc565b8060005b858110156116f757848403895281516116d88582611671565b94506116e383611b37565b925060208a019950506001810190506116bf565b50829750879550505050505092915050565b61171281611bf2565b82525050565b600061172382611b2c565b61172d8185611b55565b935061173d818560208601611c25565b61174681611d91565b840191505092915050565b600061175c82611b2c565b6117668185611b66565b9350611776818560208601611c25565b61177f81611d91565b840191505092915050565b600061179582611b2c565b61179f8185611b77565b93506117af818560208601611c25565b80840191505092915050565b600081546117c881611c58565b6117d28186611b66565b945060018216600081146117ed57600181146117ff57611832565b60ff1983168652602086019350611832565b61180885611b0c565b60005b8381101561182a5781548189015260018201915060208101905061180b565b808801955050505b50505092915050565b6000611848601283611b66565b915061185382611da2565b602082019050919050565b6000604083016000830151848203600086015261187b8282611718565b9150506020830151611890602086018261189b565b508091505092915050565b6118a481611be8565b82525050565b6118b381611be8565b82525050565b60006118c5828461178a565b915081905092915050565b60006020820190506118e56000830184611685565b92915050565b60006040820190506119006000830185611685565b81810360208301526119128184611751565b90509392505050565b600060208201905081810360008301526119358184611694565b905092915050565b60006020820190506119526000830184611709565b92915050565b600060208201905081810360008301526119728184611751565b905092915050565b600060608201905081810360008301526119948186611751565b905081810360208301526119a88185611751565b90506119b760408301846118aa565b949350505050565b600060408201905081810360008301526119d98185611751565b90506119e860208301846118aa565b9392505050565b60006060820190508181036000830152611a098186611751565b9050611a1860208301856118aa565b611a2560408301846118aa565b949350505050565b60006060820190508181036000830152611a4781866117bb565b9050611a5660208301856118aa565b611a6360408301846118aa565b949350505050565b60006020820190508181036000830152611a848161183b565b9050919050565b6000602082019050611aa060008301846118aa565b92915050565b6000611ab0611ac1565b9050611abc8282611c8a565b919050565b6000604051905090565b600067ffffffffffffffff821115611ae657611ae5611d62565b5b611aef82611d91565b9050602081019050919050565b6000819050602082019050919050565b60008190508160005260206000209050919050565b600081519050919050565b600081519050919050565b6000602082019050919050565b600082825260208201905092915050565b600082825260208201905092915050565b600082825260208201905092915050565b600081905092915050565b6000611b8d82611be8565b9150611b9883611be8565b925082821015611bab57611baa611d04565b5b828203905092915050565b6000611bc182611bc8565b9050919050565b600073ffffffffffffffffffffffffffffffffffffffff82169050919050565b6000819050919050565b6000611bfd82611c04565b9050919050565b6000611c0f82611bc8565b9050919050565b82818337600083830152505050565b60005b83811015611c43578082015181840152602081019050611c28565b83811115611c52576000848401525b50505050565b60006002820490506001821680611c7057607f821691505b60208210811415611c8457611c83611d33565b5b50919050565b611c9382611d91565b810181811067ffffffffffffffff82111715611cb257611cb1611d62565b5b80604052505050565b6000611cc682611be8565b91507fffffffffffffffffffffffffffffffffffffffffffffffffffffffffffffffff821415611cf957611cf8611d04565b5b600182019050919050565b7f4e487b7100000000000000000000000000000000000000000000000000000000600052601160045260246000fd5b7f4e487b7100000000000000000000000000000000000000000000000000000000600052602260045260246000fd5b7f4e487b7100000000000000000000000000000000000000000000000000000000600052604160045260246000fd5b6000601f19601f8301169050919050565b7f496e73756666696369656e74206d6f6e65790000000000000000000000000000600082015250565b611dd481611bb6565b8114611ddf57600080fd5b50565b611deb81611be8565b8114611df657600080fd5b5056fea2646970667358221220e9a9e9670235ea6997fd6ea6f6d7d61c015383f5e7bf09ae932d8d2c2ad649d964736f6c6343000804003360806040523480156200001157600080fd5b506040518060400160405280600781526020017f426f6f73746572000000000000000000000000000000000000000000000000008152506040518060400160405280600781526020017f426f6f7374657200000000000000000000000000000000000000000000000000815250816000908051906020019062000096929190620000b8565b508060019080519060200190620000af929190620000b8565b505050620001cd565b828054620000c69062000168565b90600052602060002090601f016020900481019282620000ea576000855562000136565b82601f106200010557805160ff191683800117855562000136565b8280016001018555821562000136579182015b828111156200013557825182559160200191906001019062000118565b5b50905062000145919062000149565b5090565b5b80821115620001645760008160009055506001016200014a565b5090565b600060028204905060018216806200018157607f821691505b602082108114156200019857620001976200019e565b5b50919050565b7f4e487b7100000000000000000000000000000000000000000000000000000000600052602260045260246000fd5b61367280620001dd6000396000f3fe608060405234801561001057600080fd5b50600436106101165760003560e01c80634f6ccce7116100a257806395d89b411161007157806395d89b4114610317578063a22cb46514610335578063b88d4fde14610351578063c87b56dd1461036d578063e985e9c51461039d57610116565b80634f6ccce7146102575780636352211e1461028757806370a08231146102b757806383451838146102e757610116565b806318160ddd116100e957806318160ddd146101b55780631e9a6950146101d357806323b872dd146101ef5780632f745c591461020b57806342842e0e1461023b57610116565b806301ffc9a71461011b57806306fdde031461014b578063081812fc14610169578063095ea7b314610199575b600080fd5b61013560048036038101906101309190612569565b6103cd565b60405161014291906129d8565b60405180910390f35b6101536103df565b60405161016091906129f3565b60405180910390f35b610183600480360381019061017e91906125bb565b610471565b6040516101909190612971565b60405180910390f35b6101b360048036038101906101ae919061252d565b6104f6565b005b6101bd61060e565b6040516101ca9190612c75565b60405180910390f35b6101ed60048036038101906101e8919061252d565b61061b565b005b610209600480360381019061020491906123d3565b610671565b005b6102256004803603810190610220919061252d565b6106d1565b6040516102329190612c75565b60405180910390f35b610255600480360381019061025091906123d3565b610776565b005b610271600480360381019061026c91906125bb565b610796565b60405161027e9190612c75565b60405180910390f35b6102a1600480360381019061029c91906125bb565b61082d565b6040516102ae9190612971565b60405180910390f35b6102d160048036038101906102cc919061236e565b6108df565b6040516102de9190612c75565b60405180910390f35b61030160048036038101906102fc91906124d9565b610997565b60405161030e9190612c75565b60405180910390f35b61031f6109ce565b60405161032c91906129f3565b60405180910390f35b61034f600480360381019061034a919061249d565b610a60565b005b61036b60048036038101906103669190612422565b610a76565b005b610387600480360381019061038291906125bb565b610ad8565b60405161039491906129f3565b60405180910390f35b6103b760048036038101906103b29190612397565b610aea565b6040516103c491906129d8565b60405180910390f35b60006103d882610b7e565b9050919050565b6060600080546103ee90612ecb565b80601f016020809104026020016040519081016040528092919081815260200182805461041a90612ecb565b80156104675780601f1061043c57610100808354040283529160200191610467565b820191906000526020600020905b81548152906001019060200180831161044a57829003601f168201915b5050505050905090565b600061047c82610bf8565b6104bb576040517f08c379a00000000000000000000000000000000000000000000000000000000081526004016104b290612b95565b60405180910390fd5b6004600083815260200190815260200160002060009054906101000a900473ffffffffffffffffffffffffffffffffffffffff169050919050565b60006105018261082d565b90508073ffffffffffffffffffffffffffffffffffffffff168373ffffffffffffffffffffffffffffffffffffffff161415610572576040517f08c379a000000000000000000000000000000000000000000000000000000000815260040161056990612c15565b60405180910390fd5b8073ffffffffffffffffffffffffffffffffffffffff16610591610c64565b73ffffffffffffffffffffffffffffffffffffffff1614806105c057506105bf816105ba610c64565b610aea565b5b6105ff576040517f08c379a00000000000000000000000000000000000000000000000000000000081526004016105f690612ad5565b60405180910390fd5b6106098383610c6c565b505050565b6000600980549050905090565b6106258282610d25565b610664576040517f08c379a000000000000000000000000000000000000000000000000000000000815260040161065b90612bb5565b60405180910390fd5b61066d81610e03565b5050565b61068261067c610c64565b82610d25565b6106c1576040517f08c379a00000000000000000000000000000000000000000000000000000000081526004016106b890612c35565b60405180910390fd5b6106cc838383610e0f565b505050565b60006106dc836108df565b821061071d576040517f08c379a000000000000000000000000000000000000000000000000000000000815260040161071490612a15565b60405180910390fd5b600760008473ffffffffffffffffffffffffffffffffffffffff1673ffffffffffffffffffffffffffffffffffffffff168152602001908152602001600020600083815260200190815260200160002054905092915050565b61079183838360405180602001604052806000815250610a76565b505050565b60006107a061060e565b82106107e1576040517f08c379a00000000000000000000000000000000000000000000000000000000081526004016107d890612c55565b60405180910390fd5b6009828154811061081b577f4e487b7100000000000000000000000000000000000000000000000000000000600052603260045260246000fd5b90600052602060002001549050919050565b6000806002600084815260200190815260200160002060009054906101000a900473ffffffffffffffffffffffffffffffffffffffff169050600073ffffffffffffffffffffffffffffffffffffffff168173ffffffffffffffffffffffffffffffffffffffff1614156108d6576040517f08c379a00000000000000000000000000000000000000000000000000000000081526004016108cd90612b15565b60405180910390fd5b80915050919050565b60008073ffffffffffffffffffffffffffffffffffffffff168273ffffffffffffffffffffffffffffffffffffffff161415610950576040517f08c379a000000000000000000000000000000000000000000000000000000000815260040161094790612af5565b60405180910390fd5b600360008373ffffffffffffffffffffffffffffffffffffffff1673ffffffffffffffffffffffffffffffffffffffff168152602001908152602001600020549050919050565b6000806109a4600b61106b565b90506109b0600b611079565b6109ba848261108f565b6109c4818461125d565b8091505092915050565b6060600180546109dd90612ecb565b80601f0160208091040260200160405190810160405280929190818152602001828054610a0990612ecb565b8015610a565780601f10610a2b57610100808354040283529160200191610a56565b820191906000526020600020905b815481529060010190602001808311610a3957829003601f168201915b5050505050905090565b610a72610a6b610c64565b83836112d1565b5050565b610a87610a81610c64565b83610d25565b610ac6576040517f08c379a0000000000000000000000000000000000000000000000000000000008152600401610abd90612c35565b60405180910390fd5b610ad28484848461143e565b50505050565b6060610ae38261149a565b9050919050565b6000600560008473ffffffffffffffffffffffffffffffffffffffff1673ffffffffffffffffffffffffffffffffffffffff16815260200190815260200160002060008373ffffffffffffffffffffffffffffffffffffffff1673ffffffffffffffffffffffffffffffffffffffff16815260200190815260200160002060009054906101000a900460ff16905092915050565b60007f780e9d63000000000000000000000000000000000000000000000000000000007bffffffffffffffffffffffffffffffffffffffffffffffffffffffff1916827bffffffffffffffffffffffffffffffffffffffffffffffffffffffff19161480610bf15750610bf0826115ec565b5b9050919050565b60008073ffffffffffffffffffffffffffffffffffffffff166002600084815260200190815260200160002060009054906101000a900473ffffffffffffffffffffffffffffffffffffffff1673ffffffffffffffffffffffffffffffffffffffff1614159050919050565b600033905090565b816004600083815260200190815260200160002060006101000a81548173ffffffffffffffffffffffffffffffffffffffff021916908373ffffffffffffffffffffffffffffffffffffffff160217905550808273ffffffffffffffffffffffffffffffffffffffff16610cdf8361082d565b73ffffffffffffffffffffffffffffffffffffffff167f8c5be1e5ebec7d5bd14f71427d1e84f3dd0314c0f7b2291e5b200ac8c7c3b92560405160405180910390a45050565b6000610d3082610bf8565b610d6f576040517f08c379a0000000000000000000000000000000000000000000000000000000008152600401610d6690612ab5565b60405180910390fd5b6000610d7a8361082d565b90508073ffffffffffffffffffffffffffffffffffffffff168473ffffffffffffffffffffffffffffffffffffffff161480610de957508373ffffffffffffffffffffffffffffffffffffffff16610dd184610471565b73ffffffffffffffffffffffffffffffffffffffff16145b80610dfa5750610df98185610aea565b5b91505092915050565b610e0c816116ce565b50565b8273ffffffffffffffffffffffffffffffffffffffff16610e2f8261082d565b73ffffffffffffffffffffffffffffffffffffffff1614610e85576040517f08c379a0000000000000000000000000000000000000000000000000000000008152600401610e7c90612bd5565b60405180910390fd5b600073ffffffffffffffffffffffffffffffffffffffff168273ffffffffffffffffffffffffffffffffffffffff161415610ef5576040517f08c379a0000000000000000000000000000000000000000000000000000000008152600401610eec90612a75565b60405180910390fd5b610f00838383611721565b610f0b600082610c6c565b6001600360008573ffffffffffffffffffffffffffffffffffffffff1673ffffffffffffffffffffffffffffffffffffffff1681526020019081526020016000206000828254610f5b9190612de1565b925050819055506001600360008473ffffffffffffffffffffffffffffffffffffffff1673ffffffffffffffffffffffffffffffffffffffff1681526020019081526020016000206000828254610fb29190612d5a565b92505081905550816002600083815260200190815260200160002060006101000a81548173ffffffffffffffffffffffffffffffffffffffff021916908373ffffffffffffffffffffffffffffffffffffffff160217905550808273ffffffffffffffffffffffffffffffffffffffff168473ffffffffffffffffffffffffffffffffffffffff167fddf252ad1be2c89b69c2b068fc378daa952ba7f163c4a11628f55a4df523b3ef60405160405180910390a4505050565b600081600001549050919050565b6001816000016000828254019250508190555050565b600073ffffffffffffffffffffffffffffffffffffffff168273ffffffffffffffffffffffffffffffffffffffff1614156110ff576040517f08c379a00000000000000000000000000000000000000000000000000000000081526004016110f690612b55565b60405180910390fd5b61110881610bf8565b15611148576040517f08c379a000000000000000000000000000000000000000000000000000000000815260040161113f90612a55565b60405180910390fd5b61115460008383611721565b6001600360008473ffffffffffffffffffffffffffffffffffffffff1673ffffffffffffffffffffffffffffffffffffffff16815260200190815260200160002060008282546111a49190612d5a565b92505081905550816002600083815260200190815260200160002060006101000a81548173ffffffffffffffffffffffffffffffffffffffff021916908373ffffffffffffffffffffffffffffffffffffffff160217905550808273ffffffffffffffffffffffffffffffffffffffff16600073ffffffffffffffffffffffffffffffffffffffff167fddf252ad1be2c89b69c2b068fc378daa952ba7f163c4a11628f55a4df523b3ef60405160405180910390a45050565b61126682610bf8565b6112a5576040517f08c379a000000000000000000000000000000000000000000000000000000000815260040161129c90612b35565b60405180910390fd5b806006600084815260200190815260200160002090805190602001906112cc929190612152565b505050565b8173ffffffffffffffffffffffffffffffffffffffff168373ffffffffffffffffffffffffffffffffffffffff161415611340576040517f08c379a000000000000000000000000000000000000000000000000000000000815260040161133790612a95565b60405180910390fd5b80600560008573ffffffffffffffffffffffffffffffffffffffff1673ffffffffffffffffffffffffffffffffffffffff16815260200190815260200160002060008473ffffffffffffffffffffffffffffffffffffffff1673ffffffffffffffffffffffffffffffffffffffff16815260200190815260200160002060006101000a81548160ff0219169083151502179055508173ffffffffffffffffffffffffffffffffffffffff168373ffffffffffffffffffffffffffffffffffffffff167f17307eab39ab6107e8899845ad3d59bd9653f200f220920489ca2b5937696c318360405161143191906129d8565b60405180910390a3505050565b611449848484610e0f565b61145584848484611731565b611494576040517f08c379a000000000000000000000000000000000000000000000000000000000815260040161148b90612a35565b60405180910390fd5b50505050565b60606114a582610bf8565b6114e4576040517f08c379a00000000000000000000000000000000000000000000000000000000081526004016114db90612b75565b60405180910390fd5b600060066000848152602001908152602001600020805461150490612ecb565b80601f016020809104026020016040519081016040528092919081815260200182805461153090612ecb565b801561157d5780601f106115525761010080835404028352916020019161157d565b820191906000526020600020905b81548152906001019060200180831161156057829003601f168201915b50505050509050600061158e6118c8565b90506000815114156115a45781925050506115e7565b6000825111156115d95780826040516020016115c192919061294d565b604051602081830303815290604052925050506115e7565b6115e2846118df565b925050505b919050565b60007f80ac58cd000000000000000000000000000000000000000000000000000000007bffffffffffffffffffffffffffffffffffffffffffffffffffffffff1916827bffffffffffffffffffffffffffffffffffffffffffffffffffffffff191614806116b757507f5b5e139f000000000000000000000000000000000000000000000000000000007bffffffffffffffffffffffffffffffffffffffffffffffffffffffff1916827bffffffffffffffffffffffffffffffffffffffffffffffffffffffff1916145b806116c757506116c682611986565b5b9050919050565b6116d7816119f0565b60006006600083815260200190815260200160002080546116f790612ecb565b90501461171e5760066000828152602001908152602001600020600061171d91906121d8565b5b50565b61172c838383611b01565b505050565b60006117528473ffffffffffffffffffffffffffffffffffffffff16611c15565b156118bb578373ffffffffffffffffffffffffffffffffffffffff1663150b7a0261177b610c64565b8786866040518563ffffffff1660e01b815260040161179d949392919061298c565b602060405180830381600087803b1580156117b757600080fd5b505af19250505080156117e857506040513d601f19601f820116820180604052508101906117e59190612592565b60015b61186b573d8060008114611818576040519150601f19603f3d011682016040523d82523d6000602084013e61181d565b606091505b50600081511415611863576040517f08c379a000000000000000000000000000000000000000000000000000000000815260040161185a90612a35565b60405180910390fd5b805181602001fd5b63150b7a0260e01b7bffffffffffffffffffffffffffffffffffffffffffffffffffffffff1916817bffffffffffffffffffffffffffffffffffffffffffffffffffffffff1916149150506118c0565b600190505b949350505050565b606060405180602001604052806000815250905090565b60606118ea82610bf8565b611929576040517f08c379a000000000000000000000000000000000000000000000000000000000815260040161192090612bf5565b60405180910390fd5b60006119336118c8565b90506000815111611953576040518060200160405280600081525061197e565b8061195d84611c28565b60405160200161196e92919061294d565b6040516020818303038152906040525b915050919050565b60007f01ffc9a7000000000000000000000000000000000000000000000000000000007bffffffffffffffffffffffffffffffffffffffffffffffffffffffff1916827bffffffffffffffffffffffffffffffffffffffffffffffffffffffff1916149050919050565b60006119fb8261082d565b9050611a0981600084611721565b611a14600083610c6c565b6001600360008373ffffffffffffffffffffffffffffffffffffffff1673ffffffffffffffffffffffffffffffffffffffff1681526020019081526020016000206000828254611a649190612de1565b925050819055506002600083815260200190815260200160002060006101000a81549073ffffffffffffffffffffffffffffffffffffffff021916905581600073ffffffffffffffffffffffffffffffffffffffff168273ffffffffffffffffffffffffffffffffffffffff167fddf252ad1be2c89b69c2b068fc378daa952ba7f163c4a11628f55a4df523b3ef60405160405180910390a45050565b611b0c838383611dd5565b600073ffffffffffffffffffffffffffffffffffffffff168373ffffffffffffffffffffffffffffffffffffffff161415611b4f57611b4a81611dda565b611b8e565b8173ffffffffffffffffffffffffffffffffffffffff168373ffffffffffffffffffffffffffffffffffffffff1614611b8d57611b8c8382611e23565b5b5b600073ffffffffffffffffffffffffffffffffffffffff168273ffffffffffffffffffffffffffffffffffffffff161415611bd157611bcc81611f90565b611c10565b8273ffffffffffffffffffffffffffffffffffffffff168273ffffffffffffffffffffffffffffffffffffffff1614611c0f57611c0e82826120d3565b5b5b505050565b600080823b905060008111915050919050565b60606000821415611c70576040518060400160405280600181526020017f30000000000000000000000000000000000000000000000000000000000000008152509050611dd0565b600082905060005b60008214611ca2578080611c8b90612f2e565b915050600a82611c9b9190612db0565b9150611c78565b60008167ffffffffffffffff811115611ce4577f4e487b7100000000000000000000000000000000000000000000000000000000600052604160045260246000fd5b6040519080825280601f01601f191660200182016040528015611d165781602001600182028036833780820191505090505b5090505b60008514611dc957600182611d2f9190612de1565b9150600a85611d3e9190612f77565b6030611d4a9190612d5a565b60f81b818381518110611d86577f4e487b7100000000000000000000000000000000000000000000000000000000600052603260045260246000fd5b60200101907effffffffffffffffffffffffffffffffffffffffffffffffffffffffffffff1916908160001a905350600a85611dc29190612db0565b9450611d1a565b8093505050505b919050565b505050565b600980549050600a600083815260200190815260200160002081905550600981908060018154018082558091505060019003906000526020600020016000909190919091505550565b60006001611e30846108df565b611e3a9190612de1565b9050600060086000848152602001908152602001600020549050818114611f1f576000600760008673ffffffffffffffffffffffffffffffffffffffff1673ffffffffffffffffffffffffffffffffffffffff168152602001908152602001600020600084815260200190815260200160002054905080600760008773ffffffffffffffffffffffffffffffffffffffff1673ffffffffffffffffffffffffffffffffffffffff168152602001908152602001600020600084815260200190815260200160002081905550816008600083815260200190815260200160002081905550505b6008600084815260200190815260200160002060009055600760008573ffffffffffffffffffffffffffffffffffffffff1673ffffffffffffffffffffffffffffffffffffffff16815260200190815260200160002060008381526020019081526020016000206000905550505050565b60006001600980549050611fa49190612de1565b90506000600a6000848152602001908152602001600020549050600060098381548110611ffa577f4e487b7100000000000000000000000000000000000000000000000000000000600052603260045260246000fd5b906000526020600020015490508060098381548110612042577f4e487b7100000000000000000000000000000000000000000000000000000000600052603260045260246000fd5b906000526020600020018190555081600a600083815260200190815260200160002081905550600a60008581526020019081526020016000206000905560098054806120b7577f4e487b7100000000000000000000000000000000000000000000000000000000600052603160045260246000fd5b6001900381819060005260206000200160009055905550505050565b60006120de836108df565b905081600760008573ffffffffffffffffffffffffffffffffffffffff1673ffffffffffffffffffffffffffffffffffffffff168152602001908152602001600020600083815260200190815260200160002081905550806008600084815260200190815260200160002081905550505050565b82805461215e90612ecb565b90600052602060002090601f01602090048101928261218057600085556121c7565b82601f1061219957805160ff19168380011785556121c7565b828001600101855582156121c7579182015b828111156121c65782518255916020019190600101906121ab565b5b5090506121d49190612218565b5090565b5080546121e490612ecb565b6000825580601f106121f65750612215565b601f0160209004906000526020600020908101906122149190612218565b5b50565b5b80821115612231576000816000905550600101612219565b5090565b600061224861224384612cb5565b612c90565b90508281526020810184848401111561226057600080fd5b61226b848285612e89565b509392505050565b600061228661228184612ce6565b612c90565b90508281526020810184848401111561229e57600080fd5b6122a9848285612e89565b509392505050565b6000813590506122c0816135e0565b92915050565b6000813590506122d5816135f7565b92915050565b6000813590506122ea8161360e565b92915050565b6000815190506122ff8161360e565b92915050565b600082601f83011261231657600080fd5b8135612326848260208601612235565b91505092915050565b600082601f83011261234057600080fd5b8135612350848260208601612273565b91505092915050565b60008135905061236881613625565b92915050565b60006020828403121561238057600080fd5b600061238e848285016122b1565b91505092915050565b600080604083850312156123aa57600080fd5b60006123b8858286016122b1565b92505060206123c9858286016122b1565b9150509250929050565b6000806000606084860312156123e857600080fd5b60006123f6868287016122b1565b9350506020612407868287016122b1565b925050604061241886828701612359565b9150509250925092565b6000806000806080858703121561243857600080fd5b6000612446878288016122b1565b9450506020612457878288016122b1565b935050604061246887828801612359565b925050606085013567ffffffffffffffff81111561248557600080fd5b61249187828801612305565b91505092959194509250565b600080604083850312156124b057600080fd5b60006124be858286016122b1565b92505060206124cf858286016122c6565b9150509250929050565b600080604083850312156124ec57600080fd5b60006124fa858286016122b1565b925050602083013567ffffffffffffffff81111561251757600080fd5b6125238582860161232f565b9150509250929050565b6000806040838503121561254057600080fd5b600061254e858286016122b1565b925050602061255f85828601612359565b9150509250929050565b60006020828403121561257b57600080fd5b6000612589848285016122db565b91505092915050565b6000602082840312156125a457600080fd5b60006125b2848285016122f0565b91505092915050565b6000602082840312156125cd57600080fd5b60006125db84828501612359565b91505092915050565b6125ed81612e15565b82525050565b6125fc81612e27565b82525050565b600061260d82612d17565b6126178185612d2d565b9350612627818560208601612e98565b61263081613064565b840191505092915050565b600061264682612d22565b6126508185612d3e565b9350612660818560208601612e98565b61266981613064565b840191505092915050565b600061267f82612d22565b6126898185612d4f565b9350612699818560208601612e98565b80840191505092915050565b60006126b2602b83612d3e565b91506126bd82613075565b604082019050919050565b60006126d5603283612d3e565b91506126e0826130c4565b604082019050919050565b60006126f8601c83612d3e565b915061270382613113565b602082019050919050565b600061271b602483612d3e565b91506127268261313c565b604082019050919050565b600061273e601983612d3e565b91506127498261318b565b602082019050919050565b6000612761602c83612d3e565b915061276c826131b4565b604082019050919050565b6000612784603883612d3e565b915061278f82613203565b604082019050919050565b60006127a7602a83612d3e565b91506127b282613252565b604082019050919050565b60006127ca602983612d3e565b91506127d5826132a1565b604082019050919050565b60006127ed602e83612d3e565b91506127f8826132f0565b604082019050919050565b6000612810602083612d3e565b915061281b8261333f565b602082019050919050565b6000612833603183612d3e565b915061283e82613368565b604082019050919050565b6000612856602c83612d3e565b9150612861826133b7565b604082019050919050565b6000612879602983612d3e565b915061288482613406565b604082019050919050565b600061289c602983612d3e565b91506128a782613455565b604082019050919050565b60006128bf602f83612d3e565b91506128ca826134a4565b604082019050919050565b60006128e2602183612d3e565b91506128ed826134f3565b604082019050919050565b6000612905603183612d3e565b915061291082613542565b604082019050919050565b6000612928602c83612d3e565b915061293382613591565b604082019050919050565b61294781612e7f565b82525050565b60006129598285612674565b91506129658284612674565b91508190509392505050565b600060208201905061298660008301846125e4565b92915050565b60006080820190506129a160008301876125e4565b6129ae60208301866125e4565b6129bb604083018561293e565b81810360608301526129cd8184612602565b905095945050505050565b60006020820190506129ed60008301846125f3565b92915050565b60006020820190508181036000830152612a0d818461263b565b905092915050565b60006020820190508181036000830152612a2e816126a5565b9050919050565b60006020820190508181036000830152612a4e816126c8565b9050919050565b60006020820190508181036000830152612a6e816126eb565b9050919050565b60006020820190508181036000830152612a8e8161270e565b9050919050565b60006020820190508181036000830152612aae81612731565b9050919050565b60006020820190508181036000830152612ace81612754565b9050919050565b60006020820190508181036000830152612aee81612777565b9050919050565b60006020820190508181036000830152612b0e8161279a565b9050919050565b60006020820190508181036000830152612b2e816127bd565b9050919050565b60006020820190508181036000830152612b4e816127e0565b9050919050565b60006020820190508181036000830152612b6e81612803565b9050919050565b60006020820190508181036000830152612b8e81612826565b9050919050565b60006020820190508181036000830152612bae81612849565b9050919050565b60006020820190508181036000830152612bce8161286c565b9050919050565b60006020820190508181036000830152612bee8161288f565b9050919050565b60006020820190508181036000830152612c0e816128b2565b9050919050565b60006020820190508181036000830152612c2e816128d5565b9050919050565b60006020820190508181036000830152612c4e816128f8565b9050919050565b60006020820190508181036000830152612c6e8161291b565b9050919050565b6000602082019050612c8a600083018461293e565b92915050565b6000612c9a612cab565b9050612ca68282612efd565b919050565b6000604051905090565b600067ffffffffffffffff821115612cd057612ccf613035565b5b612cd982613064565b9050602081019050919050565b600067ffffffffffffffff821115612d0157612d00613035565b5b612d0a82613064565b9050602081019050919050565b600081519050919050565b600081519050919050565b600082825260208201905092915050565b600082825260208201905092915050565b600081905092915050565b6000612d6582612e7f565b9150612d7083612e7f565b9250827fffffffffffffffffffffffffffffffffffffffffffffffffffffffffffffffff03821115612da557612da4612fa8565b5b828201905092915050565b6000612dbb82612e7f565b9150612dc683612e7f565b925082612dd657612dd5612fd7565b5b828204905092915050565b6000612dec82612e7f565b9150612df783612e7f565b925082821015612e0a57612e09612fa8565b5b828203905092915050565b6000612e2082612e5f565b9050919050565b60008115159050919050565b60007fffffffff0000000000000000000000000000000000000000000000000000000082169050919050565b600073ffffffffffffffffffffffffffffffffffffffff82169050919050565b6000819050919050565b82818337600083830152505050565b60005b83811015612eb6578082015181840152602081019050612e9b565b83811115612ec5576000848401525b50505050565b60006002820490506001821680612ee357607f821691505b60208210811415612ef757612ef6613006565b5b50919050565b612f0682613064565b810181811067ffffffffffffffff82111715612f2557612f24613035565b5b80604052505050565b6000612f3982612e7f565b91507fffffffffffffffffffffffffffffffffffffffffffffffffffffffffffffffff821415612f6c57612f6b612fa8565b5b600182019050919050565b6000612f8282612e7f565b9150612f8d83612e7f565b925082612f9d57612f9c612fd7565b5b828206905092915050565b7f4e487b7100000000000000000000000000000000000000000000000000000000600052601160045260246000fd5b7f4e487b7100000000000000000000000000000000000000000000000000000000600052601260045260246000fd5b7f4e487b7100000000000000000000000000000000000000000000000000000000600052602260045260246000fd5b7f4e487b7100000000000000000000000000000000000000000000000000000000600052604160045260246000fd5b6000601f19601f8301169050919050565b7f455243373231456e756d657261626c653a206f776e657220696e646578206f7560008201527f74206f6620626f756e6473000000000000000000000000000000000000000000602082015250565b7f4552433732313a207472616e7366657220746f206e6f6e20455243373231526560008201527f63656976657220696d706c656d656e7465720000000000000000000000000000602082015250565b7f4552433732313a20746f6b656e20616c7265616479206d696e74656400000000600082015250565b7f4552433732313a207472616e7366657220746f20746865207a65726f2061646460008201527f7265737300000000000000000000000000000000000000000000000000000000602082015250565b7f4552433732313a20617070726f766520746f2063616c6c657200000000000000600082015250565b7f4552433732313a206f70657261746f7220717565727920666f72206e6f6e657860008201527f697374656e7420746f6b656e0000000000000000000000000000000000000000602082015250565b7f4552433732313a20617070726f76652063616c6c6572206973206e6f74206f7760008201527f6e6572206e6f7220617070726f76656420666f7220616c6c0000000000000000602082015250565b7f4552433732313a2062616c616e636520717565727920666f7220746865207a6560008201527f726f206164647265737300000000000000000000000000000000000000000000602082015250565b7f4552433732313a206f776e657220717565727920666f72206e6f6e657869737460008201527f656e7420746f6b656e0000000000000000000000000000000000000000000000602082015250565b7f45524337323155524953746f726167653a2055524920736574206f66206e6f6e60008201527f6578697374656e7420746f6b656e000000000000000000000000000000000000602082015250565b7f4552433732313a206d696e7420746f20746865207a65726f2061646472657373600082015250565b7f45524337323155524953746f726167653a2055524920717565727920666f722060008201527f6e6f6e6578697374656e7420746f6b656e000000000000000000000000000000602082015250565b7f4552433732313a20617070726f76656420717565727920666f72206e6f6e657860008201527f697374656e7420746f6b656e0000000000000000000000000000000000000000602082015250565b7f43616c6c6572206973206e6f74206f776e6572206f66207468697320426f6f7360008201527f74657220746f6b656e0000000000000000000000000000000000000000000000602082015250565b7f4552433732313a207472616e73666572206f6620746f6b656e2074686174206960008201527f73206e6f74206f776e0000000000000000000000000000000000000000000000602082015250565b7f4552433732314d657461646174613a2055524920717565727920666f72206e6f60008201527f6e6578697374656e7420746f6b656e0000000000000000000000000000000000602082015250565b7f4552433732313a20617070726f76616c20746f2063757272656e74206f776e6560008201527f7200000000000000000000000000000000000000000000000000000000000000602082015250565b7f4552433732313a207472616e736665722063616c6c6572206973206e6f74206f60008201527f776e6572206e6f7220617070726f766564000000000000000000000000000000602082015250565b7f455243373231456e756d657261626c653a20676c6f62616c20696e646578206f60008201527f7574206f6620626f756e64730000000000000000000000000000000000000000602082015250565b6135e981612e15565b81146135f457600080fd5b50565b61360081612e27565b811461360b57600080fd5b50565b61361781612e33565b811461362257600080fd5b50565b61362e81612e7f565b811461363957600080fd5b5056fea26469706673582212203b79d2d8d57bf6f4ab90f1c62bb4bafdf11c08dbcce52362b1c87a102931d45c64736f6c63430008040033",
  "linkReferences": {},
  "deployedLinkReferences": {}
}