{
  "_format": "hh-sol-artifact-1",
  "contractName": "Try",
  "sourceName": "contracts/try.sol",
  "abi": [
    {
      "inputs": [],
      "name": "t",
      "outputs": [
        {
          "internalType": "uint256",
          "name": "",
          "type": "uint256"
        }
      ],
      "stateMutability": "view",
      "type": "function"
    }
  ],
  "bytecode": "0x608060405234801561001057600080fd5b5060b58061001f6000396000f3fe6080604052348015600f57600080fd5b506004361060285760003560e01c806392d0d15314602d575b600080fd5b60336047565b604051603e9190605c565b60405180910390f35b600042905090565b6056816075565b82525050565b6000602082019050606f6000830184604f565b92915050565b600081905091905056fea26469706673582212204379aa0445fbad3340fa17e0f9e5d417d2fd773195f324d9f8f15fe5fcdb187f64736f6c63430008040033",
  "linkReferences": {},
  "deployedLinkReferences": {}
}