{
  "_format": "hh-sol-artifact-1",
  "contractName": "Market",
  "sourceName": "contracts/Market.sol",
  "abi": [
    {
      "inputs": [],
      "stateMutability": "payable",
      "type": "constructor"
    },
    {
      "anonymous": false,
      "inputs": [
        {
          "indexed": true,
          "internalType": "address",
          "name": "user",
          "type": "address"
        },
        {
          "indexed": false,
          "internalType": "string",
          "name": "foodName",
          "type": "string"
        },
        {
          "indexed": false,
          "internalType": "string",
          "name": "restaurantName",
          "type": "string"
        },
        {
          "indexed": false,
          "internalType": "uint256",
          "name": "date",
          "type": "uint256"
        },
        {
          "indexed": false,
          "internalType": "uint256",
          "name": "tokenID",
          "type": "uint256"
        }
      ],
      "name": "EventBoughtFood",
      "type": "event"
    },
    {
      "anonymous": false,
      "inputs": [
        {
          "indexed": true,
          "internalType": "address",
          "name": "user",
          "type": "address"
        },
        {
          "indexed": false,
          "internalType": "string",
          "name": "voucherName",
          "type": "string"
        },
        {
          "indexed": false,
          "internalType": "uint256",
          "name": "date",
          "type": "uint256"
        },
        {
          "indexed": false,
          "internalType": "uint256",
          "name": "tokenID",
          "type": "uint256"
        }
      ],
      "name": "EventBoughtVoucher",
      "type": "event"
    },
    {
      "anonymous": false,
      "inputs": [
        {
          "indexed": true,
          "internalType": "address",
          "name": "user",
          "type": "address"
        },
        {
          "indexed": true,
          "internalType": "address",
          "name": "receiver",
          "type": "address"
        },
        {
          "indexed": false,
          "internalType": "string",
          "name": "foodName",
          "type": "string"
        },
        {
          "indexed": false,
          "internalType": "uint256",
          "name": "date",
          "type": "uint256"
        },
        {
          "indexed": false,
          "internalType": "uint256",
          "name": "tokenID",
          "type": "uint256"
        }
      ],
      "name": "EventGiftFood",
      "type": "event"
    },
    {
      "anonymous": false,
      "inputs": [
        {
          "indexed": true,
          "internalType": "address",
          "name": "user",
          "type": "address"
        },
        {
          "indexed": true,
          "internalType": "address",
          "name": "receiver",
          "type": "address"
        },
        {
          "indexed": false,
          "internalType": "string",
          "name": "voucherName",
          "type": "string"
        },
        {
          "indexed": false,
          "internalType": "uint256",
          "name": "date",
          "type": "uint256"
        },
        {
          "indexed": false,
          "internalType": "uint256",
          "name": "tokenID",
          "type": "uint256"
        }
      ],
      "name": "EventGiftVoucher",
      "type": "event"
    },
    {
      "anonymous": false,
      "inputs": [
        {
          "indexed": true,
          "internalType": "address",
          "name": "user",
          "type": "address"
        },
        {
          "indexed": false,
          "internalType": "string",
          "name": "foodName",
          "type": "string"
        },
        {
          "indexed": false,
          "internalType": "uint256",
          "name": "date",
          "type": "uint256"
        },
        {
          "indexed": false,
          "internalType": "uint256",
          "name": "tokenID",
          "type": "uint256"
        }
      ],
      "name": "EventRedeemFood",
      "type": "event"
    },
    {
      "anonymous": false,
      "inputs": [
        {
          "indexed": true,
          "internalType": "address",
          "name": "user",
          "type": "address"
        },
        {
          "indexed": false,
          "internalType": "string",
          "name": "voucherName",
          "type": "string"
        },
        {
          "indexed": false,
          "internalType": "uint256",
          "name": "date",
          "type": "uint256"
        },
        {
          "indexed": false,
          "internalType": "uint256",
          "name": "tokenID",
          "type": "uint256"
        }
      ],
      "name": "EventRedeemVoucher",
      "type": "event"
    },
    {
      "inputs": [
        {
          "internalType": "string",
          "name": "foodName",
          "type": "string"
        },
        {
          "internalType": "address",
          "name": "receiver",
          "type": "address"
        }
      ],
      "name": "buyAndGiftFood",
      "outputs": [],
      "stateMutability": "payable",
      "type": "function"
    },
    {
      "inputs": [
        {
          "internalType": "string",
          "name": "foodName",
          "type": "string"
        },
        {
          "internalType": "uint256",
          "name": "voucherID",
          "type": "uint256"
        },
        {
          "internalType": "address",
          "name": "receiver",
          "type": "address"
        }
      ],
      "name": "buyAndGiftFoodPromo",
      "outputs": [],
      "stateMutability": "payable",
      "type": "function"
    },
    {
      "inputs": [
        {
          "internalType": "string",
          "name": "voucherName",
          "type": "string"
        },
        {
          "internalType": "address",
          "name": "receiver",
          "type": "address"
        }
      ],
      "name": "buyAndGiftVoucher",
      "outputs": [],
      "stateMutability": "payable",
      "type": "function"
    },
    {
      "inputs": [
        {
          "internalType": "string",
          "name": "foodName",
          "type": "string"
        }
      ],
      "name": "buyFood",
      "outputs": [
        {
          "internalType": "uint256",
          "name": "",
          "type": "uint256"
        }
      ],
      "stateMutability": "payable",
      "type": "function"
    },
    {
      "inputs": [
        {
          "internalType": "string",
          "name": "foodName",
          "type": "string"
        },
        {
          "internalType": "uint256",
          "name": "voucherID",
          "type": "uint256"
        }
      ],
      "name": "buyFoodPromo",
      "outputs": [
        {
          "internalType": "uint256",
          "name": "",
          "type": "uint256"
        }
      ],
      "stateMutability": "payable",
      "type": "function"
    },
    {
      "inputs": [
        {
          "internalType": "string",
          "name": "voucherName",
          "type": "string"
        }
      ],
      "name": "buyVoucher",
      "outputs": [
        {
          "internalType": "uint256",
          "name": "",
          "type": "uint256"
        }
      ],
      "stateMutability": "payable",
      "type": "function"
    },
    {
      "inputs": [],
      "name": "food",
      "outputs": [
        {
          "internalType": "contract Food",
          "name": "",
          "type": "address"
        }
      ],
      "stateMutability": "view",
      "type": "function"
    },
    {
      "inputs": [
        {
          "internalType": "uint256",
          "name": "",
          "type": "uint256"
        }
      ],
      "name": "foodTokens",
      "outputs": [
        {
          "internalType": "string",
          "name": "name",
          "type": "string"
        },
        {
          "internalType": "uint256",
          "name": "tokenID",
          "type": "uint256"
        }
      ],
      "stateMutability": "view",
      "type": "function"
    },
    {
      "inputs": [],
      "name": "getCustomerFoods",
      "outputs": [
        {
          "components": [
            {
              "internalType": "string",
              "name": "name",
              "type": "string"
            },
            {
              "internalType": "uint256",
              "name": "tokenID",
              "type": "uint256"
            }
          ],
          "internalType": "struct Market.Token[]",
          "name": "",
          "type": "tuple[]"
        }
      ],
      "stateMutability": "view",
      "type": "function"
    },
    {
      "inputs": [],
      "name": "getCustomerVouchers",
      "outputs": [
        {
          "components": [
            {
              "internalType": "string",
              "name": "name",
              "type": "string"
            },
            {
              "internalType": "uint256",
              "name": "tokenID",
              "type": "uint256"
            }
          ],
          "internalType": "struct Market.Token[]",
          "name": "",
          "type": "tuple[]"
        }
      ],
      "stateMutability": "view",
      "type": "function"
    },
    {
      "inputs": [
        {
          "internalType": "address",
          "name": "receiver",
          "type": "address"
        },
        {
          "internalType": "uint256",
          "name": "tokenID",
          "type": "uint256"
        }
      ],
      "name": "giftFood",
      "outputs": [],
      "stateMutability": "nonpayable",
      "type": "function"
    },
    {
      "inputs": [
        {
          "internalType": "address",
          "name": "receiver",
          "type": "address"
        },
        {
          "internalType": "uint256",
          "name": "tokenID",
          "type": "uint256"
        }
      ],
      "name": "giftVoucher",
      "outputs": [],
      "stateMutability": "nonpayable",
      "type": "function"
    },
    {
      "inputs": [
        {
          "internalType": "uint256",
          "name": "tokenID",
          "type": "uint256"
        }
      ],
      "name": "redeemFood",
      "outputs": [],
      "stateMutability": "nonpayable",
      "type": "function"
    },
    {
      "inputs": [
        {
          "internalType": "uint256",
          "name": "tokenID",
          "type": "uint256"
        }
      ],
      "name": "redeemVoucher",
      "outputs": [],
      "stateMutability": "nonpayable",
      "type": "function"
    },
    {
      "inputs": [],
      "name": "supplier",
      "outputs": [
        {
          "internalType": "contract Supplier",
          "name": "",
          "type": "address"
        }
      ],
      "stateMutability": "view",
      "type": "function"
    },
    {
      "inputs": [],
      "name": "voucher",
      "outputs": [
        {
          "internalType": "contract Voucher",
          "name": "",
          "type": "address"
        }
      ],
      "stateMutability": "view",
      "type": "function"
    },
    {
      "inputs": [
        {
          "internalType": "uint256",
          "name": "",
          "type": "uint256"
        }
      ],
      "name": "voucherTokens",
      "outputs": [
        {
          "internalType": "string",
          "name": "name",
          "type": "string"
        },
        {
          "internalType": "uint256",
          "name": "tokenID",
          "type": "uint256"
        }
      ],
      "stateMutability": "view",
      "type": "function"
    }
  ],
  "bytecode": "0x608060405260405162000012906200014e565b604051809103906000f0801580156200002f573d6000803e3d6000fd5b50600260006101000a81548173ffffffffffffffffffffffffffffffffffffffff021916908373ffffffffffffffffffffffffffffffffffffffff1602179055506040516200007e906200015c565b604051809103906000f0801580156200009b573d6000803e3d6000fd5b50600360006101000a81548173ffffffffffffffffffffffffffffffffffffffff021916908373ffffffffffffffffffffffffffffffffffffffff160217905550604051620000ea906200016a565b604051809103906000f08015801562000107573d6000803e3d6000fd5b50600460006101000a81548173ffffffffffffffffffffffffffffffffffffffff021916908373ffffffffffffffffffffffffffffffffffffffff16021790555062000178565b61575b8062002ec183390190565b6138cf806200861c83390190565b6138cf806200beeb83390190565b612d3980620001886000396000f3fe6080604052600436106100fd5760003560e01c806344ed40441161009557806398b4e8d31161006457806398b4e8d3146103125780639ca250ef1461033d578063a16e190614610359578063cdda418c14610382578063da504e71146103ad576100fd565b806344ed40441461027757806347c89812146102a25780635c12ce02146102cd578063808c454a146102f6576100fd565b806324dc9da2116100d157806324dc9da2146101c257806335cc73e61461020057806336da446814610230578063386f34e01461025b576100fd565b80624b50bf146101025780631760b6b61461013257806318461949146101705780631c6d6b5e14610199575b600080fd5b61011c600480360381019061011791906122e1565b6103dd565b6040516101299190612958565b60405180910390f35b34801561013e57600080fd5b5061015960048036038101906101549190612472565b6107bf565b60405161016792919061288c565b60405180910390f35b34801561017c57600080fd5b5061019760048036038101906101929190612472565b61087b565b005b3480156101a557600080fd5b506101c060048036038101906101bb9190612472565b6109b8565b005b3480156101ce57600080fd5b506101e960048036038101906101e49190612472565b610af6565b6040516101f792919061288c565b60405180910390f35b61021a600480360381019061021591906123b7565b610bb2565b6040516102279190612958565b60405180910390f35b34801561023c57600080fd5b50610245611092565b60405161025291906127e1565b60405180910390f35b61027560048036038101906102709190612363565b6110b8565b005b34801561028357600080fd5b5061028c6110d4565b60405161029991906127a4565b60405180910390f35b3480156102ae57600080fd5b506102b761120f565b6040516102c491906127a4565b60405180910390f35b3480156102d957600080fd5b506102f460048036038101906102ef91906122a5565b61134a565b005b610310600480360381019061030b9190612363565b611539565b005b34801561031e57600080fd5b50610327611555565b60405161033491906127c6565b60405180910390f35b6103576004803603810190610352919061240b565b61157b565b005b34801561036557600080fd5b50610380600480360381019061037b91906122a5565b611599565b005b34801561038e57600080fd5b50610397611789565b6040516103a491906127fc565b60405180910390f35b6103c760048036038101906103c291906122e1565b6117af565b6040516103d49190612958565b60405180910390f35b600080600260009054906101000a900473ffffffffffffffffffffffffffffffffffffffff1673ffffffffffffffffffffffffffffffffffffffff16639419f501846040518263ffffffff1660e01b815260040161043b9190612817565b60206040518083038186803b15801561045357600080fd5b505afa158015610467573d6000803e3d6000fd5b505050506040513d601f19601f8201168201806040525081019061048b919061249b565b90506000600260009054906101000a900473ffffffffffffffffffffffffffffffffffffffff1673ffffffffffffffffffffffffffffffffffffffff166370583826856040518263ffffffff1660e01b81526004016104ea9190612817565b60006040518083038186803b15801561050257600080fd5b505afa158015610516573d6000803e3d6000fd5b505050506040513d6000823e3d601f19601f8201168201806040525081019061053f9190612322565b905081341015610584576040517f08c379a000000000000000000000000000000000000000000000000000000000815260040161057b90612938565b60405180910390fd5b6000600360009054906101000a900473ffffffffffffffffffffffffffffffffffffffff1673ffffffffffffffffffffffffffffffffffffffff16638345183833876040518363ffffffff1660e01b81526004016105e392919061274b565b602060405180830381600087803b1580156105fd57600080fd5b505af1158015610611573d6000803e3d6000fd5b505050506040513d601f19601f82011682018060405250810190610635919061249b565b905060006040518060400160405280878152602001838152509050806000838154811061068b577f4e487b7100000000000000000000000000000000000000000000000000000000600052603260045260246000fd5b906000526020600020906002020160008201518160000190805190602001906106b5929190612026565b5060208201518160010155905050600560003373ffffffffffffffffffffffffffffffffffffffff1673ffffffffffffffffffffffffffffffffffffffff168152602001908152602001600020600101819080600181540180825580915050600190039060005260206000209060020201600090919091909150600082015181600001908051906020019061074b929190612026565b50602082015181600101555050816006819055503373ffffffffffffffffffffffffffffffffffffffff167f5c26341ef9f4980f5ee273c558420e4a8b988d6615fb666430e9dddffc439791878542866040516107ab9493929190612839565b60405180910390a281945050505050919050565b600081815481106107cf57600080fd5b90600052602060002090600202016000915090508060000180546107f290612b62565b80601f016020809104026020016040519081016040528092919081815260200182805461081e90612b62565b801561086b5780601f106108405761010080835404028352916020019161086b565b820191906000526020600020905b81548152906001019060200180831161084e57829003601f168201915b5050505050908060010154905082565b6108853382611ada565b600360009054906101000a900473ffffffffffffffffffffffffffffffffffffffff1673ffffffffffffffffffffffffffffffffffffffff16631e9a695033836040518363ffffffff1660e01b81526004016108e292919061277b565b600060405180830381600087803b1580156108fc57600080fd5b505af1158015610910573d6000803e3d6000fd5b50505050600080828154811061094f577f4e487b7100000000000000000000000000000000000000000000000000000000600052603260045260246000fd5b906000526020600020906002020190503373ffffffffffffffffffffffffffffffffffffffff167f699426816511f666da88e47993a36f5bd155551818271fd39a2831b3db7f7a858260000142856040516109ac939291906128fa565b60405180910390a25050565b6109c23382611d80565b600460009054906101000a900473ffffffffffffffffffffffffffffffffffffffff1673ffffffffffffffffffffffffffffffffffffffff16631e9a695033836040518363ffffffff1660e01b8152600401610a1f92919061277b565b600060405180830381600087803b158015610a3957600080fd5b505af1158015610a4d573d6000803e3d6000fd5b50505050600060018281548110610a8d577f4e487b7100000000000000000000000000000000000000000000000000000000600052603260045260246000fd5b906000526020600020906002020190503373ffffffffffffffffffffffffffffffffffffffff167f32b1d3bf539faae66dcc3282a95affe80bc23fabae7987ed22d37838a699c9b4826000014285604051610aea939291906128fa565b60405180910390a25050565b60018181548110610b0657600080fd5b9060005260206000209060020201600091509050806000018054610b2990612b62565b80601f0160208091040260200160405190810160405280929190818152602001828054610b5590612b62565b8015610ba25780601f10610b7757610100808354040283529160200191610ba2565b820191906000526020600020905b815481529060010190602001808311610b8557829003601f168201915b5050505050908060010154905082565b600080600260009054906101000a900473ffffffffffffffffffffffffffffffffffffffff1673ffffffffffffffffffffffffffffffffffffffff16639419f501856040518263ffffffff1660e01b8152600401610c109190612817565b60206040518083038186803b158015610c2857600080fd5b505afa158015610c3c573d6000803e3d6000fd5b505050506040513d601f19601f82011682018060405250810190610c60919061249b565b90506000600260009054906101000a900473ffffffffffffffffffffffffffffffffffffffff1673ffffffffffffffffffffffffffffffffffffffff166370583826866040518263ffffffff1660e01b8152600401610cbf9190612817565b60006040518083038186803b158015610cd757600080fd5b505afa158015610ceb573d6000803e3d6000fd5b505050506040513d6000823e3d601f19601f82011682018060405250810190610d149190612322565b90506000600460009054906101000a900473ffffffffffffffffffffffffffffffffffffffff1673ffffffffffffffffffffffffffffffffffffffff1663c87b56dd866040518263ffffffff1660e01b8152600401610d739190612958565b60006040518083038186803b158015610d8b57600080fd5b505afa158015610d9f573d6000803e3d6000fd5b505050506040513d6000823e3d601f19601f82011682018060405250810190610dc89190612322565b90506000600260009054906101000a900473ffffffffffffffffffffffffffffffffffffffff1673ffffffffffffffffffffffffffffffffffffffff16637e29f8ac836040518263ffffffff1660e01b8152600401610e279190612817565b60206040518083038186803b158015610e3f57600080fd5b505afa158015610e53573d6000803e3d6000fd5b505050506040513d601f19601f82011682018060405250810190610e77919061249b565b84610e829190612a44565b905080341015610ec7576040517f08c379a0000000000000000000000000000000000000000000000000000000008152600401610ebe90612938565b60405180910390fd5b6000600360009054906101000a900473ffffffffffffffffffffffffffffffffffffffff1673ffffffffffffffffffffffffffffffffffffffff166383451838338a6040518363ffffffff1660e01b8152600401610f2692919061274b565b602060405180830381600087803b158015610f4057600080fd5b505af1158015610f54573d6000803e3d6000fd5b505050506040513d601f19601f82011682018060405250810190610f78919061249b565b9050600060405180604001604052808a8152602001838152509050600560003373ffffffffffffffffffffffffffffffffffffffff1673ffffffffffffffffffffffffffffffffffffffff168152602001908152602001600020600101819080600181540180825580915050600190039060005260206000209060020201600090919091909150600082015181600001908051906020019061101b929190612026565b50602082015181600101555050816006819055503373ffffffffffffffffffffffffffffffffffffffff167f5c26341ef9f4980f5ee273c558420e4a8b988d6615fb666430e9dddffc4397918a87428660405161107b9493929190612839565b60405180910390a281965050505050505092915050565b600260009054906101000a900473ffffffffffffffffffffffffffffffffffffffff1681565b60006110c3836103dd565b90506110cf828261134a565b505050565b6060600560003373ffffffffffffffffffffffffffffffffffffffff1673ffffffffffffffffffffffffffffffffffffffff168152602001908152602001600020600201805480602002602001604051908101604052809291908181526020016000905b82821015611206578382906000526020600020906002020160405180604001604052908160008201805461116b90612b62565b80601f016020809104026020016040519081016040528092919081815260200182805461119790612b62565b80156111e45780601f106111b9576101008083540402835291602001916111e4565b820191906000526020600020905b8154815290600101906020018083116111c757829003601f168201915b5050505050815260200160018201548152505081526020019060010190611138565b50505050905090565b6060600560003373ffffffffffffffffffffffffffffffffffffffff1673ffffffffffffffffffffffffffffffffffffffff168152602001908152602001600020600101805480602002602001604051908101604052809291908181526020016000905b8282101561134157838290600052602060002090600202016040518060400160405290816000820180546112a690612b62565b80601f01602080910402602001604051908101604052809291908181526020018280546112d290612b62565b801561131f5780601f106112f45761010080835404028352916020019161131f565b820191906000526020600020905b81548152906001019060200180831161130257829003601f168201915b5050505050815260200160018201548152505081526020019060010190611273565b50505050905090565b6113543382611ada565b600360009054906101000a900473ffffffffffffffffffffffffffffffffffffffff1673ffffffffffffffffffffffffffffffffffffffff166395dbee2d3384846040518463ffffffff1660e01b81526004016113b393929190612714565b600060405180830381600087803b1580156113cd57600080fd5b505af11580156113e1573d6000803e3d6000fd5b505050506000808281548110611420577f4e487b7100000000000000000000000000000000000000000000000000000000600052603260045260246000fd5b90600052602060002090600202019050600560008473ffffffffffffffffffffffffffffffffffffffff1673ffffffffffffffffffffffffffffffffffffffff16815260200190815260200160002060010181908060018154018082558091505060019003906000526020600020906002020160009091909190915060008201816000019080546114b090612b62565b6114bb9291906120ac565b506001820154816001015550508273ffffffffffffffffffffffffffffffffffffffff163373ffffffffffffffffffffffffffffffffffffffff167f44361683fbdd5acdd712e06dab66935d0f56f274249ff50740cf080a0294423e83600001428660405161152c939291906128fa565b60405180910390a3505050565b6000611544836117af565b90506115508282611599565b505050565b600360009054906101000a900473ffffffffffffffffffffffffffffffffffffffff1681565b60006115878484610bb2565b9050611593828261134a565b50505050565b6115a33382611d80565b600460009054906101000a900473ffffffffffffffffffffffffffffffffffffffff1673ffffffffffffffffffffffffffffffffffffffff166395dbee2d3384846040518463ffffffff1660e01b815260040161160293929190612714565b600060405180830381600087803b15801561161c57600080fd5b505af1158015611630573d6000803e3d6000fd5b50505050600060018281548110611670577f4e487b7100000000000000000000000000000000000000000000000000000000600052603260045260246000fd5b90600052602060002090600202019050600560008473ffffffffffffffffffffffffffffffffffffffff1673ffffffffffffffffffffffffffffffffffffffff168152602001908152602001600020600101819080600181540180825580915050600190039060005260206000209060020201600090919091909150600082018160000190805461170090612b62565b61170b9291906120ac565b506001820154816001015550508273ffffffffffffffffffffffffffffffffffffffff163373ffffffffffffffffffffffffffffffffffffffff167f27aa4fe41f4d8dbe05b25faef6887cad008af521642acd719caafe064e65ce4583600001428660405161177c939291906128fa565b60405180910390a3505050565b600460009054906101000a900473ffffffffffffffffffffffffffffffffffffffff1681565b600080600260009054906101000a900473ffffffffffffffffffffffffffffffffffffffff1673ffffffffffffffffffffffffffffffffffffffff16637e29f8ac846040518263ffffffff1660e01b815260040161180d9190612817565b60206040518083038186803b15801561182557600080fd5b505afa158015611839573d6000803e3d6000fd5b505050506040513d601f19601f8201168201806040525081019061185d919061249b565b9050803410156118a2576040517f08c379a000000000000000000000000000000000000000000000000000000000815260040161189990612938565b60405180910390fd5b6000600460009054906101000a900473ffffffffffffffffffffffffffffffffffffffff1673ffffffffffffffffffffffffffffffffffffffff16638345183833866040518363ffffffff1660e01b815260040161190192919061274b565b602060405180830381600087803b15801561191b57600080fd5b505af115801561192f573d6000803e3d6000fd5b505050506040513d601f19601f82011682018060405250810190611953919061249b565b90506000604051806040016040528086815260200183815250905080600183815481106119a9577f4e487b7100000000000000000000000000000000000000000000000000000000600052603260045260246000fd5b906000526020600020906002020160008201518160000190805190602001906119d3929190612026565b5060208201518160010155905050600560003373ffffffffffffffffffffffffffffffffffffffff1673ffffffffffffffffffffffffffffffffffffffff1681526020019081526020016000206002018190806001815401808255809150506001900390600052602060002090600202016000909190919091506000820151816000019080519060200190611a69929190612026565b50602082015181600101555050816006819055503373ffffffffffffffffffffffffffffffffffffffff167fed408dcfb1a8a0d0672991ef6507854d15f0e9aa3ecc0a07984529851fcc3f51864285604051611ac7939291906128bc565b60405180910390a2819350505050919050565b6000600360009054906101000a900473ffffffffffffffffffffffffffffffffffffffff1673ffffffffffffffffffffffffffffffffffffffff166370a08231336040518263ffffffff1660e01b8152600401611b3791906126f9565b60206040518083038186803b158015611b4f57600080fd5b505afa158015611b63573d6000803e3d6000fd5b505050506040513d601f19601f82011682018060405250810190611b87919061249b565b90506000600560008573ffffffffffffffffffffffffffffffffffffffff1673ffffffffffffffffffffffffffffffffffffffff1681526020019081526020016000209050600081600101905060005b83811015611d785784828281548110611c19577f4e487b7100000000000000000000000000000000000000000000000000000000600052603260045260246000fd5b9060005260206000209060020201600101541415611d655781600185611c3f9190612a44565b81548110611c76577f4e487b7100000000000000000000000000000000000000000000000000000000600052603260045260246000fd5b9060005260206000209060020201828281548110611cbd577f4e487b7100000000000000000000000000000000000000000000000000000000600052603260045260246000fd5b90600052602060002090600202016000820181600001908054611cdf90612b62565b611cea9291906120ac565b506001820154816001015590505081805480611d2f577f4e487b7100000000000000000000000000000000000000000000000000000000600052603160045260246000fd5b600190038181906000526020600020906002020160008082016000611d549190612139565b600182016000905550509055611d78565b8080611d7090612bc5565b915050611bd7565b505050505050565b6000600460009054906101000a900473ffffffffffffffffffffffffffffffffffffffff1673ffffffffffffffffffffffffffffffffffffffff166370a08231336040518263ffffffff1660e01b8152600401611ddd91906126f9565b60206040518083038186803b158015611df557600080fd5b505afa158015611e09573d6000803e3d6000fd5b505050506040513d601f19601f82011682018060405250810190611e2d919061249b565b90506000600560008573ffffffffffffffffffffffffffffffffffffffff1673ffffffffffffffffffffffffffffffffffffffff1681526020019081526020016000209050600081600201905060005b8381101561201e5784828281548110611ebf577f4e487b7100000000000000000000000000000000000000000000000000000000600052603260045260246000fd5b906000526020600020906002020160010154141561200b5781600185611ee59190612a44565b81548110611f1c577f4e487b7100000000000000000000000000000000000000000000000000000000600052603260045260246000fd5b9060005260206000209060020201828281548110611f63577f4e487b7100000000000000000000000000000000000000000000000000000000600052603260045260246000fd5b90600052602060002090600202016000820181600001908054611f8590612b62565b611f909291906120ac565b506001820154816001015590505081805480611fd5577f4e487b7100000000000000000000000000000000000000000000000000000000600052603160045260246000fd5b600190038181906000526020600020906002020160008082016000611ffa9190612139565b60018201600090555050905561201e565b808061201690612bc5565b915050611e7d565b505050505050565b82805461203290612b62565b90600052602060002090601f016020900481019282612054576000855561209b565b82601f1061206d57805160ff191683800117855561209b565b8280016001018555821561209b579182015b8281111561209a57825182559160200191906001019061207f565b5b5090506120a89190612179565b5090565b8280546120b890612b62565b90600052602060002090601f0160209004810192826120da5760008555612128565b82601f106120eb5780548555612128565b8280016001018555821561212857600052602060002091601f016020900482015b8281111561212757825482559160010191906001019061210c565b5b5090506121359190612179565b5090565b50805461214590612b62565b6000825580601f106121575750612176565b601f0160209004906000526020600020908101906121759190612179565b5b50565b5b8082111561219257600081600090555060010161217a565b5090565b60006121a96121a484612998565b612973565b9050828152602081018484840111156121c157600080fd5b6121cc848285612b20565b509392505050565b60006121e76121e284612998565b612973565b9050828152602081018484840111156121ff57600080fd5b61220a848285612b2f565b509392505050565b60008135905061222181612cd5565b92915050565b600082601f83011261223857600080fd5b8135612248848260208601612196565b91505092915050565b600082601f83011261226257600080fd5b81516122728482602086016121d4565b91505092915050565b60008135905061228a81612cec565b92915050565b60008151905061229f81612cec565b92915050565b600080604083850312156122b857600080fd5b60006122c685828601612212565b92505060206122d78582860161227b565b9150509250929050565b6000602082840312156122f357600080fd5b600082013567ffffffffffffffff81111561230d57600080fd5b61231984828501612227565b91505092915050565b60006020828403121561233457600080fd5b600082015167ffffffffffffffff81111561234e57600080fd5b61235a84828501612251565b91505092915050565b6000806040838503121561237657600080fd5b600083013567ffffffffffffffff81111561239057600080fd5b61239c85828601612227565b92505060206123ad85828601612212565b9150509250929050565b600080604083850312156123ca57600080fd5b600083013567ffffffffffffffff8111156123e457600080fd5b6123f085828601612227565b92505060206124018582860161227b565b9150509250929050565b60008060006060848603121561242057600080fd5b600084013567ffffffffffffffff81111561243a57600080fd5b61244686828701612227565b93505060206124578682870161227b565b925050604061246886828701612212565b9150509250925092565b60006020828403121561248457600080fd5b60006124928482850161227b565b91505092915050565b6000602082840312156124ad57600080fd5b60006124bb84828501612290565b91505092915050565b60006124d0838361269e565b905092915050565b6124e181612a78565b82525050565b60006124f2826129ee565b6124fc8185612a11565b93508360208202850161250e856129c9565b8060005b8581101561254a578484038952815161252b85826124c4565b945061253683612a04565b925060208a01995050600181019050612512565b50829750879550505050505092915050565b61256581612ab4565b82525050565b61257481612ad8565b82525050565b61258381612afc565b82525050565b6000612594826129f9565b61259e8185612a22565b93506125ae818560208601612b2f565b6125b781612c9b565b840191505092915050565b60006125cd826129f9565b6125d78185612a33565b93506125e7818560208601612b2f565b6125f081612c9b565b840191505092915050565b6000815461260881612b62565b6126128186612a33565b9450600182166000811461262d576001811461263f57612672565b60ff1983168652602086019350612672565b612648856129d9565b60005b8381101561266a5781548189015260018201915060208101905061264b565b808801955050505b50505092915050565b6000612688601283612a33565b915061269382612cac565b602082019050919050565b600060408301600083015184820360008601526126bb8282612589565b91505060208301516126d060208601826126db565b508091505092915050565b6126e481612aaa565b82525050565b6126f381612aaa565b82525050565b600060208201905061270e60008301846124d8565b92915050565b600060608201905061272960008301866124d8565b61273660208301856124d8565b61274360408301846126ea565b949350505050565b600060408201905061276060008301856124d8565b818103602083015261277281846125c2565b90509392505050565b600060408201905061279060008301856124d8565b61279d60208301846126ea565b9392505050565b600060208201905081810360008301526127be81846124e7565b905092915050565b60006020820190506127db600083018461255c565b92915050565b60006020820190506127f6600083018461256b565b92915050565b6000602082019050612811600083018461257a565b92915050565b6000602082019050818103600083015261283181846125c2565b905092915050565b6000608082019050818103600083015261285381876125c2565b9050818103602083015261286781866125c2565b905061287660408301856126ea565b61288360608301846126ea565b95945050505050565b600060408201905081810360008301526128a681856125c2565b90506128b560208301846126ea565b9392505050565b600060608201905081810360008301526128d681866125c2565b90506128e560208301856126ea565b6128f260408301846126ea565b949350505050565b6000606082019050818103600083015261291481866125fb565b905061292360208301856126ea565b61293060408301846126ea565b949350505050565b600060208201905081810360008301526129518161267b565b9050919050565b600060208201905061296d60008301846126ea565b92915050565b600061297d61298e565b90506129898282612b94565b919050565b6000604051905090565b600067ffffffffffffffff8211156129b3576129b2612c6c565b5b6129bc82612c9b565b9050602081019050919050565b6000819050602082019050919050565b60008190508160005260206000209050919050565b600081519050919050565b600081519050919050565b6000602082019050919050565b600082825260208201905092915050565b600082825260208201905092915050565b600082825260208201905092915050565b6000612a4f82612aaa565b9150612a5a83612aaa565b925082821015612a6d57612a6c612c0e565b5b828203905092915050565b6000612a8382612a8a565b9050919050565b600073ffffffffffffffffffffffffffffffffffffffff82169050919050565b6000819050919050565b6000612abf82612ac6565b9050919050565b6000612ad182612a8a565b9050919050565b6000612ae382612aea565b9050919050565b6000612af582612a8a565b9050919050565b6000612b0782612b0e565b9050919050565b6000612b1982612a8a565b9050919050565b82818337600083830152505050565b60005b83811015612b4d578082015181840152602081019050612b32565b83811115612b5c576000848401525b50505050565b60006002820490506001821680612b7a57607f821691505b60208210811415612b8e57612b8d612c3d565b5b50919050565b612b9d82612c9b565b810181811067ffffffffffffffff82111715612bbc57612bbb612c6c565b5b80604052505050565b6000612bd082612aaa565b91507fffffffffffffffffffffffffffffffffffffffffffffffffffffffffffffffff821415612c0357612c02612c0e565b5b600182019050919050565b7f4e487b7100000000000000000000000000000000000000000000000000000000600052601160045260246000fd5b7f4e487b7100000000000000000000000000000000000000000000000000000000600052602260045260246000fd5b7f4e487b7100000000000000000000000000000000000000000000000000000000600052604160045260246000fd5b6000601f19601f8301169050919050565b7f496e73756666696369656e74206d6f6e65790000000000000000000000000000600082015250565b612cde81612a78565b8114612ce957600080fd5b50565b612cf581612aaa565b8114612d0057600080fd5b5056fea26469706673582212204ef9b9d38af891227e6a21b554e10a21678b6717865a715ae53f44b8fbbb7dc864736f6c63430008040033608060405234801561001057600080fd5b50336000806101000a81548173ffffffffffffffffffffffffffffffffffffffff021916908373ffffffffffffffffffffffffffffffffffffffff16021790555060405161005d906100bf565b604051809103906000f080158015610079573d6000803e3d6000fd5b50600660006101000a81548173ffffffffffffffffffffffffffffffffffffffff021916908373ffffffffffffffffffffffffffffffffffffffff1602179055506100cd565b61384f8062001f0c83390190565b611e2f80620000dd6000396000f3fe6080604052600436106100dd5760003560e01c8063899c67431161007f578063c4120a0a11610059578063c4120a0a146102ec578063c6def07614610315578063d797777a14610340578063dc8a8e661461037f576100dd565b8063899c6743146102485780639419f50114610271578063b0d4c1de146102ae576100dd565b8063603f830e116100bb578063603f830e1461016757806370583826146101a557806376642521146101e25780637e29f8ac1461020b576100dd565b80630dce6a91146100e25780632bc5c973146101205780633013ee301461013c575b600080fd5b3480156100ee57600080fd5b50610109600480360381019061010491906114cf565b6103be565b6040516101179291906119bf565b60405180910390f35b61013a6004803603810190610135919061150b565b610487565b005b34801561014857600080fd5b50610151610680565b60405161015e919061191b565b60405180910390f35b34801561017357600080fd5b5061018e600480360381019061018991906115cb565b6107b8565b60405161019c9291906119bf565b60405180910390f35b3480156101b157600080fd5b506101cc60048036038101906101c7919061150b565b610897565b6040516101d99190611958565b60405180910390f35b3480156101ee57600080fd5b506102096004803603810190610204919061161f565b61094a565b005b34801561021757600080fd5b50610232600480360381019061022d919061150b565b610ccb565b60405161023f9190611a8b565b60405180910390f35b34801561025457600080fd5b5061026f600480360381019061026a919061154c565b610cf6565b005b34801561027d57600080fd5b506102986004803603810190610293919061150b565b610e0f565b6040516102a59190611a8b565b60405180910390f35b3480156102ba57600080fd5b506102d560048036038101906102d0919061150b565b610e3a565b6040516102e39291906119bf565b60405180910390f35b3480156102f857600080fd5b50610313600480360381019061030e919061154c565b610efc565b005b34801561032157600080fd5b5061032a610fd5565b604051610337919061193d565b60405180910390f35b34801561034c57600080fd5b50610367600480360381019061036291906115cb565b610ffb565b6040516103769392919061197a565b60405180910390f35b34801561038b57600080fd5b506103a660048036038101906103a1919061150b565b611168565b6040516103b59392919061197a565b60405180910390f35b600160205281600052604060002081815481106103da57600080fd5b9060005260206000209060020201600091509150508060000180546103fe90611c58565b80601f016020809104026020016040519081016040528092919081815260200182805461042a90611c58565b80156104775780601f1061044c57610100808354040283529160200191610477565b820191906000526020600020905b81548152906001019060200180831161045a57829003601f168201915b5050505050908060010154905082565b60013410156104cb576040517f08c379a00000000000000000000000000000000000000000000000000000000081526004016104c290611a6b565b60405180910390fd5b6000600660009054906101000a900473ffffffffffffffffffffffffffffffffffffffff1673ffffffffffffffffffffffffffffffffffffffff16638345183833846040518363ffffffff1660e01b815260040161052a9291906118eb565b602060405180830381600087803b15801561054457600080fd5b505af1158015610558573d6000803e3d6000fd5b505050506040513d601f19601f8201168201806040525081019061057c9190611648565b905060006040518060400160405280848152602001838152509050600160003373ffffffffffffffffffffffffffffffffffffffff1673ffffffffffffffffffffffffffffffffffffffff168152602001908152602001600020819080600181540180825580915050600190039060005260206000209060020201600090919091909150600082015181600001908051906020019061061c9291906112b8565b506020820151816001015550503373ffffffffffffffffffffffffffffffffffffffff167f0ecd9ba313116b081dcb938dd6453ebd27766c556849f5ea15ad8df4739ae1b6844285604051610673939291906119ef565b60405180910390a2505050565b6060600160003373ffffffffffffffffffffffffffffffffffffffff1673ffffffffffffffffffffffffffffffffffffffff168152602001908152602001600020805480602002602001604051908101604052809291908181526020016000905b828210156107af578382906000526020600020906002020160405180604001604052908160008201805461071490611c58565b80601f016020809104026020016040519081016040528092919081815260200182805461074090611c58565b801561078d5780601f106107625761010080835404028352916020019161078d565b820191906000526020600020905b81548152906001019060200180831161077057829003601f168201915b50505050508152602001600182015481525050815260200190600101906106e1565b50505050905090565b60058280516020810182018051848252602083016020850120818352809550505050505081815481106107ea57600080fd5b90600052602060002090600202016000915091505080600001805461080e90611c58565b80601f016020809104026020016040519081016040528092919081815260200182805461083a90611c58565b80156108875780601f1061085c57610100808354040283529160200191610887565b820191906000526020600020905b81548152906001019060200180831161086a57829003601f168201915b5050505050908060010154905082565b60606002826040516108a991906118b9565b908152602001604051809103902060010180546108c590611c58565b80601f01602080910402602001604051908101604052809291908181526020018280546108f190611c58565b801561093e5780601f106109135761010080835404028352916020019161093e565b820191906000526020600020905b81548152906001019060200180831161092157829003601f168201915b50505050509050919050565b6000600660009054906101000a900473ffffffffffffffffffffffffffffffffffffffff1673ffffffffffffffffffffffffffffffffffffffff166370a08231336040518263ffffffff1660e01b81526004016109a791906118d0565b60206040518083038186803b1580156109bf57600080fd5b505afa1580156109d3573d6000803e3d6000fd5b505050506040513d601f19601f820116820180604052508101906109f79190611648565b90506000600160003373ffffffffffffffffffffffffffffffffffffffff1673ffffffffffffffffffffffffffffffffffffffff168152602001908152602001600020905060005b82811015610cc55783828281548110610a81577f4e487b7100000000000000000000000000000000000000000000000000000000600052603260045260246000fd5b9060005260206000209060020201600101541415610cb2573373ffffffffffffffffffffffffffffffffffffffff167fabe35118fc7d3ff7d5b5594e07fd3aeff31b77f1c1ce285eacfc915790253c2f838381548110610b0a577f4e487b7100000000000000000000000000000000000000000000000000000000600052603260045260246000fd5b906000526020600020906002020160000142858581548110610b55577f4e487b7100000000000000000000000000000000000000000000000000000000600052603260045260246000fd5b906000526020600020906002020160010154604051610b7693929190611a2d565b60405180910390a281600184610b8c9190611b82565b81548110610bc3577f4e487b7100000000000000000000000000000000000000000000000000000000600052603260045260246000fd5b9060005260206000209060020201828281548110610c0a577f4e487b7100000000000000000000000000000000000000000000000000000000600052603260045260246000fd5b90600052602060002090600202016000820181600001908054610c2c90611c58565b610c3792919061133e565b506001820154816001015590505081805480610c7c577f4e487b7100000000000000000000000000000000000000000000000000000000600052603160045260246000fd5b600190038181906000526020600020906002020160008082016000610ca191906113cb565b600182016000905550509055610cc5565b8080610cbd90611cbb565b915050610a3f565b50505050565b6000600382604051610cdd91906118b9565b9081526020016040518091039020600101549050919050565b6000604051806060016040528085815260200184815260200183815250905080600285604051610d2691906118b9565b90815260200160405180910390206000820151816000019080519060200190610d509291906112b8565b506020820151816001019080519060200190610d6d9291906112b8565b5060408201518160020155905050600483604051610d8b91906118b9565b90815260200160405180910390208190806001815401808255809150506001900390600052602060002090600302016000909190919091506000820151816000019080519060200190610ddf9291906112b8565b506020820151816001019080519060200190610dfc9291906112b8565b5060408201518160020155505050505050565b6000600282604051610e2191906118b9565b9081526020016040518091039020600201549050919050565b600381805160208101820180518482526020830160208501208183528095505050505050600091509050806000018054610e7390611c58565b80601f0160208091040260200160405190810160405280929190818152602001828054610e9f90611c58565b8015610eec5780601f10610ec157610100808354040283529160200191610eec565b820191906000526020600020905b815481529060010190602001808311610ecf57829003601f168201915b5050505050908060010154905082565b6000604051806040016040528085815260200183815250905080600385604051610f2691906118b9565b90815260200160405180910390206000820151816000019080519060200190610f509291906112b8565b5060208201518160010155905050600583604051610f6e91906118b9565b90815260200160405180910390208190806001815401808255809150506001900390600052602060002090600202016000909190919091506000820151816000019080519060200190610fc29291906112b8565b5060208201518160010155505050505050565b600660009054906101000a900473ffffffffffffffffffffffffffffffffffffffff1681565b600482805160208101820180518482526020830160208501208183528095505050505050818154811061102d57600080fd5b90600052602060002090600302016000915091505080600001805461105190611c58565b80601f016020809104026020016040519081016040528092919081815260200182805461107d90611c58565b80156110ca5780601f1061109f576101008083540402835291602001916110ca565b820191906000526020600020905b8154815290600101906020018083116110ad57829003601f168201915b5050505050908060010180546110df90611c58565b80601f016020809104026020016040519081016040528092919081815260200182805461110b90611c58565b80156111585780601f1061112d57610100808354040283529160200191611158565b820191906000526020600020905b81548152906001019060200180831161113b57829003601f168201915b5050505050908060020154905083565b6002818051602081018201805184825260208301602085012081835280955050505050506000915090508060000180546111a190611c58565b80601f01602080910402602001604051908101604052809291908181526020018280546111cd90611c58565b801561121a5780601f106111ef5761010080835404028352916020019161121a565b820191906000526020600020905b8154815290600101906020018083116111fd57829003601f168201915b50505050509080600101805461122f90611c58565b80601f016020809104026020016040519081016040528092919081815260200182805461125b90611c58565b80156112a85780601f1061127d576101008083540402835291602001916112a8565b820191906000526020600020905b81548152906001019060200180831161128b57829003601f168201915b5050505050908060020154905083565b8280546112c490611c58565b90600052602060002090601f0160209004810192826112e6576000855561132d565b82601f106112ff57805160ff191683800117855561132d565b8280016001018555821561132d579182015b8281111561132c578251825591602001919060010190611311565b5b50905061133a919061140b565b5090565b82805461134a90611c58565b90600052602060002090601f01602090048101928261136c57600085556113ba565b82601f1061137d57805485556113ba565b828001600101855582156113ba57600052602060002091601f016020900482015b828111156113b957825482559160010191906001019061139e565b5b5090506113c7919061140b565b5090565b5080546113d790611c58565b6000825580601f106113e95750611408565b601f016020900490600052602060002090810190611407919061140b565b5b50565b5b8082111561142457600081600090555060010161140c565b5090565b600061143b61143684611acb565b611aa6565b90508281526020810184848401111561145357600080fd5b61145e848285611c16565b509392505050565b60008135905061147581611dcb565b92915050565b600082601f83011261148c57600080fd5b813561149c848260208601611428565b91505092915050565b6000813590506114b481611de2565b92915050565b6000815190506114c981611de2565b92915050565b600080604083850312156114e257600080fd5b60006114f085828601611466565b9250506020611501858286016114a5565b9150509250929050565b60006020828403121561151d57600080fd5b600082013567ffffffffffffffff81111561153757600080fd5b6115438482850161147b565b91505092915050565b60008060006060848603121561156157600080fd5b600084013567ffffffffffffffff81111561157b57600080fd5b6115878682870161147b565b935050602084013567ffffffffffffffff8111156115a457600080fd5b6115b08682870161147b565b92505060406115c1868287016114a5565b9150509250925092565b600080604083850312156115de57600080fd5b600083013567ffffffffffffffff8111156115f857600080fd5b6116048582860161147b565b9250506020611615858286016114a5565b9150509250929050565b60006020828403121561163157600080fd5b600061163f848285016114a5565b91505092915050565b60006020828403121561165a57600080fd5b6000611668848285016114ba565b91505092915050565b600061167d838361185e565b905092915050565b61168e81611bb6565b82525050565b600061169f82611b21565b6116a98185611b44565b9350836020820285016116bb85611afc565b8060005b858110156116f757848403895281516116d88582611671565b94506116e383611b37565b925060208a019950506001810190506116bf565b50829750879550505050505092915050565b61171281611bf2565b82525050565b600061172382611b2c565b61172d8185611b55565b935061173d818560208601611c25565b61174681611d91565b840191505092915050565b600061175c82611b2c565b6117668185611b66565b9350611776818560208601611c25565b61177f81611d91565b840191505092915050565b600061179582611b2c565b61179f8185611b77565b93506117af818560208601611c25565b80840191505092915050565b600081546117c881611c58565b6117d28186611b66565b945060018216600081146117ed57600181146117ff57611832565b60ff1983168652602086019350611832565b61180885611b0c565b60005b8381101561182a5781548189015260018201915060208101905061180b565b808801955050505b50505092915050565b6000611848601283611b66565b915061185382611da2565b602082019050919050565b6000604083016000830151848203600086015261187b8282611718565b9150506020830151611890602086018261189b565b508091505092915050565b6118a481611be8565b82525050565b6118b381611be8565b82525050565b60006118c5828461178a565b915081905092915050565b60006020820190506118e56000830184611685565b92915050565b60006040820190506119006000830185611685565b81810360208301526119128184611751565b90509392505050565b600060208201905081810360008301526119358184611694565b905092915050565b60006020820190506119526000830184611709565b92915050565b600060208201905081810360008301526119728184611751565b905092915050565b600060608201905081810360008301526119948186611751565b905081810360208301526119a88185611751565b90506119b760408301846118aa565b949350505050565b600060408201905081810360008301526119d98185611751565b90506119e860208301846118aa565b9392505050565b60006060820190508181036000830152611a098186611751565b9050611a1860208301856118aa565b611a2560408301846118aa565b949350505050565b60006060820190508181036000830152611a4781866117bb565b9050611a5660208301856118aa565b611a6360408301846118aa565b949350505050565b60006020820190508181036000830152611a848161183b565b9050919050565b6000602082019050611aa060008301846118aa565b92915050565b6000611ab0611ac1565b9050611abc8282611c8a565b919050565b6000604051905090565b600067ffffffffffffffff821115611ae657611ae5611d62565b5b611aef82611d91565b9050602081019050919050565b6000819050602082019050919050565b60008190508160005260206000209050919050565b600081519050919050565b600081519050919050565b6000602082019050919050565b600082825260208201905092915050565b600082825260208201905092915050565b600082825260208201905092915050565b600081905092915050565b6000611b8d82611be8565b9150611b9883611be8565b925082821015611bab57611baa611d04565b5b828203905092915050565b6000611bc182611bc8565b9050919050565b600073ffffffffffffffffffffffffffffffffffffffff82169050919050565b6000819050919050565b6000611bfd82611c04565b9050919050565b6000611c0f82611bc8565b9050919050565b82818337600083830152505050565b60005b83811015611c43578082015181840152602081019050611c28565b83811115611c52576000848401525b50505050565b60006002820490506001821680611c7057607f821691505b60208210811415611c8457611c83611d33565b5b50919050565b611c9382611d91565b810181811067ffffffffffffffff82111715611cb257611cb1611d62565b5b80604052505050565b6000611cc682611be8565b91507fffffffffffffffffffffffffffffffffffffffffffffffffffffffffffffffff821415611cf957611cf8611d04565b5b600182019050919050565b7f4e487b7100000000000000000000000000000000000000000000000000000000600052601160045260246000fd5b7f4e487b7100000000000000000000000000000000000000000000000000000000600052602260045260246000fd5b7f4e487b7100000000000000000000000000000000000000000000000000000000600052604160045260246000fd5b6000601f19601f8301169050919050565b7f496e73756666696369656e74206d6f6e65790000000000000000000000000000600082015250565b611dd481611bb6565b8114611ddf57600080fd5b50565b611deb81611be8565b8114611df657600080fd5b5056fea2646970667358221220e9a9e9670235ea6997fd6ea6f6d7d61c015383f5e7bf09ae932d8d2c2ad649d964736f6c6343000804003360806040523480156200001157600080fd5b506040518060400160405280600781526020017f426f6f73746572000000000000000000000000000000000000000000000000008152506040518060400160405280600781526020017f426f6f7374657200000000000000000000000000000000000000000000000000815250816000908051906020019062000096929190620000b8565b508060019080519060200190620000af929190620000b8565b505050620001cd565b828054620000c69062000168565b90600052602060002090601f016020900481019282620000ea576000855562000136565b82601f106200010557805160ff191683800117855562000136565b8280016001018555821562000136579182015b828111156200013557825182559160200191906001019062000118565b5b50905062000145919062000149565b5090565b5b80821115620001645760008160009055506001016200014a565b5090565b600060028204905060018216806200018157607f821691505b602082108114156200019857620001976200019e565b5b50919050565b7f4e487b7100000000000000000000000000000000000000000000000000000000600052602260045260246000fd5b61367280620001dd6000396000f3fe608060405234801561001057600080fd5b50600436106101165760003560e01c80634f6ccce7116100a257806395d89b411161007157806395d89b4114610317578063a22cb46514610335578063b88d4fde14610351578063c87b56dd1461036d578063e985e9c51461039d57610116565b80634f6ccce7146102575780636352211e1461028757806370a08231146102b757806383451838146102e757610116565b806318160ddd116100e957806318160ddd146101b55780631e9a6950146101d357806323b872dd146101ef5780632f745c591461020b57806342842e0e1461023b57610116565b806301ffc9a71461011b57806306fdde031461014b578063081812fc14610169578063095ea7b314610199575b600080fd5b61013560048036038101906101309190612569565b6103cd565b60405161014291906129d8565b60405180910390f35b6101536103df565b60405161016091906129f3565b60405180910390f35b610183600480360381019061017e91906125bb565b610471565b6040516101909190612971565b60405180910390f35b6101b360048036038101906101ae919061252d565b6104f6565b005b6101bd61060e565b6040516101ca9190612c75565b60405180910390f35b6101ed60048036038101906101e8919061252d565b61061b565b005b610209600480360381019061020491906123d3565b610671565b005b6102256004803603810190610220919061252d565b6106d1565b6040516102329190612c75565b60405180910390f35b610255600480360381019061025091906123d3565b610776565b005b610271600480360381019061026c91906125bb565b610796565b60405161027e9190612c75565b60405180910390f35b6102a1600480360381019061029c91906125bb565b61082d565b6040516102ae9190612971565b60405180910390f35b6102d160048036038101906102cc919061236e565b6108df565b6040516102de9190612c75565b60405180910390f35b61030160048036038101906102fc91906124d9565b610997565b60405161030e9190612c75565b60405180910390f35b61031f6109ce565b60405161032c91906129f3565b60405180910390f35b61034f600480360381019061034a919061249d565b610a60565b005b61036b60048036038101906103669190612422565b610a76565b005b610387600480360381019061038291906125bb565b610ad8565b60405161039491906129f3565b60405180910390f35b6103b760048036038101906103b29190612397565b610aea565b6040516103c491906129d8565b60405180910390f35b60006103d882610b7e565b9050919050565b6060600080546103ee90612ecb565b80601f016020809104026020016040519081016040528092919081815260200182805461041a90612ecb565b80156104675780601f1061043c57610100808354040283529160200191610467565b820191906000526020600020905b81548152906001019060200180831161044a57829003601f168201915b5050505050905090565b600061047c82610bf8565b6104bb576040517f08c379a00000000000000000000000000000000000000000000000000000000081526004016104b290612b95565b60405180910390fd5b6004600083815260200190815260200160002060009054906101000a900473ffffffffffffffffffffffffffffffffffffffff169050919050565b60006105018261082d565b90508073ffffffffffffffffffffffffffffffffffffffff168373ffffffffffffffffffffffffffffffffffffffff161415610572576040517f08c379a000000000000000000000000000000000000000000000000000000000815260040161056990612c15565b60405180910390fd5b8073ffffffffffffffffffffffffffffffffffffffff16610591610c64565b73ffffffffffffffffffffffffffffffffffffffff1614806105c057506105bf816105ba610c64565b610aea565b5b6105ff576040517f08c379a00000000000000000000000000000000000000000000000000000000081526004016105f690612ad5565b60405180910390fd5b6106098383610c6c565b505050565b6000600980549050905090565b6106258282610d25565b610664576040517f08c379a000000000000000000000000000000000000000000000000000000000815260040161065b90612bb5565b60405180910390fd5b61066d81610e03565b5050565b61068261067c610c64565b82610d25565b6106c1576040517f08c379a00000000000000000000000000000000000000000000000000000000081526004016106b890612c35565b60405180910390fd5b6106cc838383610e0f565b505050565b60006106dc836108df565b821061071d576040517f08c379a000000000000000000000000000000000000000000000000000000000815260040161071490612a15565b60405180910390fd5b600760008473ffffffffffffffffffffffffffffffffffffffff1673ffffffffffffffffffffffffffffffffffffffff168152602001908152602001600020600083815260200190815260200160002054905092915050565b61079183838360405180602001604052806000815250610a76565b505050565b60006107a061060e565b82106107e1576040517f08c379a00000000000000000000000000000000000000000000000000000000081526004016107d890612c55565b60405180910390fd5b6009828154811061081b577f4e487b7100000000000000000000000000000000000000000000000000000000600052603260045260246000fd5b90600052602060002001549050919050565b6000806002600084815260200190815260200160002060009054906101000a900473ffffffffffffffffffffffffffffffffffffffff169050600073ffffffffffffffffffffffffffffffffffffffff168173ffffffffffffffffffffffffffffffffffffffff1614156108d6576040517f08c379a00000000000000000000000000000000000000000000000000000000081526004016108cd90612b15565b60405180910390fd5b80915050919050565b60008073ffffffffffffffffffffffffffffffffffffffff168273ffffffffffffffffffffffffffffffffffffffff161415610950576040517f08c379a000000000000000000000000000000000000000000000000000000000815260040161094790612af5565b60405180910390fd5b600360008373ffffffffffffffffffffffffffffffffffffffff1673ffffffffffffffffffffffffffffffffffffffff168152602001908152602001600020549050919050565b6000806109a4600b61106b565b90506109b0600b611079565b6109ba848261108f565b6109c4818461125d565b8091505092915050565b6060600180546109dd90612ecb565b80601f0160208091040260200160405190810160405280929190818152602001828054610a0990612ecb565b8015610a565780601f10610a2b57610100808354040283529160200191610a56565b820191906000526020600020905b815481529060010190602001808311610a3957829003601f168201915b5050505050905090565b610a72610a6b610c64565b83836112d1565b5050565b610a87610a81610c64565b83610d25565b610ac6576040517f08c379a0000000000000000000000000000000000000000000000000000000008152600401610abd90612c35565b60405180910390fd5b610ad28484848461143e565b50505050565b6060610ae38261149a565b9050919050565b6000600560008473ffffffffffffffffffffffffffffffffffffffff1673ffffffffffffffffffffffffffffffffffffffff16815260200190815260200160002060008373ffffffffffffffffffffffffffffffffffffffff1673ffffffffffffffffffffffffffffffffffffffff16815260200190815260200160002060009054906101000a900460ff16905092915050565b60007f780e9d63000000000000000000000000000000000000000000000000000000007bffffffffffffffffffffffffffffffffffffffffffffffffffffffff1916827bffffffffffffffffffffffffffffffffffffffffffffffffffffffff19161480610bf15750610bf0826115ec565b5b9050919050565b60008073ffffffffffffffffffffffffffffffffffffffff166002600084815260200190815260200160002060009054906101000a900473ffffffffffffffffffffffffffffffffffffffff1673ffffffffffffffffffffffffffffffffffffffff1614159050919050565b600033905090565b816004600083815260200190815260200160002060006101000a81548173ffffffffffffffffffffffffffffffffffffffff021916908373ffffffffffffffffffffffffffffffffffffffff160217905550808273ffffffffffffffffffffffffffffffffffffffff16610cdf8361082d565b73ffffffffffffffffffffffffffffffffffffffff167f8c5be1e5ebec7d5bd14f71427d1e84f3dd0314c0f7b2291e5b200ac8c7c3b92560405160405180910390a45050565b6000610d3082610bf8565b610d6f576040517f08c379a0000000000000000000000000000000000000000000000000000000008152600401610d6690612ab5565b60405180910390fd5b6000610d7a8361082d565b90508073ffffffffffffffffffffffffffffffffffffffff168473ffffffffffffffffffffffffffffffffffffffff161480610de957508373ffffffffffffffffffffffffffffffffffffffff16610dd184610471565b73ffffffffffffffffffffffffffffffffffffffff16145b80610dfa5750610df98185610aea565b5b91505092915050565b610e0c816116ce565b50565b8273ffffffffffffffffffffffffffffffffffffffff16610e2f8261082d565b73ffffffffffffffffffffffffffffffffffffffff1614610e85576040517f08c379a0000000000000000000000000000000000000000000000000000000008152600401610e7c90612bd5565b60405180910390fd5b600073ffffffffffffffffffffffffffffffffffffffff168273ffffffffffffffffffffffffffffffffffffffff161415610ef5576040517f08c379a0000000000000000000000000000000000000000000000000000000008152600401610eec90612a75565b60405180910390fd5b610f00838383611721565b610f0b600082610c6c565b6001600360008573ffffffffffffffffffffffffffffffffffffffff1673ffffffffffffffffffffffffffffffffffffffff1681526020019081526020016000206000828254610f5b9190612de1565b925050819055506001600360008473ffffffffffffffffffffffffffffffffffffffff1673ffffffffffffffffffffffffffffffffffffffff1681526020019081526020016000206000828254610fb29190612d5a565b92505081905550816002600083815260200190815260200160002060006101000a81548173ffffffffffffffffffffffffffffffffffffffff021916908373ffffffffffffffffffffffffffffffffffffffff160217905550808273ffffffffffffffffffffffffffffffffffffffff168473ffffffffffffffffffffffffffffffffffffffff167fddf252ad1be2c89b69c2b068fc378daa952ba7f163c4a11628f55a4df523b3ef60405160405180910390a4505050565b600081600001549050919050565b6001816000016000828254019250508190555050565b600073ffffffffffffffffffffffffffffffffffffffff168273ffffffffffffffffffffffffffffffffffffffff1614156110ff576040517f08c379a00000000000000000000000000000000000000000000000000000000081526004016110f690612b55565b60405180910390fd5b61110881610bf8565b15611148576040517f08c379a000000000000000000000000000000000000000000000000000000000815260040161113f90612a55565b60405180910390fd5b61115460008383611721565b6001600360008473ffffffffffffffffffffffffffffffffffffffff1673ffffffffffffffffffffffffffffffffffffffff16815260200190815260200160002060008282546111a49190612d5a565b92505081905550816002600083815260200190815260200160002060006101000a81548173ffffffffffffffffffffffffffffffffffffffff021916908373ffffffffffffffffffffffffffffffffffffffff160217905550808273ffffffffffffffffffffffffffffffffffffffff16600073ffffffffffffffffffffffffffffffffffffffff167fddf252ad1be2c89b69c2b068fc378daa952ba7f163c4a11628f55a4df523b3ef60405160405180910390a45050565b61126682610bf8565b6112a5576040517f08c379a000000000000000000000000000000000000000000000000000000000815260040161129c90612b35565b60405180910390fd5b806006600084815260200190815260200160002090805190602001906112cc929190612152565b505050565b8173ffffffffffffffffffffffffffffffffffffffff168373ffffffffffffffffffffffffffffffffffffffff161415611340576040517f08c379a000000000000000000000000000000000000000000000000000000000815260040161133790612a95565b60405180910390fd5b80600560008573ffffffffffffffffffffffffffffffffffffffff1673ffffffffffffffffffffffffffffffffffffffff16815260200190815260200160002060008473ffffffffffffffffffffffffffffffffffffffff1673ffffffffffffffffffffffffffffffffffffffff16815260200190815260200160002060006101000a81548160ff0219169083151502179055508173ffffffffffffffffffffffffffffffffffffffff168373ffffffffffffffffffffffffffffffffffffffff167f17307eab39ab6107e8899845ad3d59bd9653f200f220920489ca2b5937696c318360405161143191906129d8565b60405180910390a3505050565b611449848484610e0f565b61145584848484611731565b611494576040517f08c379a000000000000000000000000000000000000000000000000000000000815260040161148b90612a35565b60405180910390fd5b50505050565b60606114a582610bf8565b6114e4576040517f08c379a00000000000000000000000000000000000000000000000000000000081526004016114db90612b75565b60405180910390fd5b600060066000848152602001908152602001600020805461150490612ecb565b80601f016020809104026020016040519081016040528092919081815260200182805461153090612ecb565b801561157d5780601f106115525761010080835404028352916020019161157d565b820191906000526020600020905b81548152906001019060200180831161156057829003601f168201915b50505050509050600061158e6118c8565b90506000815114156115a45781925050506115e7565b6000825111156115d95780826040516020016115c192919061294d565b604051602081830303815290604052925050506115e7565b6115e2846118df565b925050505b919050565b60007f80ac58cd000000000000000000000000000000000000000000000000000000007bffffffffffffffffffffffffffffffffffffffffffffffffffffffff1916827bffffffffffffffffffffffffffffffffffffffffffffffffffffffff191614806116b757507f5b5e139f000000000000000000000000000000000000000000000000000000007bffffffffffffffffffffffffffffffffffffffffffffffffffffffff1916827bffffffffffffffffffffffffffffffffffffffffffffffffffffffff1916145b806116c757506116c682611986565b5b9050919050565b6116d7816119f0565b60006006600083815260200190815260200160002080546116f790612ecb565b90501461171e5760066000828152602001908152602001600020600061171d91906121d8565b5b50565b61172c838383611b01565b505050565b60006117528473ffffffffffffffffffffffffffffffffffffffff16611c15565b156118bb578373ffffffffffffffffffffffffffffffffffffffff1663150b7a0261177b610c64565b8786866040518563ffffffff1660e01b815260040161179d949392919061298c565b602060405180830381600087803b1580156117b757600080fd5b505af19250505080156117e857506040513d601f19601f820116820180604052508101906117e59190612592565b60015b61186b573d8060008114611818576040519150601f19603f3d011682016040523d82523d6000602084013e61181d565b606091505b50600081511415611863576040517f08c379a000000000000000000000000000000000000000000000000000000000815260040161185a90612a35565b60405180910390fd5b805181602001fd5b63150b7a0260e01b7bffffffffffffffffffffffffffffffffffffffffffffffffffffffff1916817bffffffffffffffffffffffffffffffffffffffffffffffffffffffff1916149150506118c0565b600190505b949350505050565b606060405180602001604052806000815250905090565b60606118ea82610bf8565b611929576040517f08c379a000000000000000000000000000000000000000000000000000000000815260040161192090612bf5565b60405180910390fd5b60006119336118c8565b90506000815111611953576040518060200160405280600081525061197e565b8061195d84611c28565b60405160200161196e92919061294d565b6040516020818303038152906040525b915050919050565b60007f01ffc9a7000000000000000000000000000000000000000000000000000000007bffffffffffffffffffffffffffffffffffffffffffffffffffffffff1916827bffffffffffffffffffffffffffffffffffffffffffffffffffffffff1916149050919050565b60006119fb8261082d565b9050611a0981600084611721565b611a14600083610c6c565b6001600360008373ffffffffffffffffffffffffffffffffffffffff1673ffffffffffffffffffffffffffffffffffffffff1681526020019081526020016000206000828254611a649190612de1565b925050819055506002600083815260200190815260200160002060006101000a81549073ffffffffffffffffffffffffffffffffffffffff021916905581600073ffffffffffffffffffffffffffffffffffffffff168273ffffffffffffffffffffffffffffffffffffffff167fddf252ad1be2c89b69c2b068fc378daa952ba7f163c4a11628f55a4df523b3ef60405160405180910390a45050565b611b0c838383611dd5565b600073ffffffffffffffffffffffffffffffffffffffff168373ffffffffffffffffffffffffffffffffffffffff161415611b4f57611b4a81611dda565b611b8e565b8173ffffffffffffffffffffffffffffffffffffffff168373ffffffffffffffffffffffffffffffffffffffff1614611b8d57611b8c8382611e23565b5b5b600073ffffffffffffffffffffffffffffffffffffffff168273ffffffffffffffffffffffffffffffffffffffff161415611bd157611bcc81611f90565b611c10565b8273ffffffffffffffffffffffffffffffffffffffff168273ffffffffffffffffffffffffffffffffffffffff1614611c0f57611c0e82826120d3565b5b5b505050565b600080823b905060008111915050919050565b60606000821415611c70576040518060400160405280600181526020017f30000000000000000000000000000000000000000000000000000000000000008152509050611dd0565b600082905060005b60008214611ca2578080611c8b90612f2e565b915050600a82611c9b9190612db0565b9150611c78565b60008167ffffffffffffffff811115611ce4577f4e487b7100000000000000000000000000000000000000000000000000000000600052604160045260246000fd5b6040519080825280601f01601f191660200182016040528015611d165781602001600182028036833780820191505090505b5090505b60008514611dc957600182611d2f9190612de1565b9150600a85611d3e9190612f77565b6030611d4a9190612d5a565b60f81b818381518110611d86577f4e487b7100000000000000000000000000000000000000000000000000000000600052603260045260246000fd5b60200101907effffffffffffffffffffffffffffffffffffffffffffffffffffffffffffff1916908160001a905350600a85611dc29190612db0565b9450611d1a565b8093505050505b919050565b505050565b600980549050600a600083815260200190815260200160002081905550600981908060018154018082558091505060019003906000526020600020016000909190919091505550565b60006001611e30846108df565b611e3a9190612de1565b9050600060086000848152602001908152602001600020549050818114611f1f576000600760008673ffffffffffffffffffffffffffffffffffffffff1673ffffffffffffffffffffffffffffffffffffffff168152602001908152602001600020600084815260200190815260200160002054905080600760008773ffffffffffffffffffffffffffffffffffffffff1673ffffffffffffffffffffffffffffffffffffffff168152602001908152602001600020600084815260200190815260200160002081905550816008600083815260200190815260200160002081905550505b6008600084815260200190815260200160002060009055600760008573ffffffffffffffffffffffffffffffffffffffff1673ffffffffffffffffffffffffffffffffffffffff16815260200190815260200160002060008381526020019081526020016000206000905550505050565b60006001600980549050611fa49190612de1565b90506000600a6000848152602001908152602001600020549050600060098381548110611ffa577f4e487b7100000000000000000000000000000000000000000000000000000000600052603260045260246000fd5b906000526020600020015490508060098381548110612042577f4e487b7100000000000000000000000000000000000000000000000000000000600052603260045260246000fd5b906000526020600020018190555081600a600083815260200190815260200160002081905550600a60008581526020019081526020016000206000905560098054806120b7577f4e487b7100000000000000000000000000000000000000000000000000000000600052603160045260246000fd5b6001900381819060005260206000200160009055905550505050565b60006120de836108df565b905081600760008573ffffffffffffffffffffffffffffffffffffffff1673ffffffffffffffffffffffffffffffffffffffff168152602001908152602001600020600083815260200190815260200160002081905550806008600084815260200190815260200160002081905550505050565b82805461215e90612ecb565b90600052602060002090601f01602090048101928261218057600085556121c7565b82601f1061219957805160ff19168380011785556121c7565b828001600101855582156121c7579182015b828111156121c65782518255916020019190600101906121ab565b5b5090506121d49190612218565b5090565b5080546121e490612ecb565b6000825580601f106121f65750612215565b601f0160209004906000526020600020908101906122149190612218565b5b50565b5b80821115612231576000816000905550600101612219565b5090565b600061224861224384612cb5565b612c90565b90508281526020810184848401111561226057600080fd5b61226b848285612e89565b509392505050565b600061228661228184612ce6565b612c90565b90508281526020810184848401111561229e57600080fd5b6122a9848285612e89565b509392505050565b6000813590506122c0816135e0565b92915050565b6000813590506122d5816135f7565b92915050565b6000813590506122ea8161360e565b92915050565b6000815190506122ff8161360e565b92915050565b600082601f83011261231657600080fd5b8135612326848260208601612235565b91505092915050565b600082601f83011261234057600080fd5b8135612350848260208601612273565b91505092915050565b60008135905061236881613625565b92915050565b60006020828403121561238057600080fd5b600061238e848285016122b1565b91505092915050565b600080604083850312156123aa57600080fd5b60006123b8858286016122b1565b92505060206123c9858286016122b1565b9150509250929050565b6000806000606084860312156123e857600080fd5b60006123f6868287016122b1565b9350506020612407868287016122b1565b925050604061241886828701612359565b9150509250925092565b6000806000806080858703121561243857600080fd5b6000612446878288016122b1565b9450506020612457878288016122b1565b935050604061246887828801612359565b925050606085013567ffffffffffffffff81111561248557600080fd5b61249187828801612305565b91505092959194509250565b600080604083850312156124b057600080fd5b60006124be858286016122b1565b92505060206124cf858286016122c6565b9150509250929050565b600080604083850312156124ec57600080fd5b60006124fa858286016122b1565b925050602083013567ffffffffffffffff81111561251757600080fd5b6125238582860161232f565b9150509250929050565b6000806040838503121561254057600080fd5b600061254e858286016122b1565b925050602061255f85828601612359565b9150509250929050565b60006020828403121561257b57600080fd5b6000612589848285016122db565b91505092915050565b6000602082840312156125a457600080fd5b60006125b2848285016122f0565b91505092915050565b6000602082840312156125cd57600080fd5b60006125db84828501612359565b91505092915050565b6125ed81612e15565b82525050565b6125fc81612e27565b82525050565b600061260d82612d17565b6126178185612d2d565b9350612627818560208601612e98565b61263081613064565b840191505092915050565b600061264682612d22565b6126508185612d3e565b9350612660818560208601612e98565b61266981613064565b840191505092915050565b600061267f82612d22565b6126898185612d4f565b9350612699818560208601612e98565b80840191505092915050565b60006126b2602b83612d3e565b91506126bd82613075565b604082019050919050565b60006126d5603283612d3e565b91506126e0826130c4565b604082019050919050565b60006126f8601c83612d3e565b915061270382613113565b602082019050919050565b600061271b602483612d3e565b91506127268261313c565b604082019050919050565b600061273e601983612d3e565b91506127498261318b565b602082019050919050565b6000612761602c83612d3e565b915061276c826131b4565b604082019050919050565b6000612784603883612d3e565b915061278f82613203565b604082019050919050565b60006127a7602a83612d3e565b91506127b282613252565b604082019050919050565b60006127ca602983612d3e565b91506127d5826132a1565b604082019050919050565b60006127ed602e83612d3e565b91506127f8826132f0565b604082019050919050565b6000612810602083612d3e565b915061281b8261333f565b602082019050919050565b6000612833603183612d3e565b915061283e82613368565b604082019050919050565b6000612856602c83612d3e565b9150612861826133b7565b604082019050919050565b6000612879602983612d3e565b915061288482613406565b604082019050919050565b600061289c602983612d3e565b91506128a782613455565b604082019050919050565b60006128bf602f83612d3e565b91506128ca826134a4565b604082019050919050565b60006128e2602183612d3e565b91506128ed826134f3565b604082019050919050565b6000612905603183612d3e565b915061291082613542565b604082019050919050565b6000612928602c83612d3e565b915061293382613591565b604082019050919050565b61294781612e7f565b82525050565b60006129598285612674565b91506129658284612674565b91508190509392505050565b600060208201905061298660008301846125e4565b92915050565b60006080820190506129a160008301876125e4565b6129ae60208301866125e4565b6129bb604083018561293e565b81810360608301526129cd8184612602565b905095945050505050565b60006020820190506129ed60008301846125f3565b92915050565b60006020820190508181036000830152612a0d818461263b565b905092915050565b60006020820190508181036000830152612a2e816126a5565b9050919050565b60006020820190508181036000830152612a4e816126c8565b9050919050565b60006020820190508181036000830152612a6e816126eb565b9050919050565b60006020820190508181036000830152612a8e8161270e565b9050919050565b60006020820190508181036000830152612aae81612731565b9050919050565b60006020820190508181036000830152612ace81612754565b9050919050565b60006020820190508181036000830152612aee81612777565b9050919050565b60006020820190508181036000830152612b0e8161279a565b9050919050565b60006020820190508181036000830152612b2e816127bd565b9050919050565b60006020820190508181036000830152612b4e816127e0565b9050919050565b60006020820190508181036000830152612b6e81612803565b9050919050565b60006020820190508181036000830152612b8e81612826565b9050919050565b60006020820190508181036000830152612bae81612849565b9050919050565b60006020820190508181036000830152612bce8161286c565b9050919050565b60006020820190508181036000830152612bee8161288f565b9050919050565b60006020820190508181036000830152612c0e816128b2565b9050919050565b60006020820190508181036000830152612c2e816128d5565b9050919050565b60006020820190508181036000830152612c4e816128f8565b9050919050565b60006020820190508181036000830152612c6e8161291b565b9050919050565b6000602082019050612c8a600083018461293e565b92915050565b6000612c9a612cab565b9050612ca68282612efd565b919050565b6000604051905090565b600067ffffffffffffffff821115612cd057612ccf613035565b5b612cd982613064565b9050602081019050919050565b600067ffffffffffffffff821115612d0157612d00613035565b5b612d0a82613064565b9050602081019050919050565b600081519050919050565b600081519050919050565b600082825260208201905092915050565b600082825260208201905092915050565b600081905092915050565b6000612d6582612e7f565b9150612d7083612e7f565b9250827fffffffffffffffffffffffffffffffffffffffffffffffffffffffffffffffff03821115612da557612da4612fa8565b5b828201905092915050565b6000612dbb82612e7f565b9150612dc683612e7f565b925082612dd657612dd5612fd7565b5b828204905092915050565b6000612dec82612e7f565b9150612df783612e7f565b925082821015612e0a57612e09612fa8565b5b828203905092915050565b6000612e2082612e5f565b9050919050565b60008115159050919050565b60007fffffffff0000000000000000000000000000000000000000000000000000000082169050919050565b600073ffffffffffffffffffffffffffffffffffffffff82169050919050565b6000819050919050565b82818337600083830152505050565b60005b83811015612eb6578082015181840152602081019050612e9b565b83811115612ec5576000848401525b50505050565b60006002820490506001821680612ee357607f821691505b60208210811415612ef757612ef6613006565b5b50919050565b612f0682613064565b810181811067ffffffffffffffff82111715612f2557612f24613035565b5b80604052505050565b6000612f3982612e7f565b91507fffffffffffffffffffffffffffffffffffffffffffffffffffffffffffffffff821415612f6c57612f6b612fa8565b5b600182019050919050565b6000612f8282612e7f565b9150612f8d83612e7f565b925082612f9d57612f9c612fd7565b5b828206905092915050565b7f4e487b7100000000000000000000000000000000000000000000000000000000600052601160045260246000fd5b7f4e487b7100000000000000000000000000000000000000000000000000000000600052601260045260246000fd5b7f4e487b7100000000000000000000000000000000000000000000000000000000600052602260045260246000fd5b7f4e487b7100000000000000000000000000000000000000000000000000000000600052604160045260246000fd5b6000601f19601f8301169050919050565b7f455243373231456e756d657261626c653a206f776e657220696e646578206f7560008201527f74206f6620626f756e6473000000000000000000000000000000000000000000602082015250565b7f4552433732313a207472616e7366657220746f206e6f6e20455243373231526560008201527f63656976657220696d706c656d656e7465720000000000000000000000000000602082015250565b7f4552433732313a20746f6b656e20616c7265616479206d696e74656400000000600082015250565b7f4552433732313a207472616e7366657220746f20746865207a65726f2061646460008201527f7265737300000000000000000000000000000000000000000000000000000000602082015250565b7f4552433732313a20617070726f766520746f2063616c6c657200000000000000600082015250565b7f4552433732313a206f70657261746f7220717565727920666f72206e6f6e657860008201527f697374656e7420746f6b656e0000000000000000000000000000000000000000602082015250565b7f4552433732313a20617070726f76652063616c6c6572206973206e6f74206f7760008201527f6e6572206e6f7220617070726f76656420666f7220616c6c0000000000000000602082015250565b7f4552433732313a2062616c616e636520717565727920666f7220746865207a6560008201527f726f206164647265737300000000000000000000000000000000000000000000602082015250565b7f4552433732313a206f776e657220717565727920666f72206e6f6e657869737460008201527f656e7420746f6b656e0000000000000000000000000000000000000000000000602082015250565b7f45524337323155524953746f726167653a2055524920736574206f66206e6f6e60008201527f6578697374656e7420746f6b656e000000000000000000000000000000000000602082015250565b7f4552433732313a206d696e7420746f20746865207a65726f2061646472657373600082015250565b7f45524337323155524953746f726167653a2055524920717565727920666f722060008201527f6e6f6e6578697374656e7420746f6b656e000000000000000000000000000000602082015250565b7f4552433732313a20617070726f76656420717565727920666f72206e6f6e657860008201527f697374656e7420746f6b656e0000000000000000000000000000000000000000602082015250565b7f43616c6c6572206973206e6f74206f776e6572206f66207468697320426f6f7360008201527f74657220746f6b656e0000000000000000000000000000000000000000000000602082015250565b7f4552433732313a207472616e73666572206f6620746f6b656e2074686174206960008201527f73206e6f74206f776e0000000000000000000000000000000000000000000000602082015250565b7f4552433732314d657461646174613a2055524920717565727920666f72206e6f60008201527f6e6578697374656e7420746f6b656e0000000000000000000000000000000000602082015250565b7f4552433732313a20617070726f76616c20746f2063757272656e74206f776e6560008201527f7200000000000000000000000000000000000000000000000000000000000000602082015250565b7f4552433732313a207472616e736665722063616c6c6572206973206e6f74206f60008201527f776e6572206e6f7220617070726f766564000000000000000000000000000000602082015250565b7f455243373231456e756d657261626c653a20676c6f62616c20696e646578206f60008201527f7574206f6620626f756e64730000000000000000000000000000000000000000602082015250565b6135e981612e15565b81146135f457600080fd5b50565b61360081612e27565b811461360b57600080fd5b50565b61361781612e33565b811461362257600080fd5b50565b61362e81612e7f565b811461363957600080fd5b5056fea26469706673582212203b79d2d8d57bf6f4ab90f1c62bb4bafdf11c08dbcce52362b1c87a102931d45c64736f6c6343000804003360806040523480156200001157600080fd5b506040518060400160405280600481526020017f466f6f64000000000000000000000000000000000000000000000000000000008152506040518060400160405280600481526020017f466f6f6400000000000000000000000000000000000000000000000000000000815250816000908051906020019062000096929190620000b8565b508060019080519060200190620000af929190620000b8565b505050620001cd565b828054620000c69062000168565b90600052602060002090601f016020900481019282620000ea576000855562000136565b82601f106200010557805160ff191683800117855562000136565b8280016001018555821562000136579182015b828111156200013557825182559160200191906001019062000118565b5b50905062000145919062000149565b5090565b5b80821115620001645760008160009055506001016200014a565b5090565b600060028204905060018216806200018157607f821691505b602082108114156200019857620001976200019e565b5b50919050565b7f4e487b7100000000000000000000000000000000000000000000000000000000600052602260045260246000fd5b6136f280620001dd6000396000f3fe608060405234801561001057600080fd5b50600436106101215760003560e01c80634f6ccce7116100ad57806395dbee2d1161007157806395dbee2d14610340578063a22cb4651461035c578063b88d4fde14610378578063c87b56dd14610394578063e985e9c5146103c457610121565b80634f6ccce7146102625780636352211e1461029257806370a08231146102c257806383451838146102f257806395d89b411461032257610121565b806318160ddd116100f457806318160ddd146101c05780631e9a6950146101de57806323b872dd146101fa5780632f745c591461021657806342842e0e1461024657610121565b806301ffc9a71461012657806306fdde0314610156578063081812fc14610174578063095ea7b3146101a4575b600080fd5b610140600480360381019061013b91906125e9565b6103f4565b60405161014d9190612a58565b60405180910390f35b61015e610406565b60405161016b9190612a73565b60405180910390f35b61018e6004803603810190610189919061263b565b610498565b60405161019b91906129f1565b60405180910390f35b6101be60048036038101906101b991906125ad565b61051d565b005b6101c8610635565b6040516101d59190612cf5565b60405180910390f35b6101f860048036038101906101f391906125ad565b610642565b005b610214600480360381019061020f9190612453565b610698565b005b610230600480360381019061022b91906125ad565b6106f8565b60405161023d9190612cf5565b60405180910390f35b610260600480360381019061025b9190612453565b61079d565b005b61027c6004803603810190610277919061263b565b6107bd565b6040516102899190612cf5565b60405180910390f35b6102ac60048036038101906102a7919061263b565b610854565b6040516102b991906129f1565b60405180910390f35b6102dc60048036038101906102d791906123ee565b610906565b6040516102e99190612cf5565b60405180910390f35b61030c60048036038101906103079190612559565b6109be565b6040516103199190612cf5565b60405180910390f35b61032a6109f5565b6040516103379190612a73565b60405180910390f35b61035a60048036038101906103559190612453565b610a87565b005b6103766004803603810190610371919061251d565b610ae0565b005b610392600480360381019061038d91906124a2565b610af6565b005b6103ae60048036038101906103a9919061263b565b610b58565b6040516103bb9190612a73565b60405180910390f35b6103de60048036038101906103d99190612417565b610b6a565b6040516103eb9190612a58565b60405180910390f35b60006103ff82610bfe565b9050919050565b60606000805461041590612f4b565b80601f016020809104026020016040519081016040528092919081815260200182805461044190612f4b565b801561048e5780601f106104635761010080835404028352916020019161048e565b820191906000526020600020905b81548152906001019060200180831161047157829003601f168201915b5050505050905090565b60006104a382610c78565b6104e2576040517f08c379a00000000000000000000000000000000000000000000000000000000081526004016104d990612c35565b60405180910390fd5b6004600083815260200190815260200160002060009054906101000a900473ffffffffffffffffffffffffffffffffffffffff169050919050565b600061052882610854565b90508073ffffffffffffffffffffffffffffffffffffffff168373ffffffffffffffffffffffffffffffffffffffff161415610599576040517f08c379a000000000000000000000000000000000000000000000000000000000815260040161059090612c95565b60405180910390fd5b8073ffffffffffffffffffffffffffffffffffffffff166105b8610ce4565b73ffffffffffffffffffffffffffffffffffffffff1614806105e757506105e6816105e1610ce4565b610b6a565b5b610626576040517f08c379a000000000000000000000000000000000000000000000000000000000815260040161061d90612b75565b60405180910390fd5b6106308383610cec565b505050565b6000600980549050905090565b61064c8282610da5565b61068b576040517f08c379a000000000000000000000000000000000000000000000000000000000815260040161068290612a95565b60405180910390fd5b61069481610e83565b5050565b6106a96106a3610ce4565b82610da5565b6106e8576040517f08c379a00000000000000000000000000000000000000000000000000000000081526004016106df90612cb5565b60405180910390fd5b6106f3838383610e8f565b505050565b600061070383610906565b8210610744576040517f08c379a000000000000000000000000000000000000000000000000000000000815260040161073b90612ab5565b60405180910390fd5b600760008473ffffffffffffffffffffffffffffffffffffffff1673ffffffffffffffffffffffffffffffffffffffff168152602001908152602001600020600083815260200190815260200160002054905092915050565b6107b883838360405180602001604052806000815250610af6565b505050565b60006107c7610635565b8210610808576040517f08c379a00000000000000000000000000000000000000000000000000000000081526004016107ff90612cd5565b60405180910390fd5b60098281548110610842577f4e487b7100000000000000000000000000000000000000000000000000000000600052603260045260246000fd5b90600052602060002001549050919050565b6000806002600084815260200190815260200160002060009054906101000a900473ffffffffffffffffffffffffffffffffffffffff169050600073ffffffffffffffffffffffffffffffffffffffff168173ffffffffffffffffffffffffffffffffffffffff1614156108fd576040517f08c379a00000000000000000000000000000000000000000000000000000000081526004016108f490612bb5565b60405180910390fd5b80915050919050565b60008073ffffffffffffffffffffffffffffffffffffffff168273ffffffffffffffffffffffffffffffffffffffff161415610977576040517f08c379a000000000000000000000000000000000000000000000000000000000815260040161096e90612b95565b60405180910390fd5b600360008373ffffffffffffffffffffffffffffffffffffffff1673ffffffffffffffffffffffffffffffffffffffff168152602001908152602001600020549050919050565b6000806109cb600b6110eb565b90506109d7600b6110f9565b6109e1848261110f565b6109eb81846112dd565b8091505092915050565b606060018054610a0490612f4b565b80601f0160208091040260200160405190810160405280929190818152602001828054610a3090612f4b565b8015610a7d5780601f10610a5257610100808354040283529160200191610a7d565b820191906000526020600020905b815481529060010190602001808311610a6057829003601f168201915b5050505050905090565b610a918382610da5565b610ad0576040517f08c379a0000000000000000000000000000000000000000000000000000000008152600401610ac790612a95565b60405180910390fd5b610adb838383610e8f565b505050565b610af2610aeb610ce4565b8383611351565b5050565b610b07610b01610ce4565b83610da5565b610b46576040517f08c379a0000000000000000000000000000000000000000000000000000000008152600401610b3d90612cb5565b60405180910390fd5b610b52848484846114be565b50505050565b6060610b638261151a565b9050919050565b6000600560008473ffffffffffffffffffffffffffffffffffffffff1673ffffffffffffffffffffffffffffffffffffffff16815260200190815260200160002060008373ffffffffffffffffffffffffffffffffffffffff1673ffffffffffffffffffffffffffffffffffffffff16815260200190815260200160002060009054906101000a900460ff16905092915050565b60007f780e9d63000000000000000000000000000000000000000000000000000000007bffffffffffffffffffffffffffffffffffffffffffffffffffffffff1916827bffffffffffffffffffffffffffffffffffffffffffffffffffffffff19161480610c715750610c708261166c565b5b9050919050565b60008073ffffffffffffffffffffffffffffffffffffffff166002600084815260200190815260200160002060009054906101000a900473ffffffffffffffffffffffffffffffffffffffff1673ffffffffffffffffffffffffffffffffffffffff1614159050919050565b600033905090565b816004600083815260200190815260200160002060006101000a81548173ffffffffffffffffffffffffffffffffffffffff021916908373ffffffffffffffffffffffffffffffffffffffff160217905550808273ffffffffffffffffffffffffffffffffffffffff16610d5f83610854565b73ffffffffffffffffffffffffffffffffffffffff167f8c5be1e5ebec7d5bd14f71427d1e84f3dd0314c0f7b2291e5b200ac8c7c3b92560405160405180910390a45050565b6000610db082610c78565b610def576040517f08c379a0000000000000000000000000000000000000000000000000000000008152600401610de690612b55565b60405180910390fd5b6000610dfa83610854565b90508073ffffffffffffffffffffffffffffffffffffffff168473ffffffffffffffffffffffffffffffffffffffff161480610e6957508373ffffffffffffffffffffffffffffffffffffffff16610e5184610498565b73ffffffffffffffffffffffffffffffffffffffff16145b80610e7a5750610e798185610b6a565b5b91505092915050565b610e8c8161174e565b50565b8273ffffffffffffffffffffffffffffffffffffffff16610eaf82610854565b73ffffffffffffffffffffffffffffffffffffffff1614610f05576040517f08c379a0000000000000000000000000000000000000000000000000000000008152600401610efc90612c55565b60405180910390fd5b600073ffffffffffffffffffffffffffffffffffffffff168273ffffffffffffffffffffffffffffffffffffffff161415610f75576040517f08c379a0000000000000000000000000000000000000000000000000000000008152600401610f6c90612b15565b60405180910390fd5b610f808383836117a1565b610f8b600082610cec565b6001600360008573ffffffffffffffffffffffffffffffffffffffff1673ffffffffffffffffffffffffffffffffffffffff1681526020019081526020016000206000828254610fdb9190612e61565b925050819055506001600360008473ffffffffffffffffffffffffffffffffffffffff1673ffffffffffffffffffffffffffffffffffffffff16815260200190815260200160002060008282546110329190612dda565b92505081905550816002600083815260200190815260200160002060006101000a81548173ffffffffffffffffffffffffffffffffffffffff021916908373ffffffffffffffffffffffffffffffffffffffff160217905550808273ffffffffffffffffffffffffffffffffffffffff168473ffffffffffffffffffffffffffffffffffffffff167fddf252ad1be2c89b69c2b068fc378daa952ba7f163c4a11628f55a4df523b3ef60405160405180910390a4505050565b600081600001549050919050565b6001816000016000828254019250508190555050565b600073ffffffffffffffffffffffffffffffffffffffff168273ffffffffffffffffffffffffffffffffffffffff16141561117f576040517f08c379a000000000000000000000000000000000000000000000000000000000815260040161117690612bf5565b60405180910390fd5b61118881610c78565b156111c8576040517f08c379a00000000000000000000000000000000000000000000000000000000081526004016111bf90612af5565b60405180910390fd5b6111d4600083836117a1565b6001600360008473ffffffffffffffffffffffffffffffffffffffff1673ffffffffffffffffffffffffffffffffffffffff16815260200190815260200160002060008282546112249190612dda565b92505081905550816002600083815260200190815260200160002060006101000a81548173ffffffffffffffffffffffffffffffffffffffff021916908373ffffffffffffffffffffffffffffffffffffffff160217905550808273ffffffffffffffffffffffffffffffffffffffff16600073ffffffffffffffffffffffffffffffffffffffff167fddf252ad1be2c89b69c2b068fc378daa952ba7f163c4a11628f55a4df523b3ef60405160405180910390a45050565b6112e682610c78565b611325576040517f08c379a000000000000000000000000000000000000000000000000000000000815260040161131c90612bd5565b60405180910390fd5b8060066000848152602001908152602001600020908051906020019061134c9291906121d2565b505050565b8173ffffffffffffffffffffffffffffffffffffffff168373ffffffffffffffffffffffffffffffffffffffff1614156113c0576040517f08c379a00000000000000000000000000000000000000000000000000000000081526004016113b790612b35565b60405180910390fd5b80600560008573ffffffffffffffffffffffffffffffffffffffff1673ffffffffffffffffffffffffffffffffffffffff16815260200190815260200160002060008473ffffffffffffffffffffffffffffffffffffffff1673ffffffffffffffffffffffffffffffffffffffff16815260200190815260200160002060006101000a81548160ff0219169083151502179055508173ffffffffffffffffffffffffffffffffffffffff168373ffffffffffffffffffffffffffffffffffffffff167f17307eab39ab6107e8899845ad3d59bd9653f200f220920489ca2b5937696c31836040516114b19190612a58565b60405180910390a3505050565b6114c9848484610e8f565b6114d5848484846117b1565b611514576040517f08c379a000000000000000000000000000000000000000000000000000000000815260040161150b90612ad5565b60405180910390fd5b50505050565b606061152582610c78565b611564576040517f08c379a000000000000000000000000000000000000000000000000000000000815260040161155b90612c15565b60405180910390fd5b600060066000848152602001908152602001600020805461158490612f4b565b80601f01602080910402602001604051908101604052809291908181526020018280546115b090612f4b565b80156115fd5780601f106115d2576101008083540402835291602001916115fd565b820191906000526020600020905b8154815290600101906020018083116115e057829003601f168201915b50505050509050600061160e611948565b9050600081511415611624578192505050611667565b6000825111156116595780826040516020016116419291906129cd565b60405160208183030381529060405292505050611667565b6116628461195f565b925050505b919050565b60007f80ac58cd000000000000000000000000000000000000000000000000000000007bffffffffffffffffffffffffffffffffffffffffffffffffffffffff1916827bffffffffffffffffffffffffffffffffffffffffffffffffffffffff1916148061173757507f5b5e139f000000000000000000000000000000000000000000000000000000007bffffffffffffffffffffffffffffffffffffffffffffffffffffffff1916827bffffffffffffffffffffffffffffffffffffffffffffffffffffffff1916145b80611747575061174682611a06565b5b9050919050565b61175781611a70565b600060066000838152602001908152602001600020805461177790612f4b565b90501461179e5760066000828152602001908152602001600020600061179d9190612258565b5b50565b6117ac838383611b81565b505050565b60006117d28473ffffffffffffffffffffffffffffffffffffffff16611c95565b1561193b578373ffffffffffffffffffffffffffffffffffffffff1663150b7a026117fb610ce4565b8786866040518563ffffffff1660e01b815260040161181d9493929190612a0c565b602060405180830381600087803b15801561183757600080fd5b505af192505050801561186857506040513d601f19601f820116820180604052508101906118659190612612565b60015b6118eb573d8060008114611898576040519150601f19603f3d011682016040523d82523d6000602084013e61189d565b606091505b506000815114156118e3576040517f08c379a00000000000000000000000000000000000000000000000000000000081526004016118da90612ad5565b60405180910390fd5b805181602001fd5b63150b7a0260e01b7bffffffffffffffffffffffffffffffffffffffffffffffffffffffff1916817bffffffffffffffffffffffffffffffffffffffffffffffffffffffff191614915050611940565b600190505b949350505050565b606060405180602001604052806000815250905090565b606061196a82610c78565b6119a9576040517f08c379a00000000000000000000000000000000000000000000000000000000081526004016119a090612c75565b60405180910390fd5b60006119b3611948565b905060008151116119d357604051806020016040528060008152506119fe565b806119dd84611ca8565b6040516020016119ee9291906129cd565b6040516020818303038152906040525b915050919050565b60007f01ffc9a7000000000000000000000000000000000000000000000000000000007bffffffffffffffffffffffffffffffffffffffffffffffffffffffff1916827bffffffffffffffffffffffffffffffffffffffffffffffffffffffff1916149050919050565b6000611a7b82610854565b9050611a89816000846117a1565b611a94600083610cec565b6001600360008373ffffffffffffffffffffffffffffffffffffffff1673ffffffffffffffffffffffffffffffffffffffff1681526020019081526020016000206000828254611ae49190612e61565b925050819055506002600083815260200190815260200160002060006101000a81549073ffffffffffffffffffffffffffffffffffffffff021916905581600073ffffffffffffffffffffffffffffffffffffffff168273ffffffffffffffffffffffffffffffffffffffff167fddf252ad1be2c89b69c2b068fc378daa952ba7f163c4a11628f55a4df523b3ef60405160405180910390a45050565b611b8c838383611e55565b600073ffffffffffffffffffffffffffffffffffffffff168373ffffffffffffffffffffffffffffffffffffffff161415611bcf57611bca81611e5a565b611c0e565b8173ffffffffffffffffffffffffffffffffffffffff168373ffffffffffffffffffffffffffffffffffffffff1614611c0d57611c0c8382611ea3565b5b5b600073ffffffffffffffffffffffffffffffffffffffff168273ffffffffffffffffffffffffffffffffffffffff161415611c5157611c4c81612010565b611c90565b8273ffffffffffffffffffffffffffffffffffffffff168273ffffffffffffffffffffffffffffffffffffffff1614611c8f57611c8e8282612153565b5b5b505050565b600080823b905060008111915050919050565b60606000821415611cf0576040518060400160405280600181526020017f30000000000000000000000000000000000000000000000000000000000000008152509050611e50565b600082905060005b60008214611d22578080611d0b90612fae565b915050600a82611d1b9190612e30565b9150611cf8565b60008167ffffffffffffffff811115611d64577f4e487b7100000000000000000000000000000000000000000000000000000000600052604160045260246000fd5b6040519080825280601f01601f191660200182016040528015611d965781602001600182028036833780820191505090505b5090505b60008514611e4957600182611daf9190612e61565b9150600a85611dbe9190612ff7565b6030611dca9190612dda565b60f81b818381518110611e06577f4e487b7100000000000000000000000000000000000000000000000000000000600052603260045260246000fd5b60200101907effffffffffffffffffffffffffffffffffffffffffffffffffffffffffffff1916908160001a905350600a85611e429190612e30565b9450611d9a565b8093505050505b919050565b505050565b600980549050600a600083815260200190815260200160002081905550600981908060018154018082558091505060019003906000526020600020016000909190919091505550565b60006001611eb084610906565b611eba9190612e61565b9050600060086000848152602001908152602001600020549050818114611f9f576000600760008673ffffffffffffffffffffffffffffffffffffffff1673ffffffffffffffffffffffffffffffffffffffff168152602001908152602001600020600084815260200190815260200160002054905080600760008773ffffffffffffffffffffffffffffffffffffffff1673ffffffffffffffffffffffffffffffffffffffff168152602001908152602001600020600084815260200190815260200160002081905550816008600083815260200190815260200160002081905550505b6008600084815260200190815260200160002060009055600760008573ffffffffffffffffffffffffffffffffffffffff1673ffffffffffffffffffffffffffffffffffffffff16815260200190815260200160002060008381526020019081526020016000206000905550505050565b600060016009805490506120249190612e61565b90506000600a600084815260200190815260200160002054905060006009838154811061207a577f4e487b7100000000000000000000000000000000000000000000000000000000600052603260045260246000fd5b9060005260206000200154905080600983815481106120c2577f4e487b7100000000000000000000000000000000000000000000000000000000600052603260045260246000fd5b906000526020600020018190555081600a600083815260200190815260200160002081905550600a6000858152602001908152602001600020600090556009805480612137577f4e487b7100000000000000000000000000000000000000000000000000000000600052603160045260246000fd5b6001900381819060005260206000200160009055905550505050565b600061215e83610906565b905081600760008573ffffffffffffffffffffffffffffffffffffffff1673ffffffffffffffffffffffffffffffffffffffff168152602001908152602001600020600083815260200190815260200160002081905550806008600084815260200190815260200160002081905550505050565b8280546121de90612f4b565b90600052602060002090601f0160209004810192826122005760008555612247565b82601f1061221957805160ff1916838001178555612247565b82800160010185558215612247579182015b8281111561224657825182559160200191906001019061222b565b5b5090506122549190612298565b5090565b50805461226490612f4b565b6000825580601f106122765750612295565b601f0160209004906000526020600020908101906122949190612298565b5b50565b5b808211156122b1576000816000905550600101612299565b5090565b60006122c86122c384612d35565b612d10565b9050828152602081018484840111156122e057600080fd5b6122eb848285612f09565b509392505050565b600061230661230184612d66565b612d10565b90508281526020810184848401111561231e57600080fd5b612329848285612f09565b509392505050565b60008135905061234081613660565b92915050565b60008135905061235581613677565b92915050565b60008135905061236a8161368e565b92915050565b60008151905061237f8161368e565b92915050565b600082601f83011261239657600080fd5b81356123a68482602086016122b5565b91505092915050565b600082601f8301126123c057600080fd5b81356123d08482602086016122f3565b91505092915050565b6000813590506123e8816136a5565b92915050565b60006020828403121561240057600080fd5b600061240e84828501612331565b91505092915050565b6000806040838503121561242a57600080fd5b600061243885828601612331565b925050602061244985828601612331565b9150509250929050565b60008060006060848603121561246857600080fd5b600061247686828701612331565b935050602061248786828701612331565b9250506040612498868287016123d9565b9150509250925092565b600080600080608085870312156124b857600080fd5b60006124c687828801612331565b94505060206124d787828801612331565b93505060406124e8878288016123d9565b925050606085013567ffffffffffffffff81111561250557600080fd5b61251187828801612385565b91505092959194509250565b6000806040838503121561253057600080fd5b600061253e85828601612331565b925050602061254f85828601612346565b9150509250929050565b6000806040838503121561256c57600080fd5b600061257a85828601612331565b925050602083013567ffffffffffffffff81111561259757600080fd5b6125a3858286016123af565b9150509250929050565b600080604083850312156125c057600080fd5b60006125ce85828601612331565b92505060206125df858286016123d9565b9150509250929050565b6000602082840312156125fb57600080fd5b60006126098482850161235b565b91505092915050565b60006020828403121561262457600080fd5b600061263284828501612370565b91505092915050565b60006020828403121561264d57600080fd5b600061265b848285016123d9565b91505092915050565b61266d81612e95565b82525050565b61267c81612ea7565b82525050565b600061268d82612d97565b6126978185612dad565b93506126a7818560208601612f18565b6126b0816130e4565b840191505092915050565b60006126c682612da2565b6126d08185612dbe565b93506126e0818560208601612f18565b6126e9816130e4565b840191505092915050565b60006126ff82612da2565b6127098185612dcf565b9350612719818560208601612f18565b80840191505092915050565b6000612732602683612dbe565b915061273d826130f5565b604082019050919050565b6000612755602b83612dbe565b915061276082613144565b604082019050919050565b6000612778603283612dbe565b915061278382613193565b604082019050919050565b600061279b601c83612dbe565b91506127a6826131e2565b602082019050919050565b60006127be602483612dbe565b91506127c98261320b565b604082019050919050565b60006127e1601983612dbe565b91506127ec8261325a565b602082019050919050565b6000612804602c83612dbe565b915061280f82613283565b604082019050919050565b6000612827603883612dbe565b9150612832826132d2565b604082019050919050565b600061284a602a83612dbe565b915061285582613321565b604082019050919050565b600061286d602983612dbe565b915061287882613370565b604082019050919050565b6000612890602e83612dbe565b915061289b826133bf565b604082019050919050565b60006128b3602083612dbe565b91506128be8261340e565b602082019050919050565b60006128d6603183612dbe565b91506128e182613437565b604082019050919050565b60006128f9602c83612dbe565b915061290482613486565b604082019050919050565b600061291c602983612dbe565b9150612927826134d5565b604082019050919050565b600061293f602f83612dbe565b915061294a82613524565b604082019050919050565b6000612962602183612dbe565b915061296d82613573565b604082019050919050565b6000612985603183612dbe565b9150612990826135c2565b604082019050919050565b60006129a8602c83612dbe565b91506129b382613611565b604082019050919050565b6129c781612eff565b82525050565b60006129d982856126f4565b91506129e582846126f4565b91508190509392505050565b6000602082019050612a066000830184612664565b92915050565b6000608082019050612a216000830187612664565b612a2e6020830186612664565b612a3b60408301856129be565b8181036060830152612a4d8184612682565b905095945050505050565b6000602082019050612a6d6000830184612673565b92915050565b60006020820190508181036000830152612a8d81846126bb565b905092915050565b60006020820190508181036000830152612aae81612725565b9050919050565b60006020820190508181036000830152612ace81612748565b9050919050565b60006020820190508181036000830152612aee8161276b565b9050919050565b60006020820190508181036000830152612b0e8161278e565b9050919050565b60006020820190508181036000830152612b2e816127b1565b9050919050565b60006020820190508181036000830152612b4e816127d4565b9050919050565b60006020820190508181036000830152612b6e816127f7565b9050919050565b60006020820190508181036000830152612b8e8161281a565b9050919050565b60006020820190508181036000830152612bae8161283d565b9050919050565b60006020820190508181036000830152612bce81612860565b9050919050565b60006020820190508181036000830152612bee81612883565b9050919050565b60006020820190508181036000830152612c0e816128a6565b9050919050565b60006020820190508181036000830152612c2e816128c9565b9050919050565b60006020820190508181036000830152612c4e816128ec565b9050919050565b60006020820190508181036000830152612c6e8161290f565b9050919050565b60006020820190508181036000830152612c8e81612932565b9050919050565b60006020820190508181036000830152612cae81612955565b9050919050565b60006020820190508181036000830152612cce81612978565b9050919050565b60006020820190508181036000830152612cee8161299b565b9050919050565b6000602082019050612d0a60008301846129be565b92915050565b6000612d1a612d2b565b9050612d268282612f7d565b919050565b6000604051905090565b600067ffffffffffffffff821115612d5057612d4f6130b5565b5b612d59826130e4565b9050602081019050919050565b600067ffffffffffffffff821115612d8157612d806130b5565b5b612d8a826130e4565b9050602081019050919050565b600081519050919050565b600081519050919050565b600082825260208201905092915050565b600082825260208201905092915050565b600081905092915050565b6000612de582612eff565b9150612df083612eff565b9250827fffffffffffffffffffffffffffffffffffffffffffffffffffffffffffffffff03821115612e2557612e24613028565b5b828201905092915050565b6000612e3b82612eff565b9150612e4683612eff565b925082612e5657612e55613057565b5b828204905092915050565b6000612e6c82612eff565b9150612e7783612eff565b925082821015612e8a57612e89613028565b5b828203905092915050565b6000612ea082612edf565b9050919050565b60008115159050919050565b60007fffffffff0000000000000000000000000000000000000000000000000000000082169050919050565b600073ffffffffffffffffffffffffffffffffffffffff82169050919050565b6000819050919050565b82818337600083830152505050565b60005b83811015612f36578082015181840152602081019050612f1b565b83811115612f45576000848401525b50505050565b60006002820490506001821680612f6357607f821691505b60208210811415612f7757612f76613086565b5b50919050565b612f86826130e4565b810181811067ffffffffffffffff82111715612fa557612fa46130b5565b5b80604052505050565b6000612fb982612eff565b91507fffffffffffffffffffffffffffffffffffffffffffffffffffffffffffffffff821415612fec57612feb613028565b5b600182019050919050565b600061300282612eff565b915061300d83612eff565b92508261301d5761301c613057565b5b828206905092915050565b7f4e487b7100000000000000000000000000000000000000000000000000000000600052601160045260246000fd5b7f4e487b7100000000000000000000000000000000000000000000000000000000600052601260045260246000fd5b7f4e487b7100000000000000000000000000000000000000000000000000000000600052602260045260246000fd5b7f4e487b7100000000000000000000000000000000000000000000000000000000600052604160045260246000fd5b6000601f19601f8301169050919050565b7f43616c6c6572206973206e6f74206f776e6572206f66207468697320466f6f6460008201527f20746f6b656e0000000000000000000000000000000000000000000000000000602082015250565b7f455243373231456e756d657261626c653a206f776e657220696e646578206f7560008201527f74206f6620626f756e6473000000000000000000000000000000000000000000602082015250565b7f4552433732313a207472616e7366657220746f206e6f6e20455243373231526560008201527f63656976657220696d706c656d656e7465720000000000000000000000000000602082015250565b7f4552433732313a20746f6b656e20616c7265616479206d696e74656400000000600082015250565b7f4552433732313a207472616e7366657220746f20746865207a65726f2061646460008201527f7265737300000000000000000000000000000000000000000000000000000000602082015250565b7f4552433732313a20617070726f766520746f2063616c6c657200000000000000600082015250565b7f4552433732313a206f70657261746f7220717565727920666f72206e6f6e657860008201527f697374656e7420746f6b656e0000000000000000000000000000000000000000602082015250565b7f4552433732313a20617070726f76652063616c6c6572206973206e6f74206f7760008201527f6e6572206e6f7220617070726f76656420666f7220616c6c0000000000000000602082015250565b7f4552433732313a2062616c616e636520717565727920666f7220746865207a6560008201527f726f206164647265737300000000000000000000000000000000000000000000602082015250565b7f4552433732313a206f776e657220717565727920666f72206e6f6e657869737460008201527f656e7420746f6b656e0000000000000000000000000000000000000000000000602082015250565b7f45524337323155524953746f726167653a2055524920736574206f66206e6f6e60008201527f6578697374656e7420746f6b656e000000000000000000000000000000000000602082015250565b7f4552433732313a206d696e7420746f20746865207a65726f2061646472657373600082015250565b7f45524337323155524953746f726167653a2055524920717565727920666f722060008201527f6e6f6e6578697374656e7420746f6b656e000000000000000000000000000000602082015250565b7f4552433732313a20617070726f76656420717565727920666f72206e6f6e657860008201527f697374656e7420746f6b656e0000000000000000000000000000000000000000602082015250565b7f4552433732313a207472616e73666572206f6620746f6b656e2074686174206960008201527f73206e6f74206f776e0000000000000000000000000000000000000000000000602082015250565b7f4552433732314d657461646174613a2055524920717565727920666f72206e6f60008201527f6e6578697374656e7420746f6b656e0000000000000000000000000000000000602082015250565b7f4552433732313a20617070726f76616c20746f2063757272656e74206f776e6560008201527f7200000000000000000000000000000000000000000000000000000000000000602082015250565b7f4552433732313a207472616e736665722063616c6c6572206973206e6f74206f60008201527f776e6572206e6f7220617070726f766564000000000000000000000000000000602082015250565b7f455243373231456e756d657261626c653a20676c6f62616c20696e646578206f60008201527f7574206f6620626f756e64730000000000000000000000000000000000000000602082015250565b61366981612e95565b811461367457600080fd5b50565b61368081612ea7565b811461368b57600080fd5b50565b61369781612eb3565b81146136a257600080fd5b50565b6136ae81612eff565b81146136b957600080fd5b5056fea26469706673582212203edb59769b341af19e6261da182257391f2eb137290684bc32038a5bad6f8d7464736f6c6343000804003360806040523480156200001157600080fd5b506040518060400160405280600781526020017f566f7563686572000000000000000000000000000000000000000000000000008152506040518060400160405280600781526020017f566f756368657200000000000000000000000000000000000000000000000000815250816000908051906020019062000096929190620000b8565b508060019080519060200190620000af929190620000b8565b505050620001cd565b828054620000c69062000168565b90600052602060002090601f016020900481019282620000ea576000855562000136565b82601f106200010557805160ff191683800117855562000136565b8280016001018555821562000136579182015b828111156200013557825182559160200191906001019062000118565b5b50905062000145919062000149565b5090565b5b80821115620001645760008160009055506001016200014a565b5090565b600060028204905060018216806200018157607f821691505b602082108114156200019857620001976200019e565b5b50919050565b7f4e487b7100000000000000000000000000000000000000000000000000000000600052602260045260246000fd5b6136f280620001dd6000396000f3fe608060405234801561001057600080fd5b50600436106101215760003560e01c80634f6ccce7116100ad57806395dbee2d1161007157806395dbee2d14610340578063a22cb4651461035c578063b88d4fde14610378578063c87b56dd14610394578063e985e9c5146103c457610121565b80634f6ccce7146102625780636352211e1461029257806370a08231146102c257806383451838146102f257806395d89b411461032257610121565b806318160ddd116100f457806318160ddd146101c05780631e9a6950146101de57806323b872dd146101fa5780632f745c591461021657806342842e0e1461024657610121565b806301ffc9a71461012657806306fdde0314610156578063081812fc14610174578063095ea7b3146101a4575b600080fd5b610140600480360381019061013b91906125e9565b6103f4565b60405161014d9190612a58565b60405180910390f35b61015e610406565b60405161016b9190612a73565b60405180910390f35b61018e6004803603810190610189919061263b565b610498565b60405161019b91906129f1565b60405180910390f35b6101be60048036038101906101b991906125ad565b61051d565b005b6101c8610635565b6040516101d59190612cf5565b60405180910390f35b6101f860048036038101906101f391906125ad565b610642565b005b610214600480360381019061020f9190612453565b610698565b005b610230600480360381019061022b91906125ad565b6106f8565b60405161023d9190612cf5565b60405180910390f35b610260600480360381019061025b9190612453565b61079d565b005b61027c6004803603810190610277919061263b565b6107bd565b6040516102899190612cf5565b60405180910390f35b6102ac60048036038101906102a7919061263b565b610854565b6040516102b991906129f1565b60405180910390f35b6102dc60048036038101906102d791906123ee565b610906565b6040516102e99190612cf5565b60405180910390f35b61030c60048036038101906103079190612559565b6109be565b6040516103199190612cf5565b60405180910390f35b61032a6109f5565b6040516103379190612a73565b60405180910390f35b61035a60048036038101906103559190612453565b610a87565b005b6103766004803603810190610371919061251d565b610ae0565b005b610392600480360381019061038d91906124a2565b610af6565b005b6103ae60048036038101906103a9919061263b565b610b58565b6040516103bb9190612a73565b60405180910390f35b6103de60048036038101906103d99190612417565b610b6a565b6040516103eb9190612a58565b60405180910390f35b60006103ff82610bfe565b9050919050565b60606000805461041590612f4b565b80601f016020809104026020016040519081016040528092919081815260200182805461044190612f4b565b801561048e5780601f106104635761010080835404028352916020019161048e565b820191906000526020600020905b81548152906001019060200180831161047157829003601f168201915b5050505050905090565b60006104a382610c78565b6104e2576040517f08c379a00000000000000000000000000000000000000000000000000000000081526004016104d990612c35565b60405180910390fd5b6004600083815260200190815260200160002060009054906101000a900473ffffffffffffffffffffffffffffffffffffffff169050919050565b600061052882610854565b90508073ffffffffffffffffffffffffffffffffffffffff168373ffffffffffffffffffffffffffffffffffffffff161415610599576040517f08c379a000000000000000000000000000000000000000000000000000000000815260040161059090612c95565b60405180910390fd5b8073ffffffffffffffffffffffffffffffffffffffff166105b8610ce4565b73ffffffffffffffffffffffffffffffffffffffff1614806105e757506105e6816105e1610ce4565b610b6a565b5b610626576040517f08c379a000000000000000000000000000000000000000000000000000000000815260040161061d90612b75565b60405180910390fd5b6106308383610cec565b505050565b6000600980549050905090565b61064c8282610da5565b61068b576040517f08c379a000000000000000000000000000000000000000000000000000000000815260040161068290612b35565b60405180910390fd5b61069481610e83565b5050565b6106a96106a3610ce4565b82610da5565b6106e8576040517f08c379a00000000000000000000000000000000000000000000000000000000081526004016106df90612cb5565b60405180910390fd5b6106f3838383610e8f565b505050565b600061070383610906565b8210610744576040517f08c379a000000000000000000000000000000000000000000000000000000000815260040161073b90612a95565b60405180910390fd5b600760008473ffffffffffffffffffffffffffffffffffffffff1673ffffffffffffffffffffffffffffffffffffffff168152602001908152602001600020600083815260200190815260200160002054905092915050565b6107b883838360405180602001604052806000815250610af6565b505050565b60006107c7610635565b8210610808576040517f08c379a00000000000000000000000000000000000000000000000000000000081526004016107ff90612cd5565b60405180910390fd5b60098281548110610842577f4e487b7100000000000000000000000000000000000000000000000000000000600052603260045260246000fd5b90600052602060002001549050919050565b6000806002600084815260200190815260200160002060009054906101000a900473ffffffffffffffffffffffffffffffffffffffff169050600073ffffffffffffffffffffffffffffffffffffffff168173ffffffffffffffffffffffffffffffffffffffff1614156108fd576040517f08c379a00000000000000000000000000000000000000000000000000000000081526004016108f490612bb5565b60405180910390fd5b80915050919050565b60008073ffffffffffffffffffffffffffffffffffffffff168273ffffffffffffffffffffffffffffffffffffffff161415610977576040517f08c379a000000000000000000000000000000000000000000000000000000000815260040161096e90612b95565b60405180910390fd5b600360008373ffffffffffffffffffffffffffffffffffffffff1673ffffffffffffffffffffffffffffffffffffffff168152602001908152602001600020549050919050565b6000806109cb600b6110eb565b90506109d7600b6110f9565b6109e1848261110f565b6109eb81846112dd565b8091505092915050565b606060018054610a0490612f4b565b80601f0160208091040260200160405190810160405280929190818152602001828054610a3090612f4b565b8015610a7d5780601f10610a5257610100808354040283529160200191610a7d565b820191906000526020600020905b815481529060010190602001808311610a6057829003601f168201915b5050505050905090565b610a918382610da5565b610ad0576040517f08c379a0000000000000000000000000000000000000000000000000000000008152600401610ac790612b35565b60405180910390fd5b610adb838383610e8f565b505050565b610af2610aeb610ce4565b8383611351565b5050565b610b07610b01610ce4565b83610da5565b610b46576040517f08c379a0000000000000000000000000000000000000000000000000000000008152600401610b3d90612cb5565b60405180910390fd5b610b52848484846114be565b50505050565b6060610b638261151a565b9050919050565b6000600560008473ffffffffffffffffffffffffffffffffffffffff1673ffffffffffffffffffffffffffffffffffffffff16815260200190815260200160002060008373ffffffffffffffffffffffffffffffffffffffff1673ffffffffffffffffffffffffffffffffffffffff16815260200190815260200160002060009054906101000a900460ff16905092915050565b60007f780e9d63000000000000000000000000000000000000000000000000000000007bffffffffffffffffffffffffffffffffffffffffffffffffffffffff1916827bffffffffffffffffffffffffffffffffffffffffffffffffffffffff19161480610c715750610c708261166c565b5b9050919050565b60008073ffffffffffffffffffffffffffffffffffffffff166002600084815260200190815260200160002060009054906101000a900473ffffffffffffffffffffffffffffffffffffffff1673ffffffffffffffffffffffffffffffffffffffff1614159050919050565b600033905090565b816004600083815260200190815260200160002060006101000a81548173ffffffffffffffffffffffffffffffffffffffff021916908373ffffffffffffffffffffffffffffffffffffffff160217905550808273ffffffffffffffffffffffffffffffffffffffff16610d5f83610854565b73ffffffffffffffffffffffffffffffffffffffff167f8c5be1e5ebec7d5bd14f71427d1e84f3dd0314c0f7b2291e5b200ac8c7c3b92560405160405180910390a45050565b6000610db082610c78565b610def576040517f08c379a0000000000000000000000000000000000000000000000000000000008152600401610de690612b55565b60405180910390fd5b6000610dfa83610854565b90508073ffffffffffffffffffffffffffffffffffffffff168473ffffffffffffffffffffffffffffffffffffffff161480610e6957508373ffffffffffffffffffffffffffffffffffffffff16610e5184610498565b73ffffffffffffffffffffffffffffffffffffffff16145b80610e7a5750610e798185610b6a565b5b91505092915050565b610e8c8161174e565b50565b8273ffffffffffffffffffffffffffffffffffffffff16610eaf82610854565b73ffffffffffffffffffffffffffffffffffffffff1614610f05576040517f08c379a0000000000000000000000000000000000000000000000000000000008152600401610efc90612c55565b60405180910390fd5b600073ffffffffffffffffffffffffffffffffffffffff168273ffffffffffffffffffffffffffffffffffffffff161415610f75576040517f08c379a0000000000000000000000000000000000000000000000000000000008152600401610f6c90612af5565b60405180910390fd5b610f808383836117a1565b610f8b600082610cec565b6001600360008573ffffffffffffffffffffffffffffffffffffffff1673ffffffffffffffffffffffffffffffffffffffff1681526020019081526020016000206000828254610fdb9190612e61565b925050819055506001600360008473ffffffffffffffffffffffffffffffffffffffff1673ffffffffffffffffffffffffffffffffffffffff16815260200190815260200160002060008282546110329190612dda565b92505081905550816002600083815260200190815260200160002060006101000a81548173ffffffffffffffffffffffffffffffffffffffff021916908373ffffffffffffffffffffffffffffffffffffffff160217905550808273ffffffffffffffffffffffffffffffffffffffff168473ffffffffffffffffffffffffffffffffffffffff167fddf252ad1be2c89b69c2b068fc378daa952ba7f163c4a11628f55a4df523b3ef60405160405180910390a4505050565b600081600001549050919050565b6001816000016000828254019250508190555050565b600073ffffffffffffffffffffffffffffffffffffffff168273ffffffffffffffffffffffffffffffffffffffff16141561117f576040517f08c379a000000000000000000000000000000000000000000000000000000000815260040161117690612bf5565b60405180910390fd5b61118881610c78565b156111c8576040517f08c379a00000000000000000000000000000000000000000000000000000000081526004016111bf90612ad5565b60405180910390fd5b6111d4600083836117a1565b6001600360008473ffffffffffffffffffffffffffffffffffffffff1673ffffffffffffffffffffffffffffffffffffffff16815260200190815260200160002060008282546112249190612dda565b92505081905550816002600083815260200190815260200160002060006101000a81548173ffffffffffffffffffffffffffffffffffffffff021916908373ffffffffffffffffffffffffffffffffffffffff160217905550808273ffffffffffffffffffffffffffffffffffffffff16600073ffffffffffffffffffffffffffffffffffffffff167fddf252ad1be2c89b69c2b068fc378daa952ba7f163c4a11628f55a4df523b3ef60405160405180910390a45050565b6112e682610c78565b611325576040517f08c379a000000000000000000000000000000000000000000000000000000000815260040161131c90612bd5565b60405180910390fd5b8060066000848152602001908152602001600020908051906020019061134c9291906121d2565b505050565b8173ffffffffffffffffffffffffffffffffffffffff168373ffffffffffffffffffffffffffffffffffffffff1614156113c0576040517f08c379a00000000000000000000000000000000000000000000000000000000081526004016113b790612b15565b60405180910390fd5b80600560008573ffffffffffffffffffffffffffffffffffffffff1673ffffffffffffffffffffffffffffffffffffffff16815260200190815260200160002060008473ffffffffffffffffffffffffffffffffffffffff1673ffffffffffffffffffffffffffffffffffffffff16815260200190815260200160002060006101000a81548160ff0219169083151502179055508173ffffffffffffffffffffffffffffffffffffffff168373ffffffffffffffffffffffffffffffffffffffff167f17307eab39ab6107e8899845ad3d59bd9653f200f220920489ca2b5937696c31836040516114b19190612a58565b60405180910390a3505050565b6114c9848484610e8f565b6114d5848484846117b1565b611514576040517f08c379a000000000000000000000000000000000000000000000000000000000815260040161150b90612ab5565b60405180910390fd5b50505050565b606061152582610c78565b611564576040517f08c379a000000000000000000000000000000000000000000000000000000000815260040161155b90612c15565b60405180910390fd5b600060066000848152602001908152602001600020805461158490612f4b565b80601f01602080910402602001604051908101604052809291908181526020018280546115b090612f4b565b80156115fd5780601f106115d2576101008083540402835291602001916115fd565b820191906000526020600020905b8154815290600101906020018083116115e057829003601f168201915b50505050509050600061160e611948565b9050600081511415611624578192505050611667565b6000825111156116595780826040516020016116419291906129cd565b60405160208183030381529060405292505050611667565b6116628461195f565b925050505b919050565b60007f80ac58cd000000000000000000000000000000000000000000000000000000007bffffffffffffffffffffffffffffffffffffffffffffffffffffffff1916827bffffffffffffffffffffffffffffffffffffffffffffffffffffffff1916148061173757507f5b5e139f000000000000000000000000000000000000000000000000000000007bffffffffffffffffffffffffffffffffffffffffffffffffffffffff1916827bffffffffffffffffffffffffffffffffffffffffffffffffffffffff1916145b80611747575061174682611a06565b5b9050919050565b61175781611a70565b600060066000838152602001908152602001600020805461177790612f4b565b90501461179e5760066000828152602001908152602001600020600061179d9190612258565b5b50565b6117ac838383611b81565b505050565b60006117d28473ffffffffffffffffffffffffffffffffffffffff16611c95565b1561193b578373ffffffffffffffffffffffffffffffffffffffff1663150b7a026117fb610ce4565b8786866040518563ffffffff1660e01b815260040161181d9493929190612a0c565b602060405180830381600087803b15801561183757600080fd5b505af192505050801561186857506040513d601f19601f820116820180604052508101906118659190612612565b60015b6118eb573d8060008114611898576040519150601f19603f3d011682016040523d82523d6000602084013e61189d565b606091505b506000815114156118e3576040517f08c379a00000000000000000000000000000000000000000000000000000000081526004016118da90612ab5565b60405180910390fd5b805181602001fd5b63150b7a0260e01b7bffffffffffffffffffffffffffffffffffffffffffffffffffffffff1916817bffffffffffffffffffffffffffffffffffffffffffffffffffffffff191614915050611940565b600190505b949350505050565b606060405180602001604052806000815250905090565b606061196a82610c78565b6119a9576040517f08c379a00000000000000000000000000000000000000000000000000000000081526004016119a090612c75565b60405180910390fd5b60006119b3611948565b905060008151116119d357604051806020016040528060008152506119fe565b806119dd84611ca8565b6040516020016119ee9291906129cd565b6040516020818303038152906040525b915050919050565b60007f01ffc9a7000000000000000000000000000000000000000000000000000000007bffffffffffffffffffffffffffffffffffffffffffffffffffffffff1916827bffffffffffffffffffffffffffffffffffffffffffffffffffffffff1916149050919050565b6000611a7b82610854565b9050611a89816000846117a1565b611a94600083610cec565b6001600360008373ffffffffffffffffffffffffffffffffffffffff1673ffffffffffffffffffffffffffffffffffffffff1681526020019081526020016000206000828254611ae49190612e61565b925050819055506002600083815260200190815260200160002060006101000a81549073ffffffffffffffffffffffffffffffffffffffff021916905581600073ffffffffffffffffffffffffffffffffffffffff168273ffffffffffffffffffffffffffffffffffffffff167fddf252ad1be2c89b69c2b068fc378daa952ba7f163c4a11628f55a4df523b3ef60405160405180910390a45050565b611b8c838383611e55565b600073ffffffffffffffffffffffffffffffffffffffff168373ffffffffffffffffffffffffffffffffffffffff161415611bcf57611bca81611e5a565b611c0e565b8173ffffffffffffffffffffffffffffffffffffffff168373ffffffffffffffffffffffffffffffffffffffff1614611c0d57611c0c8382611ea3565b5b5b600073ffffffffffffffffffffffffffffffffffffffff168273ffffffffffffffffffffffffffffffffffffffff161415611c5157611c4c81612010565b611c90565b8273ffffffffffffffffffffffffffffffffffffffff168273ffffffffffffffffffffffffffffffffffffffff1614611c8f57611c8e8282612153565b5b5b505050565b600080823b905060008111915050919050565b60606000821415611cf0576040518060400160405280600181526020017f30000000000000000000000000000000000000000000000000000000000000008152509050611e50565b600082905060005b60008214611d22578080611d0b90612fae565b915050600a82611d1b9190612e30565b9150611cf8565b60008167ffffffffffffffff811115611d64577f4e487b7100000000000000000000000000000000000000000000000000000000600052604160045260246000fd5b6040519080825280601f01601f191660200182016040528015611d965781602001600182028036833780820191505090505b5090505b60008514611e4957600182611daf9190612e61565b9150600a85611dbe9190612ff7565b6030611dca9190612dda565b60f81b818381518110611e06577f4e487b7100000000000000000000000000000000000000000000000000000000600052603260045260246000fd5b60200101907effffffffffffffffffffffffffffffffffffffffffffffffffffffffffffff1916908160001a905350600a85611e429190612e30565b9450611d9a565b8093505050505b919050565b505050565b600980549050600a600083815260200190815260200160002081905550600981908060018154018082558091505060019003906000526020600020016000909190919091505550565b60006001611eb084610906565b611eba9190612e61565b9050600060086000848152602001908152602001600020549050818114611f9f576000600760008673ffffffffffffffffffffffffffffffffffffffff1673ffffffffffffffffffffffffffffffffffffffff168152602001908152602001600020600084815260200190815260200160002054905080600760008773ffffffffffffffffffffffffffffffffffffffff1673ffffffffffffffffffffffffffffffffffffffff168152602001908152602001600020600084815260200190815260200160002081905550816008600083815260200190815260200160002081905550505b6008600084815260200190815260200160002060009055600760008573ffffffffffffffffffffffffffffffffffffffff1673ffffffffffffffffffffffffffffffffffffffff16815260200190815260200160002060008381526020019081526020016000206000905550505050565b600060016009805490506120249190612e61565b90506000600a600084815260200190815260200160002054905060006009838154811061207a577f4e487b7100000000000000000000000000000000000000000000000000000000600052603260045260246000fd5b9060005260206000200154905080600983815481106120c2577f4e487b7100000000000000000000000000000000000000000000000000000000600052603260045260246000fd5b906000526020600020018190555081600a600083815260200190815260200160002081905550600a6000858152602001908152602001600020600090556009805480612137577f4e487b7100000000000000000000000000000000000000000000000000000000600052603160045260246000fd5b6001900381819060005260206000200160009055905550505050565b600061215e83610906565b905081600760008573ffffffffffffffffffffffffffffffffffffffff1673ffffffffffffffffffffffffffffffffffffffff168152602001908152602001600020600083815260200190815260200160002081905550806008600084815260200190815260200160002081905550505050565b8280546121de90612f4b565b90600052602060002090601f0160209004810192826122005760008555612247565b82601f1061221957805160ff1916838001178555612247565b82800160010185558215612247579182015b8281111561224657825182559160200191906001019061222b565b5b5090506122549190612298565b5090565b50805461226490612f4b565b6000825580601f106122765750612295565b601f0160209004906000526020600020908101906122949190612298565b5b50565b5b808211156122b1576000816000905550600101612299565b5090565b60006122c86122c384612d35565b612d10565b9050828152602081018484840111156122e057600080fd5b6122eb848285612f09565b509392505050565b600061230661230184612d66565b612d10565b90508281526020810184848401111561231e57600080fd5b612329848285612f09565b509392505050565b60008135905061234081613660565b92915050565b60008135905061235581613677565b92915050565b60008135905061236a8161368e565b92915050565b60008151905061237f8161368e565b92915050565b600082601f83011261239657600080fd5b81356123a68482602086016122b5565b91505092915050565b600082601f8301126123c057600080fd5b81356123d08482602086016122f3565b91505092915050565b6000813590506123e8816136a5565b92915050565b60006020828403121561240057600080fd5b600061240e84828501612331565b91505092915050565b6000806040838503121561242a57600080fd5b600061243885828601612331565b925050602061244985828601612331565b9150509250929050565b60008060006060848603121561246857600080fd5b600061247686828701612331565b935050602061248786828701612331565b9250506040612498868287016123d9565b9150509250925092565b600080600080608085870312156124b857600080fd5b60006124c687828801612331565b94505060206124d787828801612331565b93505060406124e8878288016123d9565b925050606085013567ffffffffffffffff81111561250557600080fd5b61251187828801612385565b91505092959194509250565b6000806040838503121561253057600080fd5b600061253e85828601612331565b925050602061254f85828601612346565b9150509250929050565b6000806040838503121561256c57600080fd5b600061257a85828601612331565b925050602083013567ffffffffffffffff81111561259757600080fd5b6125a3858286016123af565b9150509250929050565b600080604083850312156125c057600080fd5b60006125ce85828601612331565b92505060206125df858286016123d9565b9150509250929050565b6000602082840312156125fb57600080fd5b60006126098482850161235b565b91505092915050565b60006020828403121561262457600080fd5b600061263284828501612370565b91505092915050565b60006020828403121561264d57600080fd5b600061265b848285016123d9565b91505092915050565b61266d81612e95565b82525050565b61267c81612ea7565b82525050565b600061268d82612d97565b6126978185612dad565b93506126a7818560208601612f18565b6126b0816130e4565b840191505092915050565b60006126c682612da2565b6126d08185612dbe565b93506126e0818560208601612f18565b6126e9816130e4565b840191505092915050565b60006126ff82612da2565b6127098185612dcf565b9350612719818560208601612f18565b80840191505092915050565b6000612732602b83612dbe565b915061273d826130f5565b604082019050919050565b6000612755603283612dbe565b915061276082613144565b604082019050919050565b6000612778601c83612dbe565b915061278382613193565b602082019050919050565b600061279b602483612dbe565b91506127a6826131bc565b604082019050919050565b60006127be601983612dbe565b91506127c98261320b565b602082019050919050565b60006127e1602383612dbe565b91506127ec82613234565b604082019050919050565b6000612804602c83612dbe565b915061280f82613283565b604082019050919050565b6000612827603883612dbe565b9150612832826132d2565b604082019050919050565b600061284a602a83612dbe565b915061285582613321565b604082019050919050565b600061286d602983612dbe565b915061287882613370565b604082019050919050565b6000612890602e83612dbe565b915061289b826133bf565b604082019050919050565b60006128b3602083612dbe565b91506128be8261340e565b602082019050919050565b60006128d6603183612dbe565b91506128e182613437565b604082019050919050565b60006128f9602c83612dbe565b915061290482613486565b604082019050919050565b600061291c602983612dbe565b9150612927826134d5565b604082019050919050565b600061293f602f83612dbe565b915061294a82613524565b604082019050919050565b6000612962602183612dbe565b915061296d82613573565b604082019050919050565b6000612985603183612dbe565b9150612990826135c2565b604082019050919050565b60006129a8602c83612dbe565b91506129b382613611565b604082019050919050565b6129c781612eff565b82525050565b60006129d982856126f4565b91506129e582846126f4565b91508190509392505050565b6000602082019050612a066000830184612664565b92915050565b6000608082019050612a216000830187612664565b612a2e6020830186612664565b612a3b60408301856129be565b8181036060830152612a4d8184612682565b905095945050505050565b6000602082019050612a6d6000830184612673565b92915050565b60006020820190508181036000830152612a8d81846126bb565b905092915050565b60006020820190508181036000830152612aae81612725565b9050919050565b60006020820190508181036000830152612ace81612748565b9050919050565b60006020820190508181036000830152612aee8161276b565b9050919050565b60006020820190508181036000830152612b0e8161278e565b9050919050565b60006020820190508181036000830152612b2e816127b1565b9050919050565b60006020820190508181036000830152612b4e816127d4565b9050919050565b60006020820190508181036000830152612b6e816127f7565b9050919050565b60006020820190508181036000830152612b8e8161281a565b9050919050565b60006020820190508181036000830152612bae8161283d565b9050919050565b60006020820190508181036000830152612bce81612860565b9050919050565b60006020820190508181036000830152612bee81612883565b9050919050565b60006020820190508181036000830152612c0e816128a6565b9050919050565b60006020820190508181036000830152612c2e816128c9565b9050919050565b60006020820190508181036000830152612c4e816128ec565b9050919050565b60006020820190508181036000830152612c6e8161290f565b9050919050565b60006020820190508181036000830152612c8e81612932565b9050919050565b60006020820190508181036000830152612cae81612955565b9050919050565b60006020820190508181036000830152612cce81612978565b9050919050565b60006020820190508181036000830152612cee8161299b565b9050919050565b6000602082019050612d0a60008301846129be565b92915050565b6000612d1a612d2b565b9050612d268282612f7d565b919050565b6000604051905090565b600067ffffffffffffffff821115612d5057612d4f6130b5565b5b612d59826130e4565b9050602081019050919050565b600067ffffffffffffffff821115612d8157612d806130b5565b5b612d8a826130e4565b9050602081019050919050565b600081519050919050565b600081519050919050565b600082825260208201905092915050565b600082825260208201905092915050565b600081905092915050565b6000612de582612eff565b9150612df083612eff565b9250827fffffffffffffffffffffffffffffffffffffffffffffffffffffffffffffffff03821115612e2557612e24613028565b5b828201905092915050565b6000612e3b82612eff565b9150612e4683612eff565b925082612e5657612e55613057565b5b828204905092915050565b6000612e6c82612eff565b9150612e7783612eff565b925082821015612e8a57612e89613028565b5b828203905092915050565b6000612ea082612edf565b9050919050565b60008115159050919050565b60007fffffffff0000000000000000000000000000000000000000000000000000000082169050919050565b600073ffffffffffffffffffffffffffffffffffffffff82169050919050565b6000819050919050565b82818337600083830152505050565b60005b83811015612f36578082015181840152602081019050612f1b565b83811115612f45576000848401525b50505050565b60006002820490506001821680612f6357607f821691505b60208210811415612f7757612f76613086565b5b50919050565b612f86826130e4565b810181811067ffffffffffffffff82111715612fa557612fa46130b5565b5b80604052505050565b6000612fb982612eff565b91507fffffffffffffffffffffffffffffffffffffffffffffffffffffffffffffffff821415612fec57612feb613028565b5b600182019050919050565b600061300282612eff565b915061300d83612eff565b92508261301d5761301c613057565b5b828206905092915050565b7f4e487b7100000000000000000000000000000000000000000000000000000000600052601160045260246000fd5b7f4e487b7100000000000000000000000000000000000000000000000000000000600052601260045260246000fd5b7f4e487b7100000000000000000000000000000000000000000000000000000000600052602260045260246000fd5b7f4e487b7100000000000000000000000000000000000000000000000000000000600052604160045260246000fd5b6000601f19601f8301169050919050565b7f455243373231456e756d657261626c653a206f776e657220696e646578206f7560008201527f74206f6620626f756e6473000000000000000000000000000000000000000000602082015250565b7f4552433732313a207472616e7366657220746f206e6f6e20455243373231526560008201527f63656976657220696d706c656d656e7465720000000000000000000000000000602082015250565b7f4552433732313a20746f6b656e20616c7265616479206d696e74656400000000600082015250565b7f4552433732313a207472616e7366657220746f20746865207a65726f2061646460008201527f7265737300000000000000000000000000000000000000000000000000000000602082015250565b7f4552433732313a20617070726f766520746f2063616c6c657200000000000000600082015250565b7f43616c6c6572206973206e6f74206f776e6572206f66207468697320766f756360008201527f6865720000000000000000000000000000000000000000000000000000000000602082015250565b7f4552433732313a206f70657261746f7220717565727920666f72206e6f6e657860008201527f697374656e7420746f6b656e0000000000000000000000000000000000000000602082015250565b7f4552433732313a20617070726f76652063616c6c6572206973206e6f74206f7760008201527f6e6572206e6f7220617070726f76656420666f7220616c6c0000000000000000602082015250565b7f4552433732313a2062616c616e636520717565727920666f7220746865207a6560008201527f726f206164647265737300000000000000000000000000000000000000000000602082015250565b7f4552433732313a206f776e657220717565727920666f72206e6f6e657869737460008201527f656e7420746f6b656e0000000000000000000000000000000000000000000000602082015250565b7f45524337323155524953746f726167653a2055524920736574206f66206e6f6e60008201527f6578697374656e7420746f6b656e000000000000000000000000000000000000602082015250565b7f4552433732313a206d696e7420746f20746865207a65726f2061646472657373600082015250565b7f45524337323155524953746f726167653a2055524920717565727920666f722060008201527f6e6f6e6578697374656e7420746f6b656e000000000000000000000000000000602082015250565b7f4552433732313a20617070726f76656420717565727920666f72206e6f6e657860008201527f697374656e7420746f6b656e0000000000000000000000000000000000000000602082015250565b7f4552433732313a207472616e73666572206f6620746f6b656e2074686174206960008201527f73206e6f74206f776e0000000000000000000000000000000000000000000000602082015250565b7f4552433732314d657461646174613a2055524920717565727920666f72206e6f60008201527f6e6578697374656e7420746f6b656e0000000000000000000000000000000000602082015250565b7f4552433732313a20617070726f76616c20746f2063757272656e74206f776e6560008201527f7200000000000000000000000000000000000000000000000000000000000000602082015250565b7f4552433732313a207472616e736665722063616c6c6572206973206e6f74206f60008201527f776e6572206e6f7220617070726f766564000000000000000000000000000000602082015250565b7f455243373231456e756d657261626c653a20676c6f62616c20696e646578206f60008201527f7574206f6620626f756e64730000000000000000000000000000000000000000602082015250565b61366981612e95565b811461367457600080fd5b50565b61368081612ea7565b811461368b57600080fd5b50565b61369781612eb3565b81146136a257600080fd5b50565b6136ae81612eff565b81146136b957600080fd5b5056fea2646970667358221220800898ebb0609759ce0ed06cde0d664ba4ebbbba28da73e402c279fb171430ac64736f6c63430008040033",
  "linkReferences": {},
  "deployedLinkReferences": {}
}