{
  "_format": "hh-sol-artifact-1",
  "contractName": "Market",
  "sourceName": "contracts/Market.sol",
  "abi": [
    {
      "inputs": [],
      "stateMutability": "payable",
      "type": "constructor"
    },
    {
      "anonymous": false,
      "inputs": [
        {
          "indexed": true,
          "internalType": "address",
          "name": "user",
          "type": "address"
        },
        {
          "indexed": false,
          "internalType": "string",
          "name": "foodName",
          "type": "string"
        },
        {
          "indexed": false,
          "internalType": "uint256",
          "name": "date",
          "type": "uint256"
        },
        {
          "indexed": false,
          "internalType": "uint256",
          "name": "tokenID",
          "type": "uint256"
        }
      ],
      "name": "EventBoughtFood",
      "type": "event"
    },
    {
      "anonymous": false,
      "inputs": [
        {
          "indexed": true,
          "internalType": "address",
          "name": "user",
          "type": "address"
        },
        {
          "indexed": true,
          "internalType": "address",
          "name": "receiver",
          "type": "address"
        },
        {
          "indexed": false,
          "internalType": "string",
          "name": "foodName",
          "type": "string"
        },
        {
          "indexed": false,
          "internalType": "uint256",
          "name": "date",
          "type": "uint256"
        },
        {
          "indexed": false,
          "internalType": "uint256",
          "name": "tokenID",
          "type": "uint256"
        }
      ],
      "name": "EventGiftFood",
      "type": "event"
    },
    {
      "anonymous": false,
      "inputs": [
        {
          "indexed": true,
          "internalType": "address",
          "name": "user",
          "type": "address"
        },
        {
          "indexed": false,
          "internalType": "string",
          "name": "foodName",
          "type": "string"
        },
        {
          "indexed": false,
          "internalType": "uint256",
          "name": "date",
          "type": "uint256"
        },
        {
          "indexed": false,
          "internalType": "uint256",
          "name": "tokenID",
          "type": "uint256"
        }
      ],
      "name": "EventRedeemFood",
      "type": "event"
    },
    {
      "inputs": [
        {
          "internalType": "string",
          "name": "foodName",
          "type": "string"
        },
        {
          "internalType": "address",
          "name": "receiver",
          "type": "address"
        }
      ],
      "name": "buyAndGiftFood",
      "outputs": [],
      "stateMutability": "payable",
      "type": "function"
    },
    {
      "inputs": [
        {
          "internalType": "string",
          "name": "foodName",
          "type": "string"
        }
      ],
      "name": "buyFood",
      "outputs": [
        {
          "internalType": "uint256",
          "name": "",
          "type": "uint256"
        }
      ],
      "stateMutability": "payable",
      "type": "function"
    },
    {
      "inputs": [],
      "name": "food",
      "outputs": [
        {
          "internalType": "contract Food",
          "name": "",
          "type": "address"
        }
      ],
      "stateMutability": "view",
      "type": "function"
    },
    {
      "inputs": [
        {
          "internalType": "uint256",
          "name": "",
          "type": "uint256"
        }
      ],
      "name": "foodTokens",
      "outputs": [
        {
          "internalType": "string",
          "name": "name",
          "type": "string"
        },
        {
          "internalType": "uint256",
          "name": "tokenID",
          "type": "uint256"
        }
      ],
      "stateMutability": "view",
      "type": "function"
    },
    {
      "inputs": [],
      "name": "getCustomerFoods",
      "outputs": [
        {
          "components": [
            {
              "internalType": "string",
              "name": "name",
              "type": "string"
            },
            {
              "internalType": "uint256",
              "name": "tokenID",
              "type": "uint256"
            }
          ],
          "internalType": "struct Market.Token[]",
          "name": "",
          "type": "tuple[]"
        }
      ],
      "stateMutability": "view",
      "type": "function"
    },
    {
      "inputs": [
        {
          "internalType": "address",
          "name": "receiver",
          "type": "address"
        },
        {
          "internalType": "uint256",
          "name": "tokenID",
          "type": "uint256"
        }
      ],
      "name": "giftFood",
      "outputs": [],
      "stateMutability": "nonpayable",
      "type": "function"
    },
    {
      "inputs": [
        {
          "internalType": "uint256",
          "name": "tokenID",
          "type": "uint256"
        }
      ],
      "name": "redeemFood",
      "outputs": [],
      "stateMutability": "nonpayable",
      "type": "function"
    },
    {
      "inputs": [],
      "name": "supplier",
      "outputs": [
        {
          "internalType": "contract Supplier",
          "name": "",
          "type": "address"
        }
      ],
      "stateMutability": "view",
      "type": "function"
    },
    {
      "inputs": [
        {
          "internalType": "uint256",
          "name": "",
          "type": "uint256"
        }
      ],
      "name": "voucherTokens",
      "outputs": [
        {
          "internalType": "string",
          "name": "name",
          "type": "string"
        },
        {
          "internalType": "uint256",
          "name": "tokenID",
          "type": "uint256"
        }
      ],
      "stateMutability": "view",
      "type": "function"
    }
  ],
  "bytecode": "0x6080604052604051610010906100db565b604051809103906000f08015801561002c573d6000803e3d6000fd5b50600260006101000a81548173ffffffffffffffffffffffffffffffffffffffff021916908373ffffffffffffffffffffffffffffffffffffffff160217905550604051610079906100e9565b604051809103906000f080158015610095573d6000803e3d6000fd5b50600360006101000a81548173ffffffffffffffffffffffffffffffffffffffff021916908373ffffffffffffffffffffffffffffffffffffffff1602179055506100f7565b61548b8062001a5283390190565b6138cf8062006edd83390190565b61194b80620001076000396000f3fe6080604052600436106100855760003560e01c806336da44681161005957806336da44681461015f578063386f34e01461018a57806347c89812146101a65780635c12ce02146101d157806398b4e8d3146101fa57610085565b80624b50bf1461008a5780631760b6b6146100ba57806318461949146100f857806324dc9da214610121575b600080fd5b6100a4600480360381019061009f9190611090565b610225565b6040516100b1919061158e565b60405180910390f35b3480156100c657600080fd5b506100e160048036038101906100dc9190611125565b610550565b6040516100ef9291906114c2565b60405180910390f35b34801561010457600080fd5b5061011f600480360381019061011a9190611125565b61060c565b005b34801561012d57600080fd5b5061014860048036038101906101439190611125565b610749565b6040516101569291906114c2565b60405180910390f35b34801561016b57600080fd5b50610174610805565b6040516101819190611485565b60405180910390f35b6101a4600480360381019061019f91906110d1565b61082b565b005b3480156101b257600080fd5b506101bb610847565b6040516101c89190611448565b60405180910390f35b3480156101dd57600080fd5b506101f860048036038101906101f39190611054565b610982565b005b34801561020657600080fd5b5061020f610b71565b60405161021c919061146a565b60405180910390f35b600080600260009054906101000a900473ffffffffffffffffffffffffffffffffffffffff1673ffffffffffffffffffffffffffffffffffffffff16639419f501846040518263ffffffff1660e01b815260040161028391906114a0565b60206040518083038186803b15801561029b57600080fd5b505afa1580156102af573d6000803e3d6000fd5b505050506040513d601f19601f820116820180604052508101906102d3919061114e565b905080341015610318576040517f08c379a000000000000000000000000000000000000000000000000000000000815260040161030f9061156e565b60405180910390fd5b6000600360009054906101000a900473ffffffffffffffffffffffffffffffffffffffff1673ffffffffffffffffffffffffffffffffffffffff16638345183833866040518363ffffffff1660e01b81526004016103779291906113ef565b602060405180830381600087803b15801561039157600080fd5b505af11580156103a5573d6000803e3d6000fd5b505050506040513d601f19601f820116820180604052508101906103c9919061114e565b905060006040518060400160405280868152602001838152509050806000838154811061041f577f4e487b7100000000000000000000000000000000000000000000000000000000600052603260045260246000fd5b90600052602060002090600202016000820151816000019080519060200190610449929190610e3d565b5060208201518160010155905050600460003373ffffffffffffffffffffffffffffffffffffffff1673ffffffffffffffffffffffffffffffffffffffff16815260200190815260200160002060010181908060018154018082558091505060019003906000526020600020906002020160009091909190915060008201518160000190805190602001906104df929190610e3d565b50602082015181600101555050816005819055503373ffffffffffffffffffffffffffffffffffffffff167f85b569e10f6720e020936212fe1eea61f896a009714496ad76a3ff29206fe04b86428560405161053d939291906114f2565b60405180910390a2819350505050919050565b6000818154811061056057600080fd5b906000526020600020906002020160009150905080600001805461058390611774565b80601f01602080910402602001604051908101604052809291908181526020018280546105af90611774565b80156105fc5780601f106105d1576101008083540402835291602001916105fc565b820191906000526020600020905b8154815290600101906020018083116105df57829003601f168201915b5050505050908060010154905082565b6106163382610b97565b600360009054906101000a900473ffffffffffffffffffffffffffffffffffffffff1673ffffffffffffffffffffffffffffffffffffffff16631e9a695033836040518363ffffffff1660e01b815260040161067392919061141f565b600060405180830381600087803b15801561068d57600080fd5b505af11580156106a1573d6000803e3d6000fd5b5050505060008082815481106106e0577f4e487b7100000000000000000000000000000000000000000000000000000000600052603260045260246000fd5b906000526020600020906002020190503373ffffffffffffffffffffffffffffffffffffffff167f699426816511f666da88e47993a36f5bd155551818271fd39a2831b3db7f7a8582600001428560405161073d93929190611530565b60405180910390a25050565b6001818154811061075957600080fd5b906000526020600020906002020160009150905080600001805461077c90611774565b80601f01602080910402602001604051908101604052809291908181526020018280546107a890611774565b80156107f55780601f106107ca576101008083540402835291602001916107f5565b820191906000526020600020905b8154815290600101906020018083116107d857829003601f168201915b5050505050908060010154905082565b600260009054906101000a900473ffffffffffffffffffffffffffffffffffffffff1681565b600061083683610225565b90506108428282610982565b505050565b6060600460003373ffffffffffffffffffffffffffffffffffffffff1673ffffffffffffffffffffffffffffffffffffffff168152602001908152602001600020600101805480602002602001604051908101604052809291908181526020016000905b8282101561097957838290600052602060002090600202016040518060400160405290816000820180546108de90611774565b80601f016020809104026020016040519081016040528092919081815260200182805461090a90611774565b80156109575780601f1061092c57610100808354040283529160200191610957565b820191906000526020600020905b81548152906001019060200180831161093a57829003601f168201915b50505050508152602001600182015481525050815260200190600101906108ab565b50505050905090565b61098c3382610b97565b600360009054906101000a900473ffffffffffffffffffffffffffffffffffffffff1673ffffffffffffffffffffffffffffffffffffffff166395dbee2d3384846040518463ffffffff1660e01b81526004016109eb939291906113b8565b600060405180830381600087803b158015610a0557600080fd5b505af1158015610a19573d6000803e3d6000fd5b505050506000808281548110610a58577f4e487b7100000000000000000000000000000000000000000000000000000000600052603260045260246000fd5b90600052602060002090600202019050600460008473ffffffffffffffffffffffffffffffffffffffff1673ffffffffffffffffffffffffffffffffffffffff1681526020019081526020016000206001018190806001815401808255809150506001900390600052602060002090600202016000909190919091506000820181600001908054610ae890611774565b610af3929190610ec3565b506001820154816001015550508273ffffffffffffffffffffffffffffffffffffffff163373ffffffffffffffffffffffffffffffffffffffff167f44361683fbdd5acdd712e06dab66935d0f56f274249ff50740cf080a0294423e836000014286604051610b6493929190611530565b60405180910390a3505050565b600360009054906101000a900473ffffffffffffffffffffffffffffffffffffffff1681565b6000600360009054906101000a900473ffffffffffffffffffffffffffffffffffffffff1673ffffffffffffffffffffffffffffffffffffffff166370a08231336040518263ffffffff1660e01b8152600401610bf4919061139d565b60206040518083038186803b158015610c0c57600080fd5b505afa158015610c20573d6000803e3d6000fd5b505050506040513d601f19601f82011682018060405250810190610c44919061114e565b90506000600460008573ffffffffffffffffffffffffffffffffffffffff1673ffffffffffffffffffffffffffffffffffffffff1681526020019081526020016000209050600081600101905060005b83811015610e355784828281548110610cd6577f4e487b7100000000000000000000000000000000000000000000000000000000600052603260045260246000fd5b9060005260206000209060020201600101541415610e225781600185610cfc919061167a565b81548110610d33577f4e487b7100000000000000000000000000000000000000000000000000000000600052603260045260246000fd5b9060005260206000209060020201828281548110610d7a577f4e487b7100000000000000000000000000000000000000000000000000000000600052603260045260246000fd5b90600052602060002090600202016000820181600001908054610d9c90611774565b610da7929190610ec3565b506001820154816001015590505081805480610dec577f4e487b7100000000000000000000000000000000000000000000000000000000600052603160045260246000fd5b600190038181906000526020600020906002020160008082016000610e119190610f50565b600182016000905550509055610e35565b8080610e2d906117d7565b915050610c94565b505050505050565b828054610e4990611774565b90600052602060002090601f016020900481019282610e6b5760008555610eb2565b82601f10610e8457805160ff1916838001178555610eb2565b82800160010185558215610eb2579182015b82811115610eb1578251825591602001919060010190610e96565b5b509050610ebf9190610f90565b5090565b828054610ecf90611774565b90600052602060002090601f016020900481019282610ef15760008555610f3f565b82601f10610f025780548555610f3f565b82800160010185558215610f3f57600052602060002091601f016020900482015b82811115610f3e578254825591600101919060010190610f23565b5b509050610f4c9190610f90565b5090565b508054610f5c90611774565b6000825580601f10610f6e5750610f8d565b601f016020900490600052602060002090810190610f8c9190610f90565b5b50565b5b80821115610fa9576000816000905550600101610f91565b5090565b6000610fc0610fbb846115ce565b6115a9565b905082815260208101848484011115610fd857600080fd5b610fe3848285611732565b509392505050565b600081359050610ffa816118e7565b92915050565b600082601f83011261101157600080fd5b8135611021848260208601610fad565b91505092915050565b600081359050611039816118fe565b92915050565b60008151905061104e816118fe565b92915050565b6000806040838503121561106757600080fd5b600061107585828601610feb565b92505060206110868582860161102a565b9150509250929050565b6000602082840312156110a257600080fd5b600082013567ffffffffffffffff8111156110bc57600080fd5b6110c884828501611000565b91505092915050565b600080604083850312156110e457600080fd5b600083013567ffffffffffffffff8111156110fe57600080fd5b61110a85828601611000565b925050602061111b85828601610feb565b9150509250929050565b60006020828403121561113757600080fd5b60006111458482850161102a565b91505092915050565b60006020828403121561116057600080fd5b600061116e8482850161103f565b91505092915050565b60006111838383611342565b905092915050565b611194816116ae565b82525050565b60006111a582611624565b6111af8185611647565b9350836020820285016111c1856115ff565b8060005b858110156111fd57848403895281516111de8582611177565b94506111e98361163a565b925060208a019950506001810190506111c5565b50829750879550505050505092915050565b611218816116ea565b82525050565b6112278161170e565b82525050565b60006112388261162f565b6112428185611658565b9350611252818560208601611741565b61125b816118ad565b840191505092915050565b60006112718261162f565b61127b8185611669565b935061128b818560208601611741565b611294816118ad565b840191505092915050565b600081546112ac81611774565b6112b68186611669565b945060018216600081146112d157600181146112e357611316565b60ff1983168652602086019350611316565b6112ec8561160f565b60005b8381101561130e578154818901526001820191506020810190506112ef565b808801955050505b50505092915050565b600061132c601283611669565b9150611337826118be565b602082019050919050565b6000604083016000830151848203600086015261135f828261122d565b9150506020830151611374602086018261137f565b508091505092915050565b611388816116e0565b82525050565b611397816116e0565b82525050565b60006020820190506113b2600083018461118b565b92915050565b60006060820190506113cd600083018661118b565b6113da602083018561118b565b6113e7604083018461138e565b949350505050565b6000604082019050611404600083018561118b565b81810360208301526114168184611266565b90509392505050565b6000604082019050611434600083018561118b565b611441602083018461138e565b9392505050565b60006020820190508181036000830152611462818461119a565b905092915050565b600060208201905061147f600083018461120f565b92915050565b600060208201905061149a600083018461121e565b92915050565b600060208201905081810360008301526114ba8184611266565b905092915050565b600060408201905081810360008301526114dc8185611266565b90506114eb602083018461138e565b9392505050565b6000606082019050818103600083015261150c8186611266565b905061151b602083018561138e565b611528604083018461138e565b949350505050565b6000606082019050818103600083015261154a818661129f565b9050611559602083018561138e565b611566604083018461138e565b949350505050565b600060208201905081810360008301526115878161131f565b9050919050565b60006020820190506115a3600083018461138e565b92915050565b60006115b36115c4565b90506115bf82826117a6565b919050565b6000604051905090565b600067ffffffffffffffff8211156115e9576115e861187e565b5b6115f2826118ad565b9050602081019050919050565b6000819050602082019050919050565b60008190508160005260206000209050919050565b600081519050919050565b600081519050919050565b6000602082019050919050565b600082825260208201905092915050565b600082825260208201905092915050565b600082825260208201905092915050565b6000611685826116e0565b9150611690836116e0565b9250828210156116a3576116a2611820565b5b828203905092915050565b60006116b9826116c0565b9050919050565b600073ffffffffffffffffffffffffffffffffffffffff82169050919050565b6000819050919050565b60006116f5826116fc565b9050919050565b6000611707826116c0565b9050919050565b600061171982611720565b9050919050565b600061172b826116c0565b9050919050565b82818337600083830152505050565b60005b8381101561175f578082015181840152602081019050611744565b8381111561176e576000848401525b50505050565b6000600282049050600182168061178c57607f821691505b602082108114156117a05761179f61184f565b5b50919050565b6117af826118ad565b810181811067ffffffffffffffff821117156117ce576117cd61187e565b5b80604052505050565b60006117e2826116e0565b91507fffffffffffffffffffffffffffffffffffffffffffffffffffffffffffffffff82141561181557611814611820565b5b600182019050919050565b7f4e487b7100000000000000000000000000000000000000000000000000000000600052601160045260246000fd5b7f4e487b7100000000000000000000000000000000000000000000000000000000600052602260045260246000fd5b7f4e487b7100000000000000000000000000000000000000000000000000000000600052604160045260246000fd5b6000601f19601f8301169050919050565b7f496e73756666696369656e74206d6f6e65790000000000000000000000000000600082015250565b6118f0816116ae565b81146118fb57600080fd5b50565b611907816116e0565b811461191257600080fd5b5056fea2646970667358221220dc6a8a228b6b39e502687b6f5da07b86984dea86fc0edb18d44439bc718ede0c64736f6c63430008040033608060405234801561001057600080fd5b50336000806101000a81548173ffffffffffffffffffffffffffffffffffffffff021916908373ffffffffffffffffffffffffffffffffffffffff16021790555060405161005d906100bf565b604051809103906000f080158015610079573d6000803e3d6000fd5b50600660006101000a81548173ffffffffffffffffffffffffffffffffffffffff021916908373ffffffffffffffffffffffffffffffffffffffff1602179055506100cd565b61384f8062001c3c83390190565b611b5f80620000dd6000396000f3fe6080604052600436106100c25760003560e01c8063899c67431161007f578063c4120a0a11610059578063c4120a0a14610294578063c6def076146102bd578063d797777a146102e8578063dc8a8e6614610326576100c2565b8063899c6743146101f05780639419f50114610219578063b0d4c1de14610256576100c2565b80630dce6a91146100c75780632bc5c973146101055780633013ee3014610121578063603f830e1461014c578063766425211461018a5780637e29f8ac146101b3575b600080fd5b3480156100d357600080fd5b506100ee60048036038101906100e99190611266565b610364565b6040516100fc9291906116ef565b60405180910390f35b61011f600480360381019061011a91906112a2565b61042d565b005b34801561012d57600080fd5b50610136610626565b60405161014391906116b2565b60405180910390f35b34801561015857600080fd5b50610173600480360381019061016e9190611362565b61075e565b6040516101819291906116ef565b60405180910390f35b34801561019657600080fd5b506101b160048036038101906101ac91906113b6565b61083d565b005b3480156101bf57600080fd5b506101da60048036038101906101d591906112a2565b610bbe565b6040516101e791906117bb565b60405180910390f35b3480156101fc57600080fd5b50610217600480360381019061021291906112e3565b610be9565b005b34801561022557600080fd5b50610240600480360381019061023b91906112a2565b610cc2565b60405161024d91906117bb565b60405180910390f35b34801561026257600080fd5b5061027d600480360381019061027891906112a2565b610ced565b60405161028b9291906116ef565b60405180910390f35b3480156102a057600080fd5b506102bb60048036038101906102b691906112e3565b610daf565b005b3480156102c957600080fd5b506102d2610e88565b6040516102df91906116d4565b60405180910390f35b3480156102f457600080fd5b5061030f600480360381019061030a9190611362565b610eae565b60405161031d9291906116ef565b60405180910390f35b34801561033257600080fd5b5061034d600480360381019061034891906112a2565b610f8d565b60405161035b9291906116ef565b60405180910390f35b6001602052816000526040600020818154811061038057600080fd5b9060005260206000209060020201600091509150508060000180546103a490611988565b80601f01602080910402602001604051908101604052809291908181526020018280546103d090611988565b801561041d5780601f106103f25761010080835404028352916020019161041d565b820191906000526020600020905b81548152906001019060200180831161040057829003601f168201915b5050505050908060010154905082565b6001341015610471576040517f08c379a00000000000000000000000000000000000000000000000000000000081526004016104689061179b565b60405180910390fd5b6000600660009054906101000a900473ffffffffffffffffffffffffffffffffffffffff1673ffffffffffffffffffffffffffffffffffffffff16638345183833846040518363ffffffff1660e01b81526004016104d0929190611682565b602060405180830381600087803b1580156104ea57600080fd5b505af11580156104fe573d6000803e3d6000fd5b505050506040513d601f19601f8201168201806040525081019061052291906113df565b905060006040518060400160405280848152602001838152509050600160003373ffffffffffffffffffffffffffffffffffffffff1673ffffffffffffffffffffffffffffffffffffffff16815260200190815260200160002081908060018154018082558091505060019003906000526020600020906002020160009091909190915060008201518160000190805190602001906105c292919061104f565b506020820151816001015550503373ffffffffffffffffffffffffffffffffffffffff167f0ecd9ba313116b081dcb938dd6453ebd27766c556849f5ea15ad8df4739ae1b68442856040516106199392919061171f565b60405180910390a2505050565b6060600160003373ffffffffffffffffffffffffffffffffffffffff1673ffffffffffffffffffffffffffffffffffffffff168152602001908152602001600020805480602002602001604051908101604052809291908181526020016000905b8282101561075557838290600052602060002090600202016040518060400160405290816000820180546106ba90611988565b80601f01602080910402602001604051908101604052809291908181526020018280546106e690611988565b80156107335780601f1061070857610100808354040283529160200191610733565b820191906000526020600020905b81548152906001019060200180831161071657829003601f168201915b5050505050815260200160018201548152505081526020019060010190610687565b50505050905090565b600582805160208101820180518482526020830160208501208183528095505050505050818154811061079057600080fd5b9060005260206000209060020201600091509150508060000180546107b490611988565b80601f01602080910402602001604051908101604052809291908181526020018280546107e090611988565b801561082d5780601f106108025761010080835404028352916020019161082d565b820191906000526020600020905b81548152906001019060200180831161081057829003601f168201915b5050505050908060010154905082565b6000600660009054906101000a900473ffffffffffffffffffffffffffffffffffffffff1673ffffffffffffffffffffffffffffffffffffffff166370a08231336040518263ffffffff1660e01b815260040161089a9190611667565b60206040518083038186803b1580156108b257600080fd5b505afa1580156108c6573d6000803e3d6000fd5b505050506040513d601f19601f820116820180604052508101906108ea91906113df565b90506000600160003373ffffffffffffffffffffffffffffffffffffffff1673ffffffffffffffffffffffffffffffffffffffff168152602001908152602001600020905060005b82811015610bb85783828281548110610974577f4e487b7100000000000000000000000000000000000000000000000000000000600052603260045260246000fd5b9060005260206000209060020201600101541415610ba5573373ffffffffffffffffffffffffffffffffffffffff167fabe35118fc7d3ff7d5b5594e07fd3aeff31b77f1c1ce285eacfc915790253c2f8383815481106109fd577f4e487b7100000000000000000000000000000000000000000000000000000000600052603260045260246000fd5b906000526020600020906002020160000142858581548110610a48577f4e487b7100000000000000000000000000000000000000000000000000000000600052603260045260246000fd5b906000526020600020906002020160010154604051610a699392919061175d565b60405180910390a281600184610a7f91906118b2565b81548110610ab6577f4e487b7100000000000000000000000000000000000000000000000000000000600052603260045260246000fd5b9060005260206000209060020201828281548110610afd577f4e487b7100000000000000000000000000000000000000000000000000000000600052603260045260246000fd5b90600052602060002090600202016000820181600001908054610b1f90611988565b610b2a9291906110d5565b506001820154816001015590505081805480610b6f577f4e487b7100000000000000000000000000000000000000000000000000000000600052603160045260246000fd5b600190038181906000526020600020906002020160008082016000610b949190611162565b600182016000905550509055610bb8565b8080610bb0906119eb565b915050610932565b50505050565b6000600382604051610bd09190611650565b9081526020016040518091039020600101549050919050565b6000604051806040016040528085815260200183815250905080600285604051610c139190611650565b90815260200160405180910390206000820151816000019080519060200190610c3d92919061104f565b5060208201518160010155905050600483604051610c5b9190611650565b90815260200160405180910390208190806001815401808255809150506001900390600052602060002090600202016000909190919091506000820151816000019080519060200190610caf92919061104f565b5060208201518160010155505050505050565b6000600282604051610cd49190611650565b9081526020016040518091039020600101549050919050565b600381805160208101820180518482526020830160208501208183528095505050505050600091509050806000018054610d2690611988565b80601f0160208091040260200160405190810160405280929190818152602001828054610d5290611988565b8015610d9f5780601f10610d7457610100808354040283529160200191610d9f565b820191906000526020600020905b815481529060010190602001808311610d8257829003601f168201915b5050505050908060010154905082565b6000604051806040016040528085815260200183815250905080600385604051610dd99190611650565b90815260200160405180910390206000820151816000019080519060200190610e0392919061104f565b5060208201518160010155905050600583604051610e219190611650565b90815260200160405180910390208190806001815401808255809150506001900390600052602060002090600202016000909190919091506000820151816000019080519060200190610e7592919061104f565b5060208201518160010155505050505050565b600660009054906101000a900473ffffffffffffffffffffffffffffffffffffffff1681565b6004828051602081018201805184825260208301602085012081835280955050505050508181548110610ee057600080fd5b906000526020600020906002020160009150915050806000018054610f0490611988565b80601f0160208091040260200160405190810160405280929190818152602001828054610f3090611988565b8015610f7d5780601f10610f5257610100808354040283529160200191610f7d565b820191906000526020600020905b815481529060010190602001808311610f6057829003601f168201915b5050505050908060010154905082565b600281805160208101820180518482526020830160208501208183528095505050505050600091509050806000018054610fc690611988565b80601f0160208091040260200160405190810160405280929190818152602001828054610ff290611988565b801561103f5780601f106110145761010080835404028352916020019161103f565b820191906000526020600020905b81548152906001019060200180831161102257829003601f168201915b5050505050908060010154905082565b82805461105b90611988565b90600052602060002090601f01602090048101928261107d57600085556110c4565b82601f1061109657805160ff19168380011785556110c4565b828001600101855582156110c4579182015b828111156110c35782518255916020019190600101906110a8565b5b5090506110d191906111a2565b5090565b8280546110e190611988565b90600052602060002090601f0160209004810192826111035760008555611151565b82601f106111145780548555611151565b8280016001018555821561115157600052602060002091601f016020900482015b82811115611150578254825591600101919060010190611135565b5b50905061115e91906111a2565b5090565b50805461116e90611988565b6000825580601f10611180575061119f565b601f01602090049060005260206000209081019061119e91906111a2565b5b50565b5b808211156111bb5760008160009055506001016111a3565b5090565b60006111d26111cd846117fb565b6117d6565b9050828152602081018484840111156111ea57600080fd5b6111f5848285611946565b509392505050565b60008135905061120c81611afb565b92915050565b600082601f83011261122357600080fd5b81356112338482602086016111bf565b91505092915050565b60008135905061124b81611b12565b92915050565b60008151905061126081611b12565b92915050565b6000806040838503121561127957600080fd5b6000611287858286016111fd565b92505060206112988582860161123c565b9150509250929050565b6000602082840312156112b457600080fd5b600082013567ffffffffffffffff8111156112ce57600080fd5b6112da84828501611212565b91505092915050565b6000806000606084860312156112f857600080fd5b600084013567ffffffffffffffff81111561131257600080fd5b61131e86828701611212565b935050602084013567ffffffffffffffff81111561133b57600080fd5b61134786828701611212565b92505060406113588682870161123c565b9150509250925092565b6000806040838503121561137557600080fd5b600083013567ffffffffffffffff81111561138f57600080fd5b61139b85828601611212565b92505060206113ac8582860161123c565b9150509250929050565b6000602082840312156113c857600080fd5b60006113d68482850161123c565b91505092915050565b6000602082840312156113f157600080fd5b60006113ff84828501611251565b91505092915050565b600061141483836115f5565b905092915050565b611425816118e6565b82525050565b600061143682611851565b6114408185611874565b9350836020820285016114528561182c565b8060005b8581101561148e578484038952815161146f8582611408565b945061147a83611867565b925060208a01995050600181019050611456565b50829750879550505050505092915050565b6114a981611922565b82525050565b60006114ba8261185c565b6114c48185611885565b93506114d4818560208601611955565b6114dd81611ac1565b840191505092915050565b60006114f38261185c565b6114fd8185611896565b935061150d818560208601611955565b61151681611ac1565b840191505092915050565b600061152c8261185c565b61153681856118a7565b9350611546818560208601611955565b80840191505092915050565b6000815461155f81611988565b6115698186611896565b945060018216600081146115845760018114611596576115c9565b60ff19831686526020860193506115c9565b61159f8561183c565b60005b838110156115c1578154818901526001820191506020810190506115a2565b808801955050505b50505092915050565b60006115df601283611896565b91506115ea82611ad2565b602082019050919050565b6000604083016000830151848203600086015261161282826114af565b91505060208301516116276020860182611632565b508091505092915050565b61163b81611918565b82525050565b61164a81611918565b82525050565b600061165c8284611521565b915081905092915050565b600060208201905061167c600083018461141c565b92915050565b6000604082019050611697600083018561141c565b81810360208301526116a981846114e8565b90509392505050565b600060208201905081810360008301526116cc818461142b565b905092915050565b60006020820190506116e960008301846114a0565b92915050565b6000604082019050818103600083015261170981856114e8565b90506117186020830184611641565b9392505050565b6000606082019050818103600083015261173981866114e8565b90506117486020830185611641565b6117556040830184611641565b949350505050565b600060608201905081810360008301526117778186611552565b90506117866020830185611641565b6117936040830184611641565b949350505050565b600060208201905081810360008301526117b4816115d2565b9050919050565b60006020820190506117d06000830184611641565b92915050565b60006117e06117f1565b90506117ec82826119ba565b919050565b6000604051905090565b600067ffffffffffffffff82111561181657611815611a92565b5b61181f82611ac1565b9050602081019050919050565b6000819050602082019050919050565b60008190508160005260206000209050919050565b600081519050919050565b600081519050919050565b6000602082019050919050565b600082825260208201905092915050565b600082825260208201905092915050565b600082825260208201905092915050565b600081905092915050565b60006118bd82611918565b91506118c883611918565b9250828210156118db576118da611a34565b5b828203905092915050565b60006118f1826118f8565b9050919050565b600073ffffffffffffffffffffffffffffffffffffffff82169050919050565b6000819050919050565b600061192d82611934565b9050919050565b600061193f826118f8565b9050919050565b82818337600083830152505050565b60005b83811015611973578082015181840152602081019050611958565b83811115611982576000848401525b50505050565b600060028204905060018216806119a057607f821691505b602082108114156119b4576119b3611a63565b5b50919050565b6119c382611ac1565b810181811067ffffffffffffffff821117156119e2576119e1611a92565b5b80604052505050565b60006119f682611918565b91507fffffffffffffffffffffffffffffffffffffffffffffffffffffffffffffffff821415611a2957611a28611a34565b5b600182019050919050565b7f4e487b7100000000000000000000000000000000000000000000000000000000600052601160045260246000fd5b7f4e487b7100000000000000000000000000000000000000000000000000000000600052602260045260246000fd5b7f4e487b7100000000000000000000000000000000000000000000000000000000600052604160045260246000fd5b6000601f19601f8301169050919050565b7f496e73756666696369656e74206d6f6e65790000000000000000000000000000600082015250565b611b04816118e6565b8114611b0f57600080fd5b50565b611b1b81611918565b8114611b2657600080fd5b5056fea26469706673582212200f95cf7bd929cc47126a84fd4872e965e0675a0f572f395caae41cca60955a8d64736f6c6343000804003360806040523480156200001157600080fd5b506040518060400160405280600781526020017f426f6f73746572000000000000000000000000000000000000000000000000008152506040518060400160405280600781526020017f426f6f7374657200000000000000000000000000000000000000000000000000815250816000908051906020019062000096929190620000b8565b508060019080519060200190620000af929190620000b8565b505050620001cd565b828054620000c69062000168565b90600052602060002090601f016020900481019282620000ea576000855562000136565b82601f106200010557805160ff191683800117855562000136565b8280016001018555821562000136579182015b828111156200013557825182559160200191906001019062000118565b5b50905062000145919062000149565b5090565b5b80821115620001645760008160009055506001016200014a565b5090565b600060028204905060018216806200018157607f821691505b602082108114156200019857620001976200019e565b5b50919050565b7f4e487b7100000000000000000000000000000000000000000000000000000000600052602260045260246000fd5b61367280620001dd6000396000f3fe608060405234801561001057600080fd5b50600436106101165760003560e01c80634f6ccce7116100a257806395d89b411161007157806395d89b4114610317578063a22cb46514610335578063b88d4fde14610351578063c87b56dd1461036d578063e985e9c51461039d57610116565b80634f6ccce7146102575780636352211e1461028757806370a08231146102b757806383451838146102e757610116565b806318160ddd116100e957806318160ddd146101b55780631e9a6950146101d357806323b872dd146101ef5780632f745c591461020b57806342842e0e1461023b57610116565b806301ffc9a71461011b57806306fdde031461014b578063081812fc14610169578063095ea7b314610199575b600080fd5b61013560048036038101906101309190612569565b6103cd565b60405161014291906129d8565b60405180910390f35b6101536103df565b60405161016091906129f3565b60405180910390f35b610183600480360381019061017e91906125bb565b610471565b6040516101909190612971565b60405180910390f35b6101b360048036038101906101ae919061252d565b6104f6565b005b6101bd61060e565b6040516101ca9190612c75565b60405180910390f35b6101ed60048036038101906101e8919061252d565b61061b565b005b610209600480360381019061020491906123d3565b610671565b005b6102256004803603810190610220919061252d565b6106d1565b6040516102329190612c75565b60405180910390f35b610255600480360381019061025091906123d3565b610776565b005b610271600480360381019061026c91906125bb565b610796565b60405161027e9190612c75565b60405180910390f35b6102a1600480360381019061029c91906125bb565b61082d565b6040516102ae9190612971565b60405180910390f35b6102d160048036038101906102cc919061236e565b6108df565b6040516102de9190612c75565b60405180910390f35b61030160048036038101906102fc91906124d9565b610997565b60405161030e9190612c75565b60405180910390f35b61031f6109ce565b60405161032c91906129f3565b60405180910390f35b61034f600480360381019061034a919061249d565b610a60565b005b61036b60048036038101906103669190612422565b610a76565b005b610387600480360381019061038291906125bb565b610ad8565b60405161039491906129f3565b60405180910390f35b6103b760048036038101906103b29190612397565b610aea565b6040516103c491906129d8565b60405180910390f35b60006103d882610b7e565b9050919050565b6060600080546103ee90612ecb565b80601f016020809104026020016040519081016040528092919081815260200182805461041a90612ecb565b80156104675780601f1061043c57610100808354040283529160200191610467565b820191906000526020600020905b81548152906001019060200180831161044a57829003601f168201915b5050505050905090565b600061047c82610bf8565b6104bb576040517f08c379a00000000000000000000000000000000000000000000000000000000081526004016104b290612b95565b60405180910390fd5b6004600083815260200190815260200160002060009054906101000a900473ffffffffffffffffffffffffffffffffffffffff169050919050565b60006105018261082d565b90508073ffffffffffffffffffffffffffffffffffffffff168373ffffffffffffffffffffffffffffffffffffffff161415610572576040517f08c379a000000000000000000000000000000000000000000000000000000000815260040161056990612c15565b60405180910390fd5b8073ffffffffffffffffffffffffffffffffffffffff16610591610c64565b73ffffffffffffffffffffffffffffffffffffffff1614806105c057506105bf816105ba610c64565b610aea565b5b6105ff576040517f08c379a00000000000000000000000000000000000000000000000000000000081526004016105f690612ad5565b60405180910390fd5b6106098383610c6c565b505050565b6000600980549050905090565b6106258282610d25565b610664576040517f08c379a000000000000000000000000000000000000000000000000000000000815260040161065b90612bb5565b60405180910390fd5b61066d81610e03565b5050565b61068261067c610c64565b82610d25565b6106c1576040517f08c379a00000000000000000000000000000000000000000000000000000000081526004016106b890612c35565b60405180910390fd5b6106cc838383610e0f565b505050565b60006106dc836108df565b821061071d576040517f08c379a000000000000000000000000000000000000000000000000000000000815260040161071490612a15565b60405180910390fd5b600760008473ffffffffffffffffffffffffffffffffffffffff1673ffffffffffffffffffffffffffffffffffffffff168152602001908152602001600020600083815260200190815260200160002054905092915050565b61079183838360405180602001604052806000815250610a76565b505050565b60006107a061060e565b82106107e1576040517f08c379a00000000000000000000000000000000000000000000000000000000081526004016107d890612c55565b60405180910390fd5b6009828154811061081b577f4e487b7100000000000000000000000000000000000000000000000000000000600052603260045260246000fd5b90600052602060002001549050919050565b6000806002600084815260200190815260200160002060009054906101000a900473ffffffffffffffffffffffffffffffffffffffff169050600073ffffffffffffffffffffffffffffffffffffffff168173ffffffffffffffffffffffffffffffffffffffff1614156108d6576040517f08c379a00000000000000000000000000000000000000000000000000000000081526004016108cd90612b15565b60405180910390fd5b80915050919050565b60008073ffffffffffffffffffffffffffffffffffffffff168273ffffffffffffffffffffffffffffffffffffffff161415610950576040517f08c379a000000000000000000000000000000000000000000000000000000000815260040161094790612af5565b60405180910390fd5b600360008373ffffffffffffffffffffffffffffffffffffffff1673ffffffffffffffffffffffffffffffffffffffff168152602001908152602001600020549050919050565b6000806109a4600b61106b565b90506109b0600b611079565b6109ba848261108f565b6109c4818461125d565b8091505092915050565b6060600180546109dd90612ecb565b80601f0160208091040260200160405190810160405280929190818152602001828054610a0990612ecb565b8015610a565780601f10610a2b57610100808354040283529160200191610a56565b820191906000526020600020905b815481529060010190602001808311610a3957829003601f168201915b5050505050905090565b610a72610a6b610c64565b83836112d1565b5050565b610a87610a81610c64565b83610d25565b610ac6576040517f08c379a0000000000000000000000000000000000000000000000000000000008152600401610abd90612c35565b60405180910390fd5b610ad28484848461143e565b50505050565b6060610ae38261149a565b9050919050565b6000600560008473ffffffffffffffffffffffffffffffffffffffff1673ffffffffffffffffffffffffffffffffffffffff16815260200190815260200160002060008373ffffffffffffffffffffffffffffffffffffffff1673ffffffffffffffffffffffffffffffffffffffff16815260200190815260200160002060009054906101000a900460ff16905092915050565b60007f780e9d63000000000000000000000000000000000000000000000000000000007bffffffffffffffffffffffffffffffffffffffffffffffffffffffff1916827bffffffffffffffffffffffffffffffffffffffffffffffffffffffff19161480610bf15750610bf0826115ec565b5b9050919050565b60008073ffffffffffffffffffffffffffffffffffffffff166002600084815260200190815260200160002060009054906101000a900473ffffffffffffffffffffffffffffffffffffffff1673ffffffffffffffffffffffffffffffffffffffff1614159050919050565b600033905090565b816004600083815260200190815260200160002060006101000a81548173ffffffffffffffffffffffffffffffffffffffff021916908373ffffffffffffffffffffffffffffffffffffffff160217905550808273ffffffffffffffffffffffffffffffffffffffff16610cdf8361082d565b73ffffffffffffffffffffffffffffffffffffffff167f8c5be1e5ebec7d5bd14f71427d1e84f3dd0314c0f7b2291e5b200ac8c7c3b92560405160405180910390a45050565b6000610d3082610bf8565b610d6f576040517f08c379a0000000000000000000000000000000000000000000000000000000008152600401610d6690612ab5565b60405180910390fd5b6000610d7a8361082d565b90508073ffffffffffffffffffffffffffffffffffffffff168473ffffffffffffffffffffffffffffffffffffffff161480610de957508373ffffffffffffffffffffffffffffffffffffffff16610dd184610471565b73ffffffffffffffffffffffffffffffffffffffff16145b80610dfa5750610df98185610aea565b5b91505092915050565b610e0c816116ce565b50565b8273ffffffffffffffffffffffffffffffffffffffff16610e2f8261082d565b73ffffffffffffffffffffffffffffffffffffffff1614610e85576040517f08c379a0000000000000000000000000000000000000000000000000000000008152600401610e7c90612bd5565b60405180910390fd5b600073ffffffffffffffffffffffffffffffffffffffff168273ffffffffffffffffffffffffffffffffffffffff161415610ef5576040517f08c379a0000000000000000000000000000000000000000000000000000000008152600401610eec90612a75565b60405180910390fd5b610f00838383611721565b610f0b600082610c6c565b6001600360008573ffffffffffffffffffffffffffffffffffffffff1673ffffffffffffffffffffffffffffffffffffffff1681526020019081526020016000206000828254610f5b9190612de1565b925050819055506001600360008473ffffffffffffffffffffffffffffffffffffffff1673ffffffffffffffffffffffffffffffffffffffff1681526020019081526020016000206000828254610fb29190612d5a565b92505081905550816002600083815260200190815260200160002060006101000a81548173ffffffffffffffffffffffffffffffffffffffff021916908373ffffffffffffffffffffffffffffffffffffffff160217905550808273ffffffffffffffffffffffffffffffffffffffff168473ffffffffffffffffffffffffffffffffffffffff167fddf252ad1be2c89b69c2b068fc378daa952ba7f163c4a11628f55a4df523b3ef60405160405180910390a4505050565b600081600001549050919050565b6001816000016000828254019250508190555050565b600073ffffffffffffffffffffffffffffffffffffffff168273ffffffffffffffffffffffffffffffffffffffff1614156110ff576040517f08c379a00000000000000000000000000000000000000000000000000000000081526004016110f690612b55565b60405180910390fd5b61110881610bf8565b15611148576040517f08c379a000000000000000000000000000000000000000000000000000000000815260040161113f90612a55565b60405180910390fd5b61115460008383611721565b6001600360008473ffffffffffffffffffffffffffffffffffffffff1673ffffffffffffffffffffffffffffffffffffffff16815260200190815260200160002060008282546111a49190612d5a565b92505081905550816002600083815260200190815260200160002060006101000a81548173ffffffffffffffffffffffffffffffffffffffff021916908373ffffffffffffffffffffffffffffffffffffffff160217905550808273ffffffffffffffffffffffffffffffffffffffff16600073ffffffffffffffffffffffffffffffffffffffff167fddf252ad1be2c89b69c2b068fc378daa952ba7f163c4a11628f55a4df523b3ef60405160405180910390a45050565b61126682610bf8565b6112a5576040517f08c379a000000000000000000000000000000000000000000000000000000000815260040161129c90612b35565b60405180910390fd5b806006600084815260200190815260200160002090805190602001906112cc929190612152565b505050565b8173ffffffffffffffffffffffffffffffffffffffff168373ffffffffffffffffffffffffffffffffffffffff161415611340576040517f08c379a000000000000000000000000000000000000000000000000000000000815260040161133790612a95565b60405180910390fd5b80600560008573ffffffffffffffffffffffffffffffffffffffff1673ffffffffffffffffffffffffffffffffffffffff16815260200190815260200160002060008473ffffffffffffffffffffffffffffffffffffffff1673ffffffffffffffffffffffffffffffffffffffff16815260200190815260200160002060006101000a81548160ff0219169083151502179055508173ffffffffffffffffffffffffffffffffffffffff168373ffffffffffffffffffffffffffffffffffffffff167f17307eab39ab6107e8899845ad3d59bd9653f200f220920489ca2b5937696c318360405161143191906129d8565b60405180910390a3505050565b611449848484610e0f565b61145584848484611731565b611494576040517f08c379a000000000000000000000000000000000000000000000000000000000815260040161148b90612a35565b60405180910390fd5b50505050565b60606114a582610bf8565b6114e4576040517f08c379a00000000000000000000000000000000000000000000000000000000081526004016114db90612b75565b60405180910390fd5b600060066000848152602001908152602001600020805461150490612ecb565b80601f016020809104026020016040519081016040528092919081815260200182805461153090612ecb565b801561157d5780601f106115525761010080835404028352916020019161157d565b820191906000526020600020905b81548152906001019060200180831161156057829003601f168201915b50505050509050600061158e6118c8565b90506000815114156115a45781925050506115e7565b6000825111156115d95780826040516020016115c192919061294d565b604051602081830303815290604052925050506115e7565b6115e2846118df565b925050505b919050565b60007f80ac58cd000000000000000000000000000000000000000000000000000000007bffffffffffffffffffffffffffffffffffffffffffffffffffffffff1916827bffffffffffffffffffffffffffffffffffffffffffffffffffffffff191614806116b757507f5b5e139f000000000000000000000000000000000000000000000000000000007bffffffffffffffffffffffffffffffffffffffffffffffffffffffff1916827bffffffffffffffffffffffffffffffffffffffffffffffffffffffff1916145b806116c757506116c682611986565b5b9050919050565b6116d7816119f0565b60006006600083815260200190815260200160002080546116f790612ecb565b90501461171e5760066000828152602001908152602001600020600061171d91906121d8565b5b50565b61172c838383611b01565b505050565b60006117528473ffffffffffffffffffffffffffffffffffffffff16611c15565b156118bb578373ffffffffffffffffffffffffffffffffffffffff1663150b7a0261177b610c64565b8786866040518563ffffffff1660e01b815260040161179d949392919061298c565b602060405180830381600087803b1580156117b757600080fd5b505af19250505080156117e857506040513d601f19601f820116820180604052508101906117e59190612592565b60015b61186b573d8060008114611818576040519150601f19603f3d011682016040523d82523d6000602084013e61181d565b606091505b50600081511415611863576040517f08c379a000000000000000000000000000000000000000000000000000000000815260040161185a90612a35565b60405180910390fd5b805181602001fd5b63150b7a0260e01b7bffffffffffffffffffffffffffffffffffffffffffffffffffffffff1916817bffffffffffffffffffffffffffffffffffffffffffffffffffffffff1916149150506118c0565b600190505b949350505050565b606060405180602001604052806000815250905090565b60606118ea82610bf8565b611929576040517f08c379a000000000000000000000000000000000000000000000000000000000815260040161192090612bf5565b60405180910390fd5b60006119336118c8565b90506000815111611953576040518060200160405280600081525061197e565b8061195d84611c28565b60405160200161196e92919061294d565b6040516020818303038152906040525b915050919050565b60007f01ffc9a7000000000000000000000000000000000000000000000000000000007bffffffffffffffffffffffffffffffffffffffffffffffffffffffff1916827bffffffffffffffffffffffffffffffffffffffffffffffffffffffff1916149050919050565b60006119fb8261082d565b9050611a0981600084611721565b611a14600083610c6c565b6001600360008373ffffffffffffffffffffffffffffffffffffffff1673ffffffffffffffffffffffffffffffffffffffff1681526020019081526020016000206000828254611a649190612de1565b925050819055506002600083815260200190815260200160002060006101000a81549073ffffffffffffffffffffffffffffffffffffffff021916905581600073ffffffffffffffffffffffffffffffffffffffff168273ffffffffffffffffffffffffffffffffffffffff167fddf252ad1be2c89b69c2b068fc378daa952ba7f163c4a11628f55a4df523b3ef60405160405180910390a45050565b611b0c838383611dd5565b600073ffffffffffffffffffffffffffffffffffffffff168373ffffffffffffffffffffffffffffffffffffffff161415611b4f57611b4a81611dda565b611b8e565b8173ffffffffffffffffffffffffffffffffffffffff168373ffffffffffffffffffffffffffffffffffffffff1614611b8d57611b8c8382611e23565b5b5b600073ffffffffffffffffffffffffffffffffffffffff168273ffffffffffffffffffffffffffffffffffffffff161415611bd157611bcc81611f90565b611c10565b8273ffffffffffffffffffffffffffffffffffffffff168273ffffffffffffffffffffffffffffffffffffffff1614611c0f57611c0e82826120d3565b5b5b505050565b600080823b905060008111915050919050565b60606000821415611c70576040518060400160405280600181526020017f30000000000000000000000000000000000000000000000000000000000000008152509050611dd0565b600082905060005b60008214611ca2578080611c8b90612f2e565b915050600a82611c9b9190612db0565b9150611c78565b60008167ffffffffffffffff811115611ce4577f4e487b7100000000000000000000000000000000000000000000000000000000600052604160045260246000fd5b6040519080825280601f01601f191660200182016040528015611d165781602001600182028036833780820191505090505b5090505b60008514611dc957600182611d2f9190612de1565b9150600a85611d3e9190612f77565b6030611d4a9190612d5a565b60f81b818381518110611d86577f4e487b7100000000000000000000000000000000000000000000000000000000600052603260045260246000fd5b60200101907effffffffffffffffffffffffffffffffffffffffffffffffffffffffffffff1916908160001a905350600a85611dc29190612db0565b9450611d1a565b8093505050505b919050565b505050565b600980549050600a600083815260200190815260200160002081905550600981908060018154018082558091505060019003906000526020600020016000909190919091505550565b60006001611e30846108df565b611e3a9190612de1565b9050600060086000848152602001908152602001600020549050818114611f1f576000600760008673ffffffffffffffffffffffffffffffffffffffff1673ffffffffffffffffffffffffffffffffffffffff168152602001908152602001600020600084815260200190815260200160002054905080600760008773ffffffffffffffffffffffffffffffffffffffff1673ffffffffffffffffffffffffffffffffffffffff168152602001908152602001600020600084815260200190815260200160002081905550816008600083815260200190815260200160002081905550505b6008600084815260200190815260200160002060009055600760008573ffffffffffffffffffffffffffffffffffffffff1673ffffffffffffffffffffffffffffffffffffffff16815260200190815260200160002060008381526020019081526020016000206000905550505050565b60006001600980549050611fa49190612de1565b90506000600a6000848152602001908152602001600020549050600060098381548110611ffa577f4e487b7100000000000000000000000000000000000000000000000000000000600052603260045260246000fd5b906000526020600020015490508060098381548110612042577f4e487b7100000000000000000000000000000000000000000000000000000000600052603260045260246000fd5b906000526020600020018190555081600a600083815260200190815260200160002081905550600a60008581526020019081526020016000206000905560098054806120b7577f4e487b7100000000000000000000000000000000000000000000000000000000600052603160045260246000fd5b6001900381819060005260206000200160009055905550505050565b60006120de836108df565b905081600760008573ffffffffffffffffffffffffffffffffffffffff1673ffffffffffffffffffffffffffffffffffffffff168152602001908152602001600020600083815260200190815260200160002081905550806008600084815260200190815260200160002081905550505050565b82805461215e90612ecb565b90600052602060002090601f01602090048101928261218057600085556121c7565b82601f1061219957805160ff19168380011785556121c7565b828001600101855582156121c7579182015b828111156121c65782518255916020019190600101906121ab565b5b5090506121d49190612218565b5090565b5080546121e490612ecb565b6000825580601f106121f65750612215565b601f0160209004906000526020600020908101906122149190612218565b5b50565b5b80821115612231576000816000905550600101612219565b5090565b600061224861224384612cb5565b612c90565b90508281526020810184848401111561226057600080fd5b61226b848285612e89565b509392505050565b600061228661228184612ce6565b612c90565b90508281526020810184848401111561229e57600080fd5b6122a9848285612e89565b509392505050565b6000813590506122c0816135e0565b92915050565b6000813590506122d5816135f7565b92915050565b6000813590506122ea8161360e565b92915050565b6000815190506122ff8161360e565b92915050565b600082601f83011261231657600080fd5b8135612326848260208601612235565b91505092915050565b600082601f83011261234057600080fd5b8135612350848260208601612273565b91505092915050565b60008135905061236881613625565b92915050565b60006020828403121561238057600080fd5b600061238e848285016122b1565b91505092915050565b600080604083850312156123aa57600080fd5b60006123b8858286016122b1565b92505060206123c9858286016122b1565b9150509250929050565b6000806000606084860312156123e857600080fd5b60006123f6868287016122b1565b9350506020612407868287016122b1565b925050604061241886828701612359565b9150509250925092565b6000806000806080858703121561243857600080fd5b6000612446878288016122b1565b9450506020612457878288016122b1565b935050604061246887828801612359565b925050606085013567ffffffffffffffff81111561248557600080fd5b61249187828801612305565b91505092959194509250565b600080604083850312156124b057600080fd5b60006124be858286016122b1565b92505060206124cf858286016122c6565b9150509250929050565b600080604083850312156124ec57600080fd5b60006124fa858286016122b1565b925050602083013567ffffffffffffffff81111561251757600080fd5b6125238582860161232f565b9150509250929050565b6000806040838503121561254057600080fd5b600061254e858286016122b1565b925050602061255f85828601612359565b9150509250929050565b60006020828403121561257b57600080fd5b6000612589848285016122db565b91505092915050565b6000602082840312156125a457600080fd5b60006125b2848285016122f0565b91505092915050565b6000602082840312156125cd57600080fd5b60006125db84828501612359565b91505092915050565b6125ed81612e15565b82525050565b6125fc81612e27565b82525050565b600061260d82612d17565b6126178185612d2d565b9350612627818560208601612e98565b61263081613064565b840191505092915050565b600061264682612d22565b6126508185612d3e565b9350612660818560208601612e98565b61266981613064565b840191505092915050565b600061267f82612d22565b6126898185612d4f565b9350612699818560208601612e98565b80840191505092915050565b60006126b2602b83612d3e565b91506126bd82613075565b604082019050919050565b60006126d5603283612d3e565b91506126e0826130c4565b604082019050919050565b60006126f8601c83612d3e565b915061270382613113565b602082019050919050565b600061271b602483612d3e565b91506127268261313c565b604082019050919050565b600061273e601983612d3e565b91506127498261318b565b602082019050919050565b6000612761602c83612d3e565b915061276c826131b4565b604082019050919050565b6000612784603883612d3e565b915061278f82613203565b604082019050919050565b60006127a7602a83612d3e565b91506127b282613252565b604082019050919050565b60006127ca602983612d3e565b91506127d5826132a1565b604082019050919050565b60006127ed602e83612d3e565b91506127f8826132f0565b604082019050919050565b6000612810602083612d3e565b915061281b8261333f565b602082019050919050565b6000612833603183612d3e565b915061283e82613368565b604082019050919050565b6000612856602c83612d3e565b9150612861826133b7565b604082019050919050565b6000612879602983612d3e565b915061288482613406565b604082019050919050565b600061289c602983612d3e565b91506128a782613455565b604082019050919050565b60006128bf602f83612d3e565b91506128ca826134a4565b604082019050919050565b60006128e2602183612d3e565b91506128ed826134f3565b604082019050919050565b6000612905603183612d3e565b915061291082613542565b604082019050919050565b6000612928602c83612d3e565b915061293382613591565b604082019050919050565b61294781612e7f565b82525050565b60006129598285612674565b91506129658284612674565b91508190509392505050565b600060208201905061298660008301846125e4565b92915050565b60006080820190506129a160008301876125e4565b6129ae60208301866125e4565b6129bb604083018561293e565b81810360608301526129cd8184612602565b905095945050505050565b60006020820190506129ed60008301846125f3565b92915050565b60006020820190508181036000830152612a0d818461263b565b905092915050565b60006020820190508181036000830152612a2e816126a5565b9050919050565b60006020820190508181036000830152612a4e816126c8565b9050919050565b60006020820190508181036000830152612a6e816126eb565b9050919050565b60006020820190508181036000830152612a8e8161270e565b9050919050565b60006020820190508181036000830152612aae81612731565b9050919050565b60006020820190508181036000830152612ace81612754565b9050919050565b60006020820190508181036000830152612aee81612777565b9050919050565b60006020820190508181036000830152612b0e8161279a565b9050919050565b60006020820190508181036000830152612b2e816127bd565b9050919050565b60006020820190508181036000830152612b4e816127e0565b9050919050565b60006020820190508181036000830152612b6e81612803565b9050919050565b60006020820190508181036000830152612b8e81612826565b9050919050565b60006020820190508181036000830152612bae81612849565b9050919050565b60006020820190508181036000830152612bce8161286c565b9050919050565b60006020820190508181036000830152612bee8161288f565b9050919050565b60006020820190508181036000830152612c0e816128b2565b9050919050565b60006020820190508181036000830152612c2e816128d5565b9050919050565b60006020820190508181036000830152612c4e816128f8565b9050919050565b60006020820190508181036000830152612c6e8161291b565b9050919050565b6000602082019050612c8a600083018461293e565b92915050565b6000612c9a612cab565b9050612ca68282612efd565b919050565b6000604051905090565b600067ffffffffffffffff821115612cd057612ccf613035565b5b612cd982613064565b9050602081019050919050565b600067ffffffffffffffff821115612d0157612d00613035565b5b612d0a82613064565b9050602081019050919050565b600081519050919050565b600081519050919050565b600082825260208201905092915050565b600082825260208201905092915050565b600081905092915050565b6000612d6582612e7f565b9150612d7083612e7f565b9250827fffffffffffffffffffffffffffffffffffffffffffffffffffffffffffffffff03821115612da557612da4612fa8565b5b828201905092915050565b6000612dbb82612e7f565b9150612dc683612e7f565b925082612dd657612dd5612fd7565b5b828204905092915050565b6000612dec82612e7f565b9150612df783612e7f565b925082821015612e0a57612e09612fa8565b5b828203905092915050565b6000612e2082612e5f565b9050919050565b60008115159050919050565b60007fffffffff0000000000000000000000000000000000000000000000000000000082169050919050565b600073ffffffffffffffffffffffffffffffffffffffff82169050919050565b6000819050919050565b82818337600083830152505050565b60005b83811015612eb6578082015181840152602081019050612e9b565b83811115612ec5576000848401525b50505050565b60006002820490506001821680612ee357607f821691505b60208210811415612ef757612ef6613006565b5b50919050565b612f0682613064565b810181811067ffffffffffffffff82111715612f2557612f24613035565b5b80604052505050565b6000612f3982612e7f565b91507fffffffffffffffffffffffffffffffffffffffffffffffffffffffffffffffff821415612f6c57612f6b612fa8565b5b600182019050919050565b6000612f8282612e7f565b9150612f8d83612e7f565b925082612f9d57612f9c612fd7565b5b828206905092915050565b7f4e487b7100000000000000000000000000000000000000000000000000000000600052601160045260246000fd5b7f4e487b7100000000000000000000000000000000000000000000000000000000600052601260045260246000fd5b7f4e487b7100000000000000000000000000000000000000000000000000000000600052602260045260246000fd5b7f4e487b7100000000000000000000000000000000000000000000000000000000600052604160045260246000fd5b6000601f19601f8301169050919050565b7f455243373231456e756d657261626c653a206f776e657220696e646578206f7560008201527f74206f6620626f756e6473000000000000000000000000000000000000000000602082015250565b7f4552433732313a207472616e7366657220746f206e6f6e20455243373231526560008201527f63656976657220696d706c656d656e7465720000000000000000000000000000602082015250565b7f4552433732313a20746f6b656e20616c7265616479206d696e74656400000000600082015250565b7f4552433732313a207472616e7366657220746f20746865207a65726f2061646460008201527f7265737300000000000000000000000000000000000000000000000000000000602082015250565b7f4552433732313a20617070726f766520746f2063616c6c657200000000000000600082015250565b7f4552433732313a206f70657261746f7220717565727920666f72206e6f6e657860008201527f697374656e7420746f6b656e0000000000000000000000000000000000000000602082015250565b7f4552433732313a20617070726f76652063616c6c6572206973206e6f74206f7760008201527f6e6572206e6f7220617070726f76656420666f7220616c6c0000000000000000602082015250565b7f4552433732313a2062616c616e636520717565727920666f7220746865207a6560008201527f726f206164647265737300000000000000000000000000000000000000000000602082015250565b7f4552433732313a206f776e657220717565727920666f72206e6f6e657869737460008201527f656e7420746f6b656e0000000000000000000000000000000000000000000000602082015250565b7f45524337323155524953746f726167653a2055524920736574206f66206e6f6e60008201527f6578697374656e7420746f6b656e000000000000000000000000000000000000602082015250565b7f4552433732313a206d696e7420746f20746865207a65726f2061646472657373600082015250565b7f45524337323155524953746f726167653a2055524920717565727920666f722060008201527f6e6f6e6578697374656e7420746f6b656e000000000000000000000000000000602082015250565b7f4552433732313a20617070726f76656420717565727920666f72206e6f6e657860008201527f697374656e7420746f6b656e0000000000000000000000000000000000000000602082015250565b7f43616c6c6572206973206e6f74206f776e6572206f66207468697320426f6f7360008201527f74657220746f6b656e0000000000000000000000000000000000000000000000602082015250565b7f4552433732313a207472616e73666572206f6620746f6b656e2074686174206960008201527f73206e6f74206f776e0000000000000000000000000000000000000000000000602082015250565b7f4552433732314d657461646174613a2055524920717565727920666f72206e6f60008201527f6e6578697374656e7420746f6b656e0000000000000000000000000000000000602082015250565b7f4552433732313a20617070726f76616c20746f2063757272656e74206f776e6560008201527f7200000000000000000000000000000000000000000000000000000000000000602082015250565b7f4552433732313a207472616e736665722063616c6c6572206973206e6f74206f60008201527f776e6572206e6f7220617070726f766564000000000000000000000000000000602082015250565b7f455243373231456e756d657261626c653a20676c6f62616c20696e646578206f60008201527f7574206f6620626f756e64730000000000000000000000000000000000000000602082015250565b6135e981612e15565b81146135f457600080fd5b50565b61360081612e27565b811461360b57600080fd5b50565b61361781612e33565b811461362257600080fd5b50565b61362e81612e7f565b811461363957600080fd5b5056fea26469706673582212203b79d2d8d57bf6f4ab90f1c62bb4bafdf11c08dbcce52362b1c87a102931d45c64736f6c6343000804003360806040523480156200001157600080fd5b506040518060400160405280600481526020017f466f6f64000000000000000000000000000000000000000000000000000000008152506040518060400160405280600481526020017f466f6f6400000000000000000000000000000000000000000000000000000000815250816000908051906020019062000096929190620000b8565b508060019080519060200190620000af929190620000b8565b505050620001cd565b828054620000c69062000168565b90600052602060002090601f016020900481019282620000ea576000855562000136565b82601f106200010557805160ff191683800117855562000136565b8280016001018555821562000136579182015b828111156200013557825182559160200191906001019062000118565b5b50905062000145919062000149565b5090565b5b80821115620001645760008160009055506001016200014a565b5090565b600060028204905060018216806200018157607f821691505b602082108114156200019857620001976200019e565b5b50919050565b7f4e487b7100000000000000000000000000000000000000000000000000000000600052602260045260246000fd5b6136f280620001dd6000396000f3fe608060405234801561001057600080fd5b50600436106101215760003560e01c80634f6ccce7116100ad57806395dbee2d1161007157806395dbee2d14610340578063a22cb4651461035c578063b88d4fde14610378578063c87b56dd14610394578063e985e9c5146103c457610121565b80634f6ccce7146102625780636352211e1461029257806370a08231146102c257806383451838146102f257806395d89b411461032257610121565b806318160ddd116100f457806318160ddd146101c05780631e9a6950146101de57806323b872dd146101fa5780632f745c591461021657806342842e0e1461024657610121565b806301ffc9a71461012657806306fdde0314610156578063081812fc14610174578063095ea7b3146101a4575b600080fd5b610140600480360381019061013b91906125e9565b6103f4565b60405161014d9190612a58565b60405180910390f35b61015e610406565b60405161016b9190612a73565b60405180910390f35b61018e6004803603810190610189919061263b565b610498565b60405161019b91906129f1565b60405180910390f35b6101be60048036038101906101b991906125ad565b61051d565b005b6101c8610635565b6040516101d59190612cf5565b60405180910390f35b6101f860048036038101906101f391906125ad565b610642565b005b610214600480360381019061020f9190612453565b610698565b005b610230600480360381019061022b91906125ad565b6106f8565b60405161023d9190612cf5565b60405180910390f35b610260600480360381019061025b9190612453565b61079d565b005b61027c6004803603810190610277919061263b565b6107bd565b6040516102899190612cf5565b60405180910390f35b6102ac60048036038101906102a7919061263b565b610854565b6040516102b991906129f1565b60405180910390f35b6102dc60048036038101906102d791906123ee565b610906565b6040516102e99190612cf5565b60405180910390f35b61030c60048036038101906103079190612559565b6109be565b6040516103199190612cf5565b60405180910390f35b61032a6109f5565b6040516103379190612a73565b60405180910390f35b61035a60048036038101906103559190612453565b610a87565b005b6103766004803603810190610371919061251d565b610ae0565b005b610392600480360381019061038d91906124a2565b610af6565b005b6103ae60048036038101906103a9919061263b565b610b58565b6040516103bb9190612a73565b60405180910390f35b6103de60048036038101906103d99190612417565b610b6a565b6040516103eb9190612a58565b60405180910390f35b60006103ff82610bfe565b9050919050565b60606000805461041590612f4b565b80601f016020809104026020016040519081016040528092919081815260200182805461044190612f4b565b801561048e5780601f106104635761010080835404028352916020019161048e565b820191906000526020600020905b81548152906001019060200180831161047157829003601f168201915b5050505050905090565b60006104a382610c78565b6104e2576040517f08c379a00000000000000000000000000000000000000000000000000000000081526004016104d990612c35565b60405180910390fd5b6004600083815260200190815260200160002060009054906101000a900473ffffffffffffffffffffffffffffffffffffffff169050919050565b600061052882610854565b90508073ffffffffffffffffffffffffffffffffffffffff168373ffffffffffffffffffffffffffffffffffffffff161415610599576040517f08c379a000000000000000000000000000000000000000000000000000000000815260040161059090612c95565b60405180910390fd5b8073ffffffffffffffffffffffffffffffffffffffff166105b8610ce4565b73ffffffffffffffffffffffffffffffffffffffff1614806105e757506105e6816105e1610ce4565b610b6a565b5b610626576040517f08c379a000000000000000000000000000000000000000000000000000000000815260040161061d90612b75565b60405180910390fd5b6106308383610cec565b505050565b6000600980549050905090565b61064c8282610da5565b61068b576040517f08c379a000000000000000000000000000000000000000000000000000000000815260040161068290612a95565b60405180910390fd5b61069481610e83565b5050565b6106a96106a3610ce4565b82610da5565b6106e8576040517f08c379a00000000000000000000000000000000000000000000000000000000081526004016106df90612cb5565b60405180910390fd5b6106f3838383610e8f565b505050565b600061070383610906565b8210610744576040517f08c379a000000000000000000000000000000000000000000000000000000000815260040161073b90612ab5565b60405180910390fd5b600760008473ffffffffffffffffffffffffffffffffffffffff1673ffffffffffffffffffffffffffffffffffffffff168152602001908152602001600020600083815260200190815260200160002054905092915050565b6107b883838360405180602001604052806000815250610af6565b505050565b60006107c7610635565b8210610808576040517f08c379a00000000000000000000000000000000000000000000000000000000081526004016107ff90612cd5565b60405180910390fd5b60098281548110610842577f4e487b7100000000000000000000000000000000000000000000000000000000600052603260045260246000fd5b90600052602060002001549050919050565b6000806002600084815260200190815260200160002060009054906101000a900473ffffffffffffffffffffffffffffffffffffffff169050600073ffffffffffffffffffffffffffffffffffffffff168173ffffffffffffffffffffffffffffffffffffffff1614156108fd576040517f08c379a00000000000000000000000000000000000000000000000000000000081526004016108f490612bb5565b60405180910390fd5b80915050919050565b60008073ffffffffffffffffffffffffffffffffffffffff168273ffffffffffffffffffffffffffffffffffffffff161415610977576040517f08c379a000000000000000000000000000000000000000000000000000000000815260040161096e90612b95565b60405180910390fd5b600360008373ffffffffffffffffffffffffffffffffffffffff1673ffffffffffffffffffffffffffffffffffffffff168152602001908152602001600020549050919050565b6000806109cb600b6110eb565b90506109d7600b6110f9565b6109e1848261110f565b6109eb81846112dd565b8091505092915050565b606060018054610a0490612f4b565b80601f0160208091040260200160405190810160405280929190818152602001828054610a3090612f4b565b8015610a7d5780601f10610a5257610100808354040283529160200191610a7d565b820191906000526020600020905b815481529060010190602001808311610a6057829003601f168201915b5050505050905090565b610a918382610da5565b610ad0576040517f08c379a0000000000000000000000000000000000000000000000000000000008152600401610ac790612a95565b60405180910390fd5b610adb838383610e8f565b505050565b610af2610aeb610ce4565b8383611351565b5050565b610b07610b01610ce4565b83610da5565b610b46576040517f08c379a0000000000000000000000000000000000000000000000000000000008152600401610b3d90612cb5565b60405180910390fd5b610b52848484846114be565b50505050565b6060610b638261151a565b9050919050565b6000600560008473ffffffffffffffffffffffffffffffffffffffff1673ffffffffffffffffffffffffffffffffffffffff16815260200190815260200160002060008373ffffffffffffffffffffffffffffffffffffffff1673ffffffffffffffffffffffffffffffffffffffff16815260200190815260200160002060009054906101000a900460ff16905092915050565b60007f780e9d63000000000000000000000000000000000000000000000000000000007bffffffffffffffffffffffffffffffffffffffffffffffffffffffff1916827bffffffffffffffffffffffffffffffffffffffffffffffffffffffff19161480610c715750610c708261166c565b5b9050919050565b60008073ffffffffffffffffffffffffffffffffffffffff166002600084815260200190815260200160002060009054906101000a900473ffffffffffffffffffffffffffffffffffffffff1673ffffffffffffffffffffffffffffffffffffffff1614159050919050565b600033905090565b816004600083815260200190815260200160002060006101000a81548173ffffffffffffffffffffffffffffffffffffffff021916908373ffffffffffffffffffffffffffffffffffffffff160217905550808273ffffffffffffffffffffffffffffffffffffffff16610d5f83610854565b73ffffffffffffffffffffffffffffffffffffffff167f8c5be1e5ebec7d5bd14f71427d1e84f3dd0314c0f7b2291e5b200ac8c7c3b92560405160405180910390a45050565b6000610db082610c78565b610def576040517f08c379a0000000000000000000000000000000000000000000000000000000008152600401610de690612b55565b60405180910390fd5b6000610dfa83610854565b90508073ffffffffffffffffffffffffffffffffffffffff168473ffffffffffffffffffffffffffffffffffffffff161480610e6957508373ffffffffffffffffffffffffffffffffffffffff16610e5184610498565b73ffffffffffffffffffffffffffffffffffffffff16145b80610e7a5750610e798185610b6a565b5b91505092915050565b610e8c8161174e565b50565b8273ffffffffffffffffffffffffffffffffffffffff16610eaf82610854565b73ffffffffffffffffffffffffffffffffffffffff1614610f05576040517f08c379a0000000000000000000000000000000000000000000000000000000008152600401610efc90612c55565b60405180910390fd5b600073ffffffffffffffffffffffffffffffffffffffff168273ffffffffffffffffffffffffffffffffffffffff161415610f75576040517f08c379a0000000000000000000000000000000000000000000000000000000008152600401610f6c90612b15565b60405180910390fd5b610f808383836117a1565b610f8b600082610cec565b6001600360008573ffffffffffffffffffffffffffffffffffffffff1673ffffffffffffffffffffffffffffffffffffffff1681526020019081526020016000206000828254610fdb9190612e61565b925050819055506001600360008473ffffffffffffffffffffffffffffffffffffffff1673ffffffffffffffffffffffffffffffffffffffff16815260200190815260200160002060008282546110329190612dda565b92505081905550816002600083815260200190815260200160002060006101000a81548173ffffffffffffffffffffffffffffffffffffffff021916908373ffffffffffffffffffffffffffffffffffffffff160217905550808273ffffffffffffffffffffffffffffffffffffffff168473ffffffffffffffffffffffffffffffffffffffff167fddf252ad1be2c89b69c2b068fc378daa952ba7f163c4a11628f55a4df523b3ef60405160405180910390a4505050565b600081600001549050919050565b6001816000016000828254019250508190555050565b600073ffffffffffffffffffffffffffffffffffffffff168273ffffffffffffffffffffffffffffffffffffffff16141561117f576040517f08c379a000000000000000000000000000000000000000000000000000000000815260040161117690612bf5565b60405180910390fd5b61118881610c78565b156111c8576040517f08c379a00000000000000000000000000000000000000000000000000000000081526004016111bf90612af5565b60405180910390fd5b6111d4600083836117a1565b6001600360008473ffffffffffffffffffffffffffffffffffffffff1673ffffffffffffffffffffffffffffffffffffffff16815260200190815260200160002060008282546112249190612dda565b92505081905550816002600083815260200190815260200160002060006101000a81548173ffffffffffffffffffffffffffffffffffffffff021916908373ffffffffffffffffffffffffffffffffffffffff160217905550808273ffffffffffffffffffffffffffffffffffffffff16600073ffffffffffffffffffffffffffffffffffffffff167fddf252ad1be2c89b69c2b068fc378daa952ba7f163c4a11628f55a4df523b3ef60405160405180910390a45050565b6112e682610c78565b611325576040517f08c379a000000000000000000000000000000000000000000000000000000000815260040161131c90612bd5565b60405180910390fd5b8060066000848152602001908152602001600020908051906020019061134c9291906121d2565b505050565b8173ffffffffffffffffffffffffffffffffffffffff168373ffffffffffffffffffffffffffffffffffffffff1614156113c0576040517f08c379a00000000000000000000000000000000000000000000000000000000081526004016113b790612b35565b60405180910390fd5b80600560008573ffffffffffffffffffffffffffffffffffffffff1673ffffffffffffffffffffffffffffffffffffffff16815260200190815260200160002060008473ffffffffffffffffffffffffffffffffffffffff1673ffffffffffffffffffffffffffffffffffffffff16815260200190815260200160002060006101000a81548160ff0219169083151502179055508173ffffffffffffffffffffffffffffffffffffffff168373ffffffffffffffffffffffffffffffffffffffff167f17307eab39ab6107e8899845ad3d59bd9653f200f220920489ca2b5937696c31836040516114b19190612a58565b60405180910390a3505050565b6114c9848484610e8f565b6114d5848484846117b1565b611514576040517f08c379a000000000000000000000000000000000000000000000000000000000815260040161150b90612ad5565b60405180910390fd5b50505050565b606061152582610c78565b611564576040517f08c379a000000000000000000000000000000000000000000000000000000000815260040161155b90612c15565b60405180910390fd5b600060066000848152602001908152602001600020805461158490612f4b565b80601f01602080910402602001604051908101604052809291908181526020018280546115b090612f4b565b80156115fd5780601f106115d2576101008083540402835291602001916115fd565b820191906000526020600020905b8154815290600101906020018083116115e057829003601f168201915b50505050509050600061160e611948565b9050600081511415611624578192505050611667565b6000825111156116595780826040516020016116419291906129cd565b60405160208183030381529060405292505050611667565b6116628461195f565b925050505b919050565b60007f80ac58cd000000000000000000000000000000000000000000000000000000007bffffffffffffffffffffffffffffffffffffffffffffffffffffffff1916827bffffffffffffffffffffffffffffffffffffffffffffffffffffffff1916148061173757507f5b5e139f000000000000000000000000000000000000000000000000000000007bffffffffffffffffffffffffffffffffffffffffffffffffffffffff1916827bffffffffffffffffffffffffffffffffffffffffffffffffffffffff1916145b80611747575061174682611a06565b5b9050919050565b61175781611a70565b600060066000838152602001908152602001600020805461177790612f4b565b90501461179e5760066000828152602001908152602001600020600061179d9190612258565b5b50565b6117ac838383611b81565b505050565b60006117d28473ffffffffffffffffffffffffffffffffffffffff16611c95565b1561193b578373ffffffffffffffffffffffffffffffffffffffff1663150b7a026117fb610ce4565b8786866040518563ffffffff1660e01b815260040161181d9493929190612a0c565b602060405180830381600087803b15801561183757600080fd5b505af192505050801561186857506040513d601f19601f820116820180604052508101906118659190612612565b60015b6118eb573d8060008114611898576040519150601f19603f3d011682016040523d82523d6000602084013e61189d565b606091505b506000815114156118e3576040517f08c379a00000000000000000000000000000000000000000000000000000000081526004016118da90612ad5565b60405180910390fd5b805181602001fd5b63150b7a0260e01b7bffffffffffffffffffffffffffffffffffffffffffffffffffffffff1916817bffffffffffffffffffffffffffffffffffffffffffffffffffffffff191614915050611940565b600190505b949350505050565b606060405180602001604052806000815250905090565b606061196a82610c78565b6119a9576040517f08c379a00000000000000000000000000000000000000000000000000000000081526004016119a090612c75565b60405180910390fd5b60006119b3611948565b905060008151116119d357604051806020016040528060008152506119fe565b806119dd84611ca8565b6040516020016119ee9291906129cd565b6040516020818303038152906040525b915050919050565b60007f01ffc9a7000000000000000000000000000000000000000000000000000000007bffffffffffffffffffffffffffffffffffffffffffffffffffffffff1916827bffffffffffffffffffffffffffffffffffffffffffffffffffffffff1916149050919050565b6000611a7b82610854565b9050611a89816000846117a1565b611a94600083610cec565b6001600360008373ffffffffffffffffffffffffffffffffffffffff1673ffffffffffffffffffffffffffffffffffffffff1681526020019081526020016000206000828254611ae49190612e61565b925050819055506002600083815260200190815260200160002060006101000a81549073ffffffffffffffffffffffffffffffffffffffff021916905581600073ffffffffffffffffffffffffffffffffffffffff168273ffffffffffffffffffffffffffffffffffffffff167fddf252ad1be2c89b69c2b068fc378daa952ba7f163c4a11628f55a4df523b3ef60405160405180910390a45050565b611b8c838383611e55565b600073ffffffffffffffffffffffffffffffffffffffff168373ffffffffffffffffffffffffffffffffffffffff161415611bcf57611bca81611e5a565b611c0e565b8173ffffffffffffffffffffffffffffffffffffffff168373ffffffffffffffffffffffffffffffffffffffff1614611c0d57611c0c8382611ea3565b5b5b600073ffffffffffffffffffffffffffffffffffffffff168273ffffffffffffffffffffffffffffffffffffffff161415611c5157611c4c81612010565b611c90565b8273ffffffffffffffffffffffffffffffffffffffff168273ffffffffffffffffffffffffffffffffffffffff1614611c8f57611c8e8282612153565b5b5b505050565b600080823b905060008111915050919050565b60606000821415611cf0576040518060400160405280600181526020017f30000000000000000000000000000000000000000000000000000000000000008152509050611e50565b600082905060005b60008214611d22578080611d0b90612fae565b915050600a82611d1b9190612e30565b9150611cf8565b60008167ffffffffffffffff811115611d64577f4e487b7100000000000000000000000000000000000000000000000000000000600052604160045260246000fd5b6040519080825280601f01601f191660200182016040528015611d965781602001600182028036833780820191505090505b5090505b60008514611e4957600182611daf9190612e61565b9150600a85611dbe9190612ff7565b6030611dca9190612dda565b60f81b818381518110611e06577f4e487b7100000000000000000000000000000000000000000000000000000000600052603260045260246000fd5b60200101907effffffffffffffffffffffffffffffffffffffffffffffffffffffffffffff1916908160001a905350600a85611e429190612e30565b9450611d9a565b8093505050505b919050565b505050565b600980549050600a600083815260200190815260200160002081905550600981908060018154018082558091505060019003906000526020600020016000909190919091505550565b60006001611eb084610906565b611eba9190612e61565b9050600060086000848152602001908152602001600020549050818114611f9f576000600760008673ffffffffffffffffffffffffffffffffffffffff1673ffffffffffffffffffffffffffffffffffffffff168152602001908152602001600020600084815260200190815260200160002054905080600760008773ffffffffffffffffffffffffffffffffffffffff1673ffffffffffffffffffffffffffffffffffffffff168152602001908152602001600020600084815260200190815260200160002081905550816008600083815260200190815260200160002081905550505b6008600084815260200190815260200160002060009055600760008573ffffffffffffffffffffffffffffffffffffffff1673ffffffffffffffffffffffffffffffffffffffff16815260200190815260200160002060008381526020019081526020016000206000905550505050565b600060016009805490506120249190612e61565b90506000600a600084815260200190815260200160002054905060006009838154811061207a577f4e487b7100000000000000000000000000000000000000000000000000000000600052603260045260246000fd5b9060005260206000200154905080600983815481106120c2577f4e487b7100000000000000000000000000000000000000000000000000000000600052603260045260246000fd5b906000526020600020018190555081600a600083815260200190815260200160002081905550600a6000858152602001908152602001600020600090556009805480612137577f4e487b7100000000000000000000000000000000000000000000000000000000600052603160045260246000fd5b6001900381819060005260206000200160009055905550505050565b600061215e83610906565b905081600760008573ffffffffffffffffffffffffffffffffffffffff1673ffffffffffffffffffffffffffffffffffffffff168152602001908152602001600020600083815260200190815260200160002081905550806008600084815260200190815260200160002081905550505050565b8280546121de90612f4b565b90600052602060002090601f0160209004810192826122005760008555612247565b82601f1061221957805160ff1916838001178555612247565b82800160010185558215612247579182015b8281111561224657825182559160200191906001019061222b565b5b5090506122549190612298565b5090565b50805461226490612f4b565b6000825580601f106122765750612295565b601f0160209004906000526020600020908101906122949190612298565b5b50565b5b808211156122b1576000816000905550600101612299565b5090565b60006122c86122c384612d35565b612d10565b9050828152602081018484840111156122e057600080fd5b6122eb848285612f09565b509392505050565b600061230661230184612d66565b612d10565b90508281526020810184848401111561231e57600080fd5b612329848285612f09565b509392505050565b60008135905061234081613660565b92915050565b60008135905061235581613677565b92915050565b60008135905061236a8161368e565b92915050565b60008151905061237f8161368e565b92915050565b600082601f83011261239657600080fd5b81356123a68482602086016122b5565b91505092915050565b600082601f8301126123c057600080fd5b81356123d08482602086016122f3565b91505092915050565b6000813590506123e8816136a5565b92915050565b60006020828403121561240057600080fd5b600061240e84828501612331565b91505092915050565b6000806040838503121561242a57600080fd5b600061243885828601612331565b925050602061244985828601612331565b9150509250929050565b60008060006060848603121561246857600080fd5b600061247686828701612331565b935050602061248786828701612331565b9250506040612498868287016123d9565b9150509250925092565b600080600080608085870312156124b857600080fd5b60006124c687828801612331565b94505060206124d787828801612331565b93505060406124e8878288016123d9565b925050606085013567ffffffffffffffff81111561250557600080fd5b61251187828801612385565b91505092959194509250565b6000806040838503121561253057600080fd5b600061253e85828601612331565b925050602061254f85828601612346565b9150509250929050565b6000806040838503121561256c57600080fd5b600061257a85828601612331565b925050602083013567ffffffffffffffff81111561259757600080fd5b6125a3858286016123af565b9150509250929050565b600080604083850312156125c057600080fd5b60006125ce85828601612331565b92505060206125df858286016123d9565b9150509250929050565b6000602082840312156125fb57600080fd5b60006126098482850161235b565b91505092915050565b60006020828403121561262457600080fd5b600061263284828501612370565b91505092915050565b60006020828403121561264d57600080fd5b600061265b848285016123d9565b91505092915050565b61266d81612e95565b82525050565b61267c81612ea7565b82525050565b600061268d82612d97565b6126978185612dad565b93506126a7818560208601612f18565b6126b0816130e4565b840191505092915050565b60006126c682612da2565b6126d08185612dbe565b93506126e0818560208601612f18565b6126e9816130e4565b840191505092915050565b60006126ff82612da2565b6127098185612dcf565b9350612719818560208601612f18565b80840191505092915050565b6000612732602683612dbe565b915061273d826130f5565b604082019050919050565b6000612755602b83612dbe565b915061276082613144565b604082019050919050565b6000612778603283612dbe565b915061278382613193565b604082019050919050565b600061279b601c83612dbe565b91506127a6826131e2565b602082019050919050565b60006127be602483612dbe565b91506127c98261320b565b604082019050919050565b60006127e1601983612dbe565b91506127ec8261325a565b602082019050919050565b6000612804602c83612dbe565b915061280f82613283565b604082019050919050565b6000612827603883612dbe565b9150612832826132d2565b604082019050919050565b600061284a602a83612dbe565b915061285582613321565b604082019050919050565b600061286d602983612dbe565b915061287882613370565b604082019050919050565b6000612890602e83612dbe565b915061289b826133bf565b604082019050919050565b60006128b3602083612dbe565b91506128be8261340e565b602082019050919050565b60006128d6603183612dbe565b91506128e182613437565b604082019050919050565b60006128f9602c83612dbe565b915061290482613486565b604082019050919050565b600061291c602983612dbe565b9150612927826134d5565b604082019050919050565b600061293f602f83612dbe565b915061294a82613524565b604082019050919050565b6000612962602183612dbe565b915061296d82613573565b604082019050919050565b6000612985603183612dbe565b9150612990826135c2565b604082019050919050565b60006129a8602c83612dbe565b91506129b382613611565b604082019050919050565b6129c781612eff565b82525050565b60006129d982856126f4565b91506129e582846126f4565b91508190509392505050565b6000602082019050612a066000830184612664565b92915050565b6000608082019050612a216000830187612664565b612a2e6020830186612664565b612a3b60408301856129be565b8181036060830152612a4d8184612682565b905095945050505050565b6000602082019050612a6d6000830184612673565b92915050565b60006020820190508181036000830152612a8d81846126bb565b905092915050565b60006020820190508181036000830152612aae81612725565b9050919050565b60006020820190508181036000830152612ace81612748565b9050919050565b60006020820190508181036000830152612aee8161276b565b9050919050565b60006020820190508181036000830152612b0e8161278e565b9050919050565b60006020820190508181036000830152612b2e816127b1565b9050919050565b60006020820190508181036000830152612b4e816127d4565b9050919050565b60006020820190508181036000830152612b6e816127f7565b9050919050565b60006020820190508181036000830152612b8e8161281a565b9050919050565b60006020820190508181036000830152612bae8161283d565b9050919050565b60006020820190508181036000830152612bce81612860565b9050919050565b60006020820190508181036000830152612bee81612883565b9050919050565b60006020820190508181036000830152612c0e816128a6565b9050919050565b60006020820190508181036000830152612c2e816128c9565b9050919050565b60006020820190508181036000830152612c4e816128ec565b9050919050565b60006020820190508181036000830152612c6e8161290f565b9050919050565b60006020820190508181036000830152612c8e81612932565b9050919050565b60006020820190508181036000830152612cae81612955565b9050919050565b60006020820190508181036000830152612cce81612978565b9050919050565b60006020820190508181036000830152612cee8161299b565b9050919050565b6000602082019050612d0a60008301846129be565b92915050565b6000612d1a612d2b565b9050612d268282612f7d565b919050565b6000604051905090565b600067ffffffffffffffff821115612d5057612d4f6130b5565b5b612d59826130e4565b9050602081019050919050565b600067ffffffffffffffff821115612d8157612d806130b5565b5b612d8a826130e4565b9050602081019050919050565b600081519050919050565b600081519050919050565b600082825260208201905092915050565b600082825260208201905092915050565b600081905092915050565b6000612de582612eff565b9150612df083612eff565b9250827fffffffffffffffffffffffffffffffffffffffffffffffffffffffffffffffff03821115612e2557612e24613028565b5b828201905092915050565b6000612e3b82612eff565b9150612e4683612eff565b925082612e5657612e55613057565b5b828204905092915050565b6000612e6c82612eff565b9150612e7783612eff565b925082821015612e8a57612e89613028565b5b828203905092915050565b6000612ea082612edf565b9050919050565b60008115159050919050565b60007fffffffff0000000000000000000000000000000000000000000000000000000082169050919050565b600073ffffffffffffffffffffffffffffffffffffffff82169050919050565b6000819050919050565b82818337600083830152505050565b60005b83811015612f36578082015181840152602081019050612f1b565b83811115612f45576000848401525b50505050565b60006002820490506001821680612f6357607f821691505b60208210811415612f7757612f76613086565b5b50919050565b612f86826130e4565b810181811067ffffffffffffffff82111715612fa557612fa46130b5565b5b80604052505050565b6000612fb982612eff565b91507fffffffffffffffffffffffffffffffffffffffffffffffffffffffffffffffff821415612fec57612feb613028565b5b600182019050919050565b600061300282612eff565b915061300d83612eff565b92508261301d5761301c613057565b5b828206905092915050565b7f4e487b7100000000000000000000000000000000000000000000000000000000600052601160045260246000fd5b7f4e487b7100000000000000000000000000000000000000000000000000000000600052601260045260246000fd5b7f4e487b7100000000000000000000000000000000000000000000000000000000600052602260045260246000fd5b7f4e487b7100000000000000000000000000000000000000000000000000000000600052604160045260246000fd5b6000601f19601f8301169050919050565b7f43616c6c6572206973206e6f74206f776e6572206f66207468697320466f6f6460008201527f20746f6b656e0000000000000000000000000000000000000000000000000000602082015250565b7f455243373231456e756d657261626c653a206f776e657220696e646578206f7560008201527f74206f6620626f756e6473000000000000000000000000000000000000000000602082015250565b7f4552433732313a207472616e7366657220746f206e6f6e20455243373231526560008201527f63656976657220696d706c656d656e7465720000000000000000000000000000602082015250565b7f4552433732313a20746f6b656e20616c7265616479206d696e74656400000000600082015250565b7f4552433732313a207472616e7366657220746f20746865207a65726f2061646460008201527f7265737300000000000000000000000000000000000000000000000000000000602082015250565b7f4552433732313a20617070726f766520746f2063616c6c657200000000000000600082015250565b7f4552433732313a206f70657261746f7220717565727920666f72206e6f6e657860008201527f697374656e7420746f6b656e0000000000000000000000000000000000000000602082015250565b7f4552433732313a20617070726f76652063616c6c6572206973206e6f74206f7760008201527f6e6572206e6f7220617070726f76656420666f7220616c6c0000000000000000602082015250565b7f4552433732313a2062616c616e636520717565727920666f7220746865207a6560008201527f726f206164647265737300000000000000000000000000000000000000000000602082015250565b7f4552433732313a206f776e657220717565727920666f72206e6f6e657869737460008201527f656e7420746f6b656e0000000000000000000000000000000000000000000000602082015250565b7f45524337323155524953746f726167653a2055524920736574206f66206e6f6e60008201527f6578697374656e7420746f6b656e000000000000000000000000000000000000602082015250565b7f4552433732313a206d696e7420746f20746865207a65726f2061646472657373600082015250565b7f45524337323155524953746f726167653a2055524920717565727920666f722060008201527f6e6f6e6578697374656e7420746f6b656e000000000000000000000000000000602082015250565b7f4552433732313a20617070726f76656420717565727920666f72206e6f6e657860008201527f697374656e7420746f6b656e0000000000000000000000000000000000000000602082015250565b7f4552433732313a207472616e73666572206f6620746f6b656e2074686174206960008201527f73206e6f74206f776e0000000000000000000000000000000000000000000000602082015250565b7f4552433732314d657461646174613a2055524920717565727920666f72206e6f60008201527f6e6578697374656e7420746f6b656e0000000000000000000000000000000000602082015250565b7f4552433732313a20617070726f76616c20746f2063757272656e74206f776e6560008201527f7200000000000000000000000000000000000000000000000000000000000000602082015250565b7f4552433732313a207472616e736665722063616c6c6572206973206e6f74206f60008201527f776e6572206e6f7220617070726f766564000000000000000000000000000000602082015250565b7f455243373231456e756d657261626c653a20676c6f62616c20696e646578206f60008201527f7574206f6620626f756e64730000000000000000000000000000000000000000602082015250565b61366981612e95565b811461367457600080fd5b50565b61368081612ea7565b811461368b57600080fd5b50565b61369781612eb3565b81146136a257600080fd5b50565b6136ae81612eff565b81146136b957600080fd5b5056fea26469706673582212203edb59769b341af19e6261da182257391f2eb137290684bc32038a5bad6f8d7464736f6c63430008040033",
  "linkReferences": {},
  "deployedLinkReferences": {}
}